{
	"contracts/event.sol": {
		"Transfer": {
			"abi": [
				{
					"anonymous": false,
					"inputs": [
						{
							"indexed": true,
							"internalType": "address",
							"name": "from",
							"type": "address"
						},
						{
							"indexed": true,
							"internalType": "address",
							"name": "to",
							"type": "address"
						},
						{
							"indexed": false,
							"internalType": "uint256",
							"name": "amount",
							"type": "uint256"
						},
						{
							"indexed": false,
							"internalType": "uint256",
							"name": "timestamp",
							"type": "uint256"
						}
					],
					"name": "ethTransfer",
					"type": "event"
				},
				{
					"anonymous": false,
					"inputs": [
						{
							"indexed": true,
							"internalType": "address",
							"name": "from",
							"type": "address"
						},
						{
							"indexed": true,
							"internalType": "address",
							"name": "to",
							"type": "address"
						},
						{
							"indexed": false,
							"internalType": "uint256",
							"name": "amount",
							"type": "uint256"
						},
						{
							"indexed": false,
							"internalType": "uint256",
							"name": "timestamp",
							"type": "uint256"
						}
					],
					"name": "ethTransfer2",
					"type": "event"
				},
				{
					"inputs": [],
					"name": "getContractAddress",
					"outputs": [
						{
							"internalType": "address",
							"name": "",
							"type": "address"
						}
					],
					"stateMutability": "view",
					"type": "function"
				},
				{
					"inputs": [],
					"name": "getName",
					"outputs": [
						{
							"internalType": "string",
							"name": "",
							"type": "string"
						}
					],
					"stateMutability": "view",
					"type": "function"
				},
				{
					"inputs": [
						{
							"internalType": "string",
							"name": "_name",
							"type": "string"
						}
					],
					"name": "setName",
					"outputs": [],
					"stateMutability": "nonpayable",
					"type": "function"
				},
				{
					"inputs": [
						{
							"internalType": "uint256",
							"name": "price",
							"type": "uint256"
						},
						{
							"internalType": "uint256",
							"name": "amount",
							"type": "uint256"
						},
						{
							"internalType": "address payable",
							"name": "_to",
							"type": "address"
						}
					],
					"name": "transferEth",
					"outputs": [],
					"stateMutability": "payable",
					"type": "function"
				},
				{
					"inputs": [
						{
							"internalType": "uint256",
							"name": "price",
							"type": "uint256"
						},
						{
							"internalType": "uint256",
							"name": "amount",
							"type": "uint256"
						},
						{
							"internalType": "address payable",
							"name": "_to",
							"type": "address"
						}
					],
					"name": "transferEth1",
					"outputs": [],
					"stateMutability": "payable",
					"type": "function"
				}
			],
			"devdoc": {
				"kind": "dev",
				"methods": {},
				"version": 1
			},
			"evm": {
				"assembly": "    /* \"contracts/event.sol\":60:1812  contract Transfer{... */\n  mstore(0x40, 0x80)\n    /* \"contracts/event.sol\":86:114  string name = \"Mahan Gurung\" */\n  mload(0x40)\n  dup1\n  0x40\n  add\n  0x40\n  mstore\n  dup1\n  0x0c\n  dup2\n  mstore\n  0x20\n  add\n  0x4d6168616e20477572756e670000000000000000000000000000000000000000\n  dup2\n  mstore\n  pop\n  0x00\n  swap1\n  dup2\n  tag_1\n  swap2\n  swap1\n  tag_2\n  jump\t// in\ntag_1:\n  pop\n    /* \"contracts/event.sol\":60:1812  contract Transfer{... */\n  callvalue\n  dup1\n  iszero\n  tag_3\n  jumpi\n  0x00\n  dup1\n  revert\ntag_3:\n  pop\n  jump(tag_4)\n    /* \"#utility.yul\":7:106   */\ntag_5:\n    /* \"#utility.yul\":59:65   */\n  0x00\n    /* \"#utility.yul\":93:98   */\n  dup2\n    /* \"#utility.yul\":87:99   */\n  mload\n    /* \"#utility.yul\":77:99   */\n  swap1\n  pop\n    /* \"#utility.yul\":7:106   */\n  swap2\n  swap1\n  pop\n  jump\t// out\n    /* \"#utility.yul\":112:292   */\ntag_6:\n    /* \"#utility.yul\":160:237   */\n  0x4e487b7100000000000000000000000000000000000000000000000000000000\n    /* \"#utility.yul\":157:158   */\n  0x00\n    /* \"#utility.yul\":150:238   */\n  mstore\n    /* \"#utility.yul\":257:261   */\n  0x41\n    /* \"#utility.yul\":254:255   */\n  0x04\n    /* \"#utility.yul\":247:262   */\n  mstore\n    /* \"#utility.yul\":281:285   */\n  0x24\n    /* \"#utility.yul\":278:279   */\n  0x00\n    /* \"#utility.yul\":271:286   */\n  revert\n    /* \"#utility.yul\":298:478   */\ntag_7:\n    /* \"#utility.yul\":346:423   */\n  0x4e487b7100000000000000000000000000000000000000000000000000000000\n    /* \"#utility.yul\":343:344   */\n  0x00\n    /* \"#utility.yul\":336:424   */\n  mstore\n    /* \"#utility.yul\":443:447   */\n  0x22\n    /* \"#utility.yul\":440:441   */\n  0x04\n    /* \"#utility.yul\":433:448   */\n  mstore\n    /* \"#utility.yul\":467:471   */\n  0x24\n    /* \"#utility.yul\":464:465   */\n  0x00\n    /* \"#utility.yul\":457:472   */\n  revert\n    /* \"#utility.yul\":484:804   */\ntag_8:\n    /* \"#utility.yul\":528:534   */\n  0x00\n    /* \"#utility.yul\":565:566   */\n  0x02\n    /* \"#utility.yul\":559:563   */\n  dup3\n    /* \"#utility.yul\":555:567   */\n  div\n    /* \"#utility.yul\":545:567   */\n  swap1\n  pop\n    /* \"#utility.yul\":612:613   */\n  0x01\n    /* \"#utility.yul\":606:610   */\n  dup3\n    /* \"#utility.yul\":602:614   */\n  and\n    /* \"#utility.yul\":633:651   */\n  dup1\n    /* \"#utility.yul\":623:704   */\n  tag_30\n  jumpi\n    /* \"#utility.yul\":689:693   */\n  0x7f\n    /* \"#utility.yul\":681:687   */\n  dup3\n    /* \"#utility.yul\":677:694   */\n  and\n    /* \"#utility.yul\":667:694   */\n  swap2\n  pop\n    /* \"#utility.yul\":623:704   */\ntag_30:\n    /* \"#utility.yul\":751:753   */\n  0x20\n    /* \"#utility.yul\":743:749   */\n  dup3\n    /* \"#utility.yul\":740:754   */\n  lt\n    /* \"#utility.yul\":720:738   */\n  dup2\n    /* \"#utility.yul\":717:755   */\n  sub\n    /* \"#utility.yul\":714:798   */\n  tag_31\n  jumpi\n    /* \"#utility.yul\":770:788   */\n  tag_32\n  tag_7\n  jump\t// in\ntag_32:\n    /* \"#utility.yul\":714:798   */\ntag_31:\n    /* \"#utility.yul\":535:804   */\n  pop\n    /* \"#utility.yul\":484:804   */\n  swap2\n  swap1\n  pop\n  jump\t// out\n    /* \"#utility.yul\":810:951   */\ntag_9:\n    /* \"#utility.yul\":859:863   */\n  0x00\n    /* \"#utility.yul\":882:885   */\n  dup2\n    /* \"#utility.yul\":874:885   */\n  swap1\n  pop\n    /* \"#utility.yul\":905:908   */\n  dup2\n    /* \"#utility.yul\":902:903   */\n  0x00\n    /* \"#utility.yul\":895:909   */\n  mstore\n    /* \"#utility.yul\":939:943   */\n  0x20\n    /* \"#utility.yul\":936:937   */\n  0x00\n    /* \"#utility.yul\":926:944   */\n  keccak256\n    /* \"#utility.yul\":918:944   */\n  swap1\n  pop\n    /* \"#utility.yul\":810:951   */\n  swap2\n  swap1\n  pop\n  jump\t// out\n    /* \"#utility.yul\":957:1050   */\ntag_10:\n    /* \"#utility.yul\":994:1000   */\n  0x00\n    /* \"#utility.yul\":1041:1043   */\n  0x20\n    /* \"#utility.yul\":1036:1038   */\n  0x1f\n    /* \"#utility.yul\":1029:1034   */\n  dup4\n    /* \"#utility.yul\":1025:1039   */\n  add\n    /* \"#utility.yul\":1021:1044   */\n  div\n    /* \"#utility.yul\":1011:1044   */\n  swap1\n  pop\n    /* \"#utility.yul\":957:1050   */\n  swap2\n  swap1\n  pop\n  jump\t// out\n    /* \"#utility.yul\":1056:1163   */\ntag_11:\n    /* \"#utility.yul\":1100:1108   */\n  0x00\n    /* \"#utility.yul\":1150:1155   */\n  dup3\n    /* \"#utility.yul\":1144:1148   */\n  dup3\n    /* \"#utility.yul\":1140:1156   */\n  shl\n    /* \"#utility.yul\":1119:1156   */\n  swap1\n  pop\n    /* \"#utility.yul\":1056:1163   */\n  swap3\n  swap2\n  pop\n  pop\n  jump\t// out\n    /* \"#utility.yul\":1169:1562   */\ntag_12:\n    /* \"#utility.yul\":1238:1244   */\n  0x00\n    /* \"#utility.yul\":1288:1289   */\n  0x08\n    /* \"#utility.yul\":1276:1286   */\n  dup4\n    /* \"#utility.yul\":1272:1290   */\n  mul\n    /* \"#utility.yul\":1311:1408   */\n  tag_37\n    /* \"#utility.yul\":1341:1407   */\n  0xffffffffffffffffffffffffffffffffffffffffffffffffffffffffffffffff\n    /* \"#utility.yul\":1330:1339   */\n  dup3\n    /* \"#utility.yul\":1311:1408   */\n  tag_11\n  jump\t// in\ntag_37:\n    /* \"#utility.yul\":1429:1468   */\n  tag_38\n    /* \"#utility.yul\":1459:1467   */\n  dup7\n    /* \"#utility.yul\":1448:1457   */\n  dup4\n    /* \"#utility.yul\":1429:1468   */\n  tag_11\n  jump\t// in\ntag_38:\n    /* \"#utility.yul\":1417:1468   */\n  swap6\n  pop\n    /* \"#utility.yul\":1501:1505   */\n  dup1\n    /* \"#utility.yul\":1497:1506   */\n  not\n    /* \"#utility.yul\":1490:1495   */\n  dup5\n    /* \"#utility.yul\":1486:1507   */\n  and\n    /* \"#utility.yul\":1477:1507   */\n  swap4\n  pop\n    /* \"#utility.yul\":1550:1554   */\n  dup1\n    /* \"#utility.yul\":1540:1548   */\n  dup7\n    /* \"#utility.yul\":1536:1555   */\n  and\n    /* \"#utility.yul\":1529:1534   */\n  dup5\n    /* \"#utility.yul\":1526:1556   */\n  or\n    /* \"#utility.yul\":1516:1556   */\n  swap3\n  pop\n    /* \"#utility.yul\":1245:1562   */\n  pop\n  pop\n    /* \"#utility.yul\":1169:1562   */\n  swap4\n  swap3\n  pop\n  pop\n  pop\n  jump\t// out\n    /* \"#utility.yul\":1568:1645   */\ntag_13:\n    /* \"#utility.yul\":1605:1612   */\n  0x00\n    /* \"#utility.yul\":1634:1639   */\n  dup2\n    /* \"#utility.yul\":1623:1639   */\n  swap1\n  pop\n    /* \"#utility.yul\":1568:1645   */\n  swap2\n  swap1\n  pop\n  jump\t// out\n    /* \"#utility.yul\":1651:1711   */\ntag_14:\n    /* \"#utility.yul\":1679:1682   */\n  0x00\n    /* \"#utility.yul\":1700:1705   */\n  dup2\n    /* \"#utility.yul\":1693:1705   */\n  swap1\n  pop\n    /* \"#utility.yul\":1651:1711   */\n  swap2\n  swap1\n  pop\n  jump\t// out\n    /* \"#utility.yul\":1717:1859   */\ntag_15:\n    /* \"#utility.yul\":1767:1776   */\n  0x00\n    /* \"#utility.yul\":1800:1853   */\n  tag_42\n    /* \"#utility.yul\":1818:1852   */\n  tag_43\n    /* \"#utility.yul\":1827:1851   */\n  tag_44\n    /* \"#utility.yul\":1845:1850   */\n  dup5\n    /* \"#utility.yul\":1827:1851   */\n  tag_13\n  jump\t// in\ntag_44:\n    /* \"#utility.yul\":1818:1852   */\n  tag_14\n  jump\t// in\ntag_43:\n    /* \"#utility.yul\":1800:1853   */\n  tag_13\n  jump\t// in\ntag_42:\n    /* \"#utility.yul\":1787:1853   */\n  swap1\n  pop\n    /* \"#utility.yul\":1717:1859   */\n  swap2\n  swap1\n  pop\n  jump\t// out\n    /* \"#utility.yul\":1865:1940   */\ntag_16:\n    /* \"#utility.yul\":1908:1911   */\n  0x00\n    /* \"#utility.yul\":1929:1934   */\n  dup2\n    /* \"#utility.yul\":1922:1934   */\n  swap1\n  pop\n    /* \"#utility.yul\":1865:1940   */\n  swap2\n  swap1\n  pop\n  jump\t// out\n    /* \"#utility.yul\":1946:2215   */\ntag_17:\n    /* \"#utility.yul\":2056:2095   */\n  tag_47\n    /* \"#utility.yul\":2087:2094   */\n  dup4\n    /* \"#utility.yul\":2056:2095   */\n  tag_15\n  jump\t// in\ntag_47:\n    /* \"#utility.yul\":2117:2208   */\n  tag_48\n    /* \"#utility.yul\":2166:2207   */\n  tag_49\n    /* \"#utility.yul\":2190:2206   */\n  dup3\n    /* \"#utility.yul\":2166:2207   */\n  tag_16\n  jump\t// in\ntag_49:\n    /* \"#utility.yul\":2158:2164   */\n  dup5\n    /* \"#utility.yul\":2151:2155   */\n  dup5\n    /* \"#utility.yul\":2145:2156   */\n  sload\n    /* \"#utility.yul\":2117:2208   */\n  tag_12\n  jump\t// in\ntag_48:\n    /* \"#utility.yul\":2111:2115   */\n  dup3\n    /* \"#utility.yul\":2104:2209   */\n  sstore\n    /* \"#utility.yul\":2022:2215   */\n  pop\n    /* \"#utility.yul\":1946:2215   */\n  pop\n  pop\n  pop\n  jump\t// out\n    /* \"#utility.yul\":2221:2294   */\ntag_18:\n    /* \"#utility.yul\":2266:2269   */\n  0x00\n    /* \"#utility.yul\":2221:2294   */\n  swap1\n  jump\t// out\n    /* \"#utility.yul\":2300:2489   */\ntag_19:\n    /* \"#utility.yul\":2377:2409   */\n  tag_52\n  tag_18\n  jump\t// in\ntag_52:\n    /* \"#utility.yul\":2418:2483   */\n  tag_53\n    /* \"#utility.yul\":2476:2482   */\n  dup2\n    /* \"#utility.yul\":2468:2474   */\n  dup5\n    /* \"#utility.yul\":2462:2466   */\n  dup5\n    /* \"#utility.yul\":2418:2483   */\n  tag_17\n  jump\t// in\ntag_53:\n    /* \"#utility.yul\":2353:2489   */\n  pop\n    /* \"#utility.yul\":2300:2489   */\n  pop\n  pop\n  jump\t// out\n    /* \"#utility.yul\":2495:2681   */\ntag_20:\n    /* \"#utility.yul\":2555:2675   */\ntag_55:\n    /* \"#utility.yul\":2572:2575   */\n  dup2\n    /* \"#utility.yul\":2565:2570   */\n  dup2\n    /* \"#utility.yul\":2562:2576   */\n  lt\n    /* \"#utility.yul\":2555:2675   */\n  iszero\n  tag_57\n  jumpi\n    /* \"#utility.yul\":2626:2665   */\n  tag_58\n    /* \"#utility.yul\":2663:2664   */\n  0x00\n    /* \"#utility.yul\":2656:2661   */\n  dup3\n    /* \"#utility.yul\":2626:2665   */\n  tag_19\n  jump\t// in\ntag_58:\n    /* \"#utility.yul\":2599:2600   */\n  0x01\n    /* \"#utility.yul\":2592:2597   */\n  dup2\n    /* \"#utility.yul\":2588:2601   */\n  add\n    /* \"#utility.yul\":2579:2601   */\n  swap1\n  pop\n    /* \"#utility.yul\":2555:2675   */\n  jump(tag_55)\ntag_57:\n    /* \"#utility.yul\":2495:2681   */\n  pop\n  pop\n  jump\t// out\n    /* \"#utility.yul\":2687:3230   */\ntag_21:\n    /* \"#utility.yul\":2788:2790   */\n  0x1f\n    /* \"#utility.yul\":2783:2786   */\n  dup3\n    /* \"#utility.yul\":2780:2791   */\n  gt\n    /* \"#utility.yul\":2777:3223   */\n  iszero\n  tag_60\n  jumpi\n    /* \"#utility.yul\":2822:2860   */\n  tag_61\n    /* \"#utility.yul\":2854:2859   */\n  dup2\n    /* \"#utility.yul\":2822:2860   */\n  tag_9\n  jump\t// in\ntag_61:\n    /* \"#utility.yul\":2906:2935   */\n  tag_62\n    /* \"#utility.yul\":2924:2934   */\n  dup5\n    /* \"#utility.yul\":2906:2935   */\n  tag_10\n  jump\t// in\ntag_62:\n    /* \"#utility.yul\":2896:2904   */\n  dup2\n    /* \"#utility.yul\":2892:2936   */\n  add\n    /* \"#utility.yul\":3089:3091   */\n  0x20\n    /* \"#utility.yul\":3077:3087   */\n  dup6\n    /* \"#utility.yul\":3074:3092   */\n  lt\n    /* \"#utility.yul\":3071:3120   */\n  iszero\n  tag_63\n  jumpi\n    /* \"#utility.yul\":3110:3118   */\n  dup2\n    /* \"#utility.yul\":3095:3118   */\n  swap1\n  pop\n    /* \"#utility.yul\":3071:3120   */\ntag_63:\n    /* \"#utility.yul\":3133:3213   */\n  tag_64\n    /* \"#utility.yul\":3189:3211   */\n  tag_65\n    /* \"#utility.yul\":3207:3210   */\n  dup6\n    /* \"#utility.yul\":3189:3211   */\n  tag_10\n  jump\t// in\ntag_65:\n    /* \"#utility.yul\":3179:3187   */\n  dup4\n    /* \"#utility.yul\":3175:3212   */\n  add\n    /* \"#utility.yul\":3162:3173   */\n  dup3\n    /* \"#utility.yul\":3133:3213   */\n  tag_20\n  jump\t// in\ntag_64:\n    /* \"#utility.yul\":2792:3223   */\n  pop\n  pop\n    /* \"#utility.yul\":2777:3223   */\ntag_60:\n    /* \"#utility.yul\":2687:3230   */\n  pop\n  pop\n  pop\n  jump\t// out\n    /* \"#utility.yul\":3236:3353   */\ntag_22:\n    /* \"#utility.yul\":3290:3298   */\n  0x00\n    /* \"#utility.yul\":3340:3345   */\n  dup3\n    /* \"#utility.yul\":3334:3338   */\n  dup3\n    /* \"#utility.yul\":3330:3346   */\n  shr\n    /* \"#utility.yul\":3309:3346   */\n  swap1\n  pop\n    /* \"#utility.yul\":3236:3353   */\n  swap3\n  swap2\n  pop\n  pop\n  jump\t// out\n    /* \"#utility.yul\":3359:3528   */\ntag_23:\n    /* \"#utility.yul\":3403:3409   */\n  0x00\n    /* \"#utility.yul\":3436:3487   */\n  tag_68\n    /* \"#utility.yul\":3484:3485   */\n  0x00\n    /* \"#utility.yul\":3480:3486   */\n  not\n    /* \"#utility.yul\":3472:3477   */\n  dup5\n    /* \"#utility.yul\":3469:3470   */\n  0x08\n    /* \"#utility.yul\":3465:3478   */\n  mul\n    /* \"#utility.yul\":3436:3487   */\n  tag_22\n  jump\t// in\ntag_68:\n    /* \"#utility.yul\":3432:3488   */\n  not\n    /* \"#utility.yul\":3517:3521   */\n  dup1\n    /* \"#utility.yul\":3511:3515   */\n  dup4\n    /* \"#utility.yul\":3507:3522   */\n  and\n    /* \"#utility.yul\":3497:3522   */\n  swap2\n  pop\n    /* \"#utility.yul\":3410:3528   */\n  pop\n    /* \"#utility.yul\":3359:3528   */\n  swap3\n  swap2\n  pop\n  pop\n  jump\t// out\n    /* \"#utility.yul\":3533:3828   */\ntag_24:\n    /* \"#utility.yul\":3609:3613   */\n  0x00\n    /* \"#utility.yul\":3755:3784   */\n  tag_70\n    /* \"#utility.yul\":3780:3783   */\n  dup4\n    /* \"#utility.yul\":3774:3778   */\n  dup4\n    /* \"#utility.yul\":3755:3784   */\n  tag_23\n  jump\t// in\ntag_70:\n    /* \"#utility.yul\":3747:3784   */\n  swap2\n  pop\n    /* \"#utility.yul\":3817:3820   */\n  dup3\n    /* \"#utility.yul\":3814:3815   */\n  0x02\n    /* \"#utility.yul\":3810:3821   */\n  mul\n    /* \"#utility.yul\":3804:3808   */\n  dup3\n    /* \"#utility.yul\":3801:3822   */\n  or\n    /* \"#utility.yul\":3793:3822   */\n  swap1\n  pop\n    /* \"#utility.yul\":3533:3828   */\n  swap3\n  swap2\n  pop\n  pop\n  jump\t// out\n    /* \"#utility.yul\":3833:5228   */\ntag_2:\n    /* \"#utility.yul\":3950:3987   */\n  tag_72\n    /* \"#utility.yul\":3983:3986   */\n  dup3\n    /* \"#utility.yul\":3950:3987   */\n  tag_5\n  jump\t// in\ntag_72:\n    /* \"#utility.yul\":4052:4070   */\n  0xffffffffffffffff\n    /* \"#utility.yul\":4044:4050   */\n  dup2\n    /* \"#utility.yul\":4041:4071   */\n  gt\n    /* \"#utility.yul\":4038:4094   */\n  iszero\n  tag_73\n  jumpi\n    /* \"#utility.yul\":4074:4092   */\n  tag_74\n  tag_6\n  jump\t// in\ntag_74:\n    /* \"#utility.yul\":4038:4094   */\ntag_73:\n    /* \"#utility.yul\":4118:4156   */\n  tag_75\n    /* \"#utility.yul\":4150:4154   */\n  dup3\n    /* \"#utility.yul\":4144:4155   */\n  sload\n    /* \"#utility.yul\":4118:4156   */\n  tag_8\n  jump\t// in\ntag_75:\n    /* \"#utility.yul\":4203:4270   */\n  tag_76\n    /* \"#utility.yul\":4263:4269   */\n  dup3\n    /* \"#utility.yul\":4255:4261   */\n  dup3\n    /* \"#utility.yul\":4249:4253   */\n  dup6\n    /* \"#utility.yul\":4203:4270   */\n  tag_21\n  jump\t// in\ntag_76:\n    /* \"#utility.yul\":4297:4298   */\n  0x00\n    /* \"#utility.yul\":4321:4325   */\n  0x20\n    /* \"#utility.yul\":4308:4325   */\n  swap1\n  pop\n    /* \"#utility.yul\":4353:4355   */\n  0x1f\n    /* \"#utility.yul\":4345:4351   */\n  dup4\n    /* \"#utility.yul\":4342:4356   */\n  gt\n    /* \"#utility.yul\":4370:4371   */\n  0x01\n    /* \"#utility.yul\":4365:4983   */\n  dup2\n  eq\n  tag_78\n  jumpi\n    /* \"#utility.yul\":5027:5028   */\n  0x00\n    /* \"#utility.yul\":5044:5050   */\n  dup5\n    /* \"#utility.yul\":5041:5118   */\n  iszero\n  tag_79\n  jumpi\n    /* \"#utility.yul\":5093:5102   */\n  dup3\n    /* \"#utility.yul\":5088:5091   */\n  dup8\n    /* \"#utility.yul\":5084:5103   */\n  add\n    /* \"#utility.yul\":5078:5104   */\n  mload\n    /* \"#utility.yul\":5069:5104   */\n  swap1\n  pop\n    /* \"#utility.yul\":5041:5118   */\ntag_79:\n    /* \"#utility.yul\":5144:5211   */\n  tag_80\n    /* \"#utility.yul\":5204:5210   */\n  dup6\n    /* \"#utility.yul\":5197:5202   */\n  dup3\n    /* \"#utility.yul\":5144:5211   */\n  tag_24\n  jump\t// in\ntag_80:\n    /* \"#utility.yul\":5138:5142   */\n  dup7\n    /* \"#utility.yul\":5131:5212   */\n  sstore\n    /* \"#utility.yul\":5000:5222   */\n  pop\n    /* \"#utility.yul\":4335:5222   */\n  jump(tag_77)\n    /* \"#utility.yul\":4365:4983   */\ntag_78:\n    /* \"#utility.yul\":4417:4421   */\n  0x1f\n    /* \"#utility.yul\":4413:4422   */\n  not\n    /* \"#utility.yul\":4405:4411   */\n  dup5\n    /* \"#utility.yul\":4401:4423   */\n  and\n    /* \"#utility.yul\":4451:4488   */\n  tag_81\n    /* \"#utility.yul\":4483:4487   */\n  dup7\n    /* \"#utility.yul\":4451:4488   */\n  tag_9\n  jump\t// in\ntag_81:\n    /* \"#utility.yul\":4510:4511   */\n  0x00\n    /* \"#utility.yul\":4524:4732   */\ntag_82:\n    /* \"#utility.yul\":4538:4545   */\n  dup3\n    /* \"#utility.yul\":4535:4536   */\n  dup2\n    /* \"#utility.yul\":4532:4546   */\n  lt\n    /* \"#utility.yul\":4524:4732   */\n  iszero\n  tag_84\n  jumpi\n    /* \"#utility.yul\":4617:4626   */\n  dup5\n    /* \"#utility.yul\":4612:4615   */\n  dup10\n    /* \"#utility.yul\":4608:4627   */\n  add\n    /* \"#utility.yul\":4602:4628   */\n  mload\n    /* \"#utility.yul\":4594:4600   */\n  dup3\n    /* \"#utility.yul\":4587:4629   */\n  sstore\n    /* \"#utility.yul\":4668:4669   */\n  0x01\n    /* \"#utility.yul\":4660:4666   */\n  dup3\n    /* \"#utility.yul\":4656:4670   */\n  add\n    /* \"#utility.yul\":4646:4670   */\n  swap2\n  pop\n    /* \"#utility.yul\":4715:4717   */\n  0x20\n    /* \"#utility.yul\":4704:4713   */\n  dup6\n    /* \"#utility.yul\":4700:4718   */\n  add\n    /* \"#utility.yul\":4687:4718   */\n  swap5\n  pop\n    /* \"#utility.yul\":4561:4565   */\n  0x20\n    /* \"#utility.yul\":4558:4559   */\n  dup2\n    /* \"#utility.yul\":4554:4566   */\n  add\n    /* \"#utility.yul\":4549:4566   */\n  swap1\n  pop\n    /* \"#utility.yul\":4524:4732   */\n  jump(tag_82)\ntag_84:\n    /* \"#utility.yul\":4760:4766   */\n  dup7\n    /* \"#utility.yul\":4751:4758   */\n  dup4\n    /* \"#utility.yul\":4748:4767   */\n  lt\n    /* \"#utility.yul\":4745:4924   */\n  iszero\n  tag_85\n  jumpi\n    /* \"#utility.yul\":4818:4827   */\n  dup5\n    /* \"#utility.yul\":4813:4816   */\n  dup10\n    /* \"#utility.yul\":4809:4828   */\n  add\n    /* \"#utility.yul\":4803:4829   */\n  mload\n    /* \"#utility.yul\":4861:4909   */\n  tag_86\n    /* \"#utility.yul\":4903:4907   */\n  0x1f\n    /* \"#utility.yul\":4895:4901   */\n  dup10\n    /* \"#utility.yul\":4891:4908   */\n  and\n    /* \"#utility.yul\":4880:4889   */\n  dup3\n    /* \"#utility.yul\":4861:4909   */\n  tag_23\n  jump\t// in\ntag_86:\n    /* \"#utility.yul\":4853:4859   */\n  dup4\n    /* \"#utility.yul\":4846:4910   */\n  sstore\n    /* \"#utility.yul\":4768:4924   */\n  pop\n    /* \"#utility.yul\":4745:4924   */\ntag_85:\n    /* \"#utility.yul\":4970:4971   */\n  0x01\n    /* \"#utility.yul\":4966:4967   */\n  0x02\n    /* \"#utility.yul\":4958:4964   */\n  dup9\n    /* \"#utility.yul\":4954:4968   */\n  mul\n    /* \"#utility.yul\":4950:4972   */\n  add\n    /* \"#utility.yul\":4944:4948   */\n  dup9\n    /* \"#utility.yul\":4937:4973   */\n  sstore\n    /* \"#utility.yul\":4372:4983   */\n  pop\n  pop\n  pop\n    /* \"#utility.yul\":4335:5222   */\ntag_77:\n  pop\n    /* \"#utility.yul\":3925:5228   */\n  pop\n  pop\n  pop\n    /* \"#utility.yul\":3833:5228   */\n  pop\n  pop\n  jump\t// out\n    /* \"contracts/event.sol\":60:1812  contract Transfer{... */\ntag_4:\n  dataSize(sub_0)\n  dup1\n  dataOffset(sub_0)\n  0x00\n  codecopy\n  0x00\n  return\nstop\n\nsub_0: assembly {\n        /* \"contracts/event.sol\":60:1812  contract Transfer{... */\n      mstore(0x40, 0x80)\n      jumpi(tag_1, lt(calldatasize, 0x04))\n      shr(0xe0, calldataload(0x00))\n      dup1\n      0x17d7de7c\n      eq\n      tag_2\n      jumpi\n      dup1\n      0x22b73134\n      eq\n      tag_3\n      jumpi\n      dup1\n      0x32a2c5d0\n      eq\n      tag_4\n      jumpi\n      dup1\n      0x9384aea4\n      eq\n      tag_5\n      jumpi\n      dup1\n      0xc47f0027\n      eq\n      tag_6\n      jumpi\n    tag_1:\n      0x00\n      dup1\n      revert\n        /* \"contracts/event.sol\":806:891  function getName() public view  returns (string memory){... */\n    tag_2:\n      callvalue\n      dup1\n      iszero\n      tag_7\n      jumpi\n      0x00\n      dup1\n      revert\n    tag_7:\n      pop\n      tag_8\n      tag_9\n      jump\t// in\n    tag_8:\n      mload(0x40)\n      tag_10\n      swap2\n      swap1\n      tag_11\n      jump\t// in\n    tag_10:\n      mload(0x40)\n      dup1\n      swap2\n      sub\n      swap1\n      return\n        /* \"contracts/event.sol\":336:714  function transferEth1( uint price, uint amount,address payable  _to) external  payable {... */\n    tag_3:\n      tag_12\n      0x04\n      dup1\n      calldatasize\n      sub\n      dup2\n      add\n      swap1\n      tag_13\n      swap2\n      swap1\n      tag_14\n      jump\t// in\n    tag_13:\n      tag_15\n      jump\t// in\n    tag_12:\n      stop\n        /* \"contracts/event.sol\":1706:1803  function getContractAddress() public view returns(address){... */\n    tag_4:\n      callvalue\n      dup1\n      iszero\n      tag_16\n      jumpi\n      0x00\n      dup1\n      revert\n    tag_16:\n      pop\n      tag_17\n      tag_18\n      jump\t// in\n    tag_17:\n      mload(0x40)\n      tag_19\n      swap2\n      swap1\n      tag_20\n      jump\t// in\n    tag_19:\n      mload(0x40)\n      dup1\n      swap2\n      sub\n      swap1\n      return\n        /* \"contracts/event.sol\":1255:1698  function transferEth( uint price, uint amount,address payable  _to) external  payable {... */\n    tag_5:\n      tag_21\n      0x04\n      dup1\n      calldatasize\n      sub\n      dup2\n      add\n      swap1\n      tag_22\n      swap2\n      swap1\n      tag_14\n      jump\t// in\n    tag_22:\n      tag_23\n      jump\t// in\n    tag_21:\n      stop\n        /* \"contracts/event.sol\":722:798  function setName(string memory _name) public {... */\n    tag_6:\n      callvalue\n      dup1\n      iszero\n      tag_24\n      jumpi\n      0x00\n      dup1\n      revert\n    tag_24:\n      pop\n      tag_25\n      0x04\n      dup1\n      calldatasize\n      sub\n      dup2\n      add\n      swap1\n      tag_26\n      swap2\n      swap1\n      tag_27\n      jump\t// in\n    tag_26:\n      tag_28\n      jump\t// in\n    tag_25:\n      stop\n        /* \"contracts/event.sol\":806:891  function getName() public view  returns (string memory){... */\n    tag_9:\n        /* \"contracts/event.sol\":847:860  string memory */\n      0x60\n        /* \"contracts/event.sol\":879:883  name */\n      0x00\n        /* \"contracts/event.sol\":872:883  return name */\n      dup1\n      sload\n      tag_30\n      swap1\n      tag_31\n      jump\t// in\n    tag_30:\n      dup1\n      0x1f\n      add\n      0x20\n      dup1\n      swap2\n      div\n      mul\n      0x20\n      add\n      mload(0x40)\n      swap1\n      dup2\n      add\n      0x40\n      mstore\n      dup1\n      swap3\n      swap2\n      swap1\n      dup2\n      dup2\n      mstore\n      0x20\n      add\n      dup3\n      dup1\n      sload\n      tag_32\n      swap1\n      tag_31\n      jump\t// in\n    tag_32:\n      dup1\n      iszero\n      tag_33\n      jumpi\n      dup1\n      0x1f\n      lt\n      tag_34\n      jumpi\n      0x0100\n      dup1\n      dup4\n      sload\n      div\n      mul\n      dup4\n      mstore\n      swap2\n      0x20\n      add\n      swap2\n      jump(tag_33)\n    tag_34:\n      dup3\n      add\n      swap2\n      swap1\n      0x00\n      mstore\n      keccak256(0x00, 0x20)\n      swap1\n    tag_35:\n      dup2\n      sload\n      dup2\n      mstore\n      swap1\n      0x01\n      add\n      swap1\n      0x20\n      add\n      dup1\n      dup4\n      gt\n      tag_35\n      jumpi\n      dup3\n      swap1\n      sub\n      0x1f\n      and\n      dup3\n      add\n      swap2\n    tag_33:\n      pop\n      pop\n      pop\n      pop\n      pop\n      swap1\n      pop\n        /* \"contracts/event.sol\":806:891  function getName() public view  returns (string memory){... */\n      swap1\n      jump\t// out\n        /* \"contracts/event.sol\":336:714  function transferEth1( uint price, uint amount,address payable  _to) external  payable {... */\n    tag_15:\n        /* \"contracts/event.sol\":434:449  uint totalPrice */\n      0x00\n        /* \"contracts/event.sol\":460:466  amount */\n      dup3\n        /* \"contracts/event.sol\":452:457  price */\n      dup5\n        /* \"contracts/event.sol\":452:466  price * amount */\n      tag_37\n      swap2\n      swap1\n      tag_38\n      jump\t// in\n    tag_37:\n        /* \"contracts/event.sol\":434:466  uint totalPrice = price * amount */\n      swap1\n      pop\n        /* \"contracts/event.sol\":497:507  totalPrice */\n      dup1\n        /* \"contracts/event.sol\":485:494  msg.value */\n      callvalue\n        /* \"contracts/event.sol\":485:507  msg.value >=totalPrice */\n      lt\n      iszero\n        /* \"contracts/event.sol\":477:529  require(msg.value >=totalPrice, \"Not enought price\") */\n      tag_39\n      jumpi\n      mload(0x40)\n      0x08c379a000000000000000000000000000000000000000000000000000000000\n      dup2\n      mstore\n      0x04\n      add\n      tag_40\n      swap1\n      tag_41\n      jump\t// in\n    tag_40:\n      mload(0x40)\n      dup1\n      swap2\n      sub\n      swap1\n      revert\n    tag_39:\n        /* \"contracts/event.sol\":560:561  0 */\n      0x00\n        /* \"contracts/event.sol\":548:557  msg.value */\n      callvalue\n        /* \"contracts/event.sol\":548:561  msg.value > 0 */\n      gt\n        /* \"contracts/event.sol\":540:579  require(msg.value > 0, \"Send some ETH\") */\n      tag_42\n      jumpi\n      mload(0x40)\n      0x08c379a000000000000000000000000000000000000000000000000000000000\n      dup2\n      mstore\n      0x04\n      add\n      tag_43\n      swap1\n      tag_44\n      jump\t// in\n    tag_43:\n      mload(0x40)\n      dup1\n      swap2\n      sub\n      swap1\n      revert\n    tag_42:\n        /* \"contracts/event.sol\":601:604  _to */\n      dup2\n        /* \"contracts/event.sol\":601:613  _to.transfer */\n      0xffffffffffffffffffffffffffffffffffffffff\n      and\n        /* \"contracts/event.sol\":601:624  _to.transfer(msg.value) */\n      0x08fc\n        /* \"contracts/event.sol\":614:623  msg.value */\n      callvalue\n        /* \"contracts/event.sol\":601:624  _to.transfer(msg.value) */\n      swap1\n      dup2\n      iszero\n      mul\n      swap1\n      mload(0x40)\n      0x00\n      mload(0x40)\n      dup1\n      dup4\n      sub\n      dup2\n      dup6\n      dup9\n      dup9\n      call\n      swap4\n      pop\n      pop\n      pop\n      pop\n      iszero\n      dup1\n      iszero\n      tag_46\n      jumpi\n      returndatasize\n      0x00\n      dup1\n      returndatacopy\n      revert(0x00, returndatasize)\n    tag_46:\n      pop\n        /* \"contracts/event.sol\":674:677  _to */\n      dup2\n        /* \"contracts/event.sol\":650:706  ethTransfer(msg.sender, _to, msg.value, block.timestamp) */\n      0xffffffffffffffffffffffffffffffffffffffff\n      and\n        /* \"contracts/event.sol\":662:672  msg.sender */\n      caller\n        /* \"contracts/event.sol\":650:706  ethTransfer(msg.sender, _to, msg.value, block.timestamp) */\n      0xffffffffffffffffffffffffffffffffffffffff\n      and\n      0xb365b2508ba235fc078f2abfa8d8330f334677aa244800ce4f232ced19844dbe\n        /* \"contracts/event.sol\":679:688  msg.value */\n      callvalue\n        /* \"contracts/event.sol\":690:705  block.timestamp */\n      timestamp\n        /* \"contracts/event.sol\":650:706  ethTransfer(msg.sender, _to, msg.value, block.timestamp) */\n      mload(0x40)\n      tag_47\n      swap3\n      swap2\n      swap1\n      tag_48\n      jump\t// in\n    tag_47:\n      mload(0x40)\n      dup1\n      swap2\n      sub\n      swap1\n      log3\n        /* \"contracts/event.sol\":423:714  {... */\n      pop\n        /* \"contracts/event.sol\":336:714  function transferEth1( uint price, uint amount,address payable  _to) external  payable {... */\n      pop\n      pop\n      pop\n      jump\t// out\n        /* \"contracts/event.sol\":1706:1803  function getContractAddress() public view returns(address){... */\n    tag_18:\n        /* \"contracts/event.sol\":1756:1763  address */\n      0x00\n        /* \"contracts/event.sol\":1790:1794  this */\n      address\n        /* \"contracts/event.sol\":1775:1795  return address(this) */\n      swap1\n      pop\n        /* \"contracts/event.sol\":1706:1803  function getContractAddress() public view returns(address){... */\n      swap1\n      jump\t// out\n        /* \"contracts/event.sol\":1255:1698  function transferEth( uint price, uint amount,address payable  _to) external  payable {... */\n    tag_23:\n        /* \"contracts/event.sol\":1362:1377  uint totalPrice */\n      0x00\n        /* \"contracts/event.sol\":1388:1394  amount */\n      dup3\n        /* \"contracts/event.sol\":1380:1385  price */\n      dup5\n        /* \"contracts/event.sol\":1380:1394  price * amount */\n      tag_51\n      swap2\n      swap1\n      tag_38\n      jump\t// in\n    tag_51:\n        /* \"contracts/event.sol\":1362:1394  uint totalPrice = price * amount */\n      swap1\n      pop\n        /* \"contracts/event.sol\":1405:1422  uint amoutInEther */\n      0x00\n        /* \"contracts/event.sol\":1438:1442  1e18 */\n      0x0de0b6b3a7640000\n        /* \"contracts/event.sol\":1425:1435  totalPrice */\n      dup3\n        /* \"contracts/event.sol\":1425:1442  totalPrice * 1e18 */\n      tag_52\n      swap2\n      swap1\n      tag_38\n      jump\t// in\n    tag_52:\n        /* \"contracts/event.sol\":1405:1442  uint amoutInEther = totalPrice * 1e18 */\n      swap1\n      pop\n        /* \"contracts/event.sol\":1473:1485  amoutInEther */\n      dup1\n        /* \"contracts/event.sol\":1461:1470  msg.value */\n      callvalue\n        /* \"contracts/event.sol\":1461:1485  msg.value >=amoutInEther */\n      lt\n      iszero\n        /* \"contracts/event.sol\":1453:1507  require(msg.value >=amoutInEther, \"Not enought price\") */\n      tag_53\n      jumpi\n      mload(0x40)\n      0x08c379a000000000000000000000000000000000000000000000000000000000\n      dup2\n      mstore\n      0x04\n      add\n      tag_54\n      swap1\n      tag_41\n      jump\t// in\n    tag_54:\n      mload(0x40)\n      dup1\n      swap2\n      sub\n      swap1\n      revert\n    tag_53:\n        /* \"contracts/event.sol\":1538:1539  0 */\n      0x00\n        /* \"contracts/event.sol\":1526:1535  msg.value */\n      callvalue\n        /* \"contracts/event.sol\":1526:1539  msg.value > 0 */\n      gt\n        /* \"contracts/event.sol\":1518:1557  require(msg.value > 0, \"Send some ETH\") */\n      tag_55\n      jumpi\n      mload(0x40)\n      0x08c379a000000000000000000000000000000000000000000000000000000000\n      dup2\n      mstore\n      0x04\n      add\n      tag_56\n      swap1\n      tag_44\n      jump\t// in\n    tag_56:\n      mload(0x40)\n      dup1\n      swap2\n      sub\n      swap1\n      revert\n    tag_55:\n        /* \"contracts/event.sol\":1579:1582  _to */\n      dup3\n        /* \"contracts/event.sol\":1579:1591  _to.transfer */\n      0xffffffffffffffffffffffffffffffffffffffff\n      and\n        /* \"contracts/event.sol\":1579:1605  _to.transfer(amoutInEther) */\n      0x08fc\n        /* \"contracts/event.sol\":1592:1604  amoutInEther */\n      dup3\n        /* \"contracts/event.sol\":1579:1605  _to.transfer(amoutInEther) */\n      swap1\n      dup2\n      iszero\n      mul\n      swap1\n      mload(0x40)\n      0x00\n      mload(0x40)\n      dup1\n      dup4\n      sub\n      dup2\n      dup6\n      dup9\n      dup9\n      call\n      swap4\n      pop\n      pop\n      pop\n      pop\n      iszero\n      dup1\n      iszero\n      tag_58\n      jumpi\n      returndatasize\n      0x00\n      dup1\n      returndatacopy\n      revert(0x00, returndatasize)\n    tag_58:\n      pop\n        /* \"contracts/event.sol\":1655:1658  _to */\n      dup3\n        /* \"contracts/event.sol\":1631:1690  ethTransfer(msg.sender, _to, amoutInEther, block.timestamp) */\n      0xffffffffffffffffffffffffffffffffffffffff\n      and\n        /* \"contracts/event.sol\":1643:1653  msg.sender */\n      caller\n        /* \"contracts/event.sol\":1631:1690  ethTransfer(msg.sender, _to, amoutInEther, block.timestamp) */\n      0xffffffffffffffffffffffffffffffffffffffff\n      and\n      0xb365b2508ba235fc078f2abfa8d8330f334677aa244800ce4f232ced19844dbe\n        /* \"contracts/event.sol\":1660:1672  amoutInEther */\n      dup4\n        /* \"contracts/event.sol\":1674:1689  block.timestamp */\n      timestamp\n        /* \"contracts/event.sol\":1631:1690  ethTransfer(msg.sender, _to, amoutInEther, block.timestamp) */\n      mload(0x40)\n      tag_59\n      swap3\n      swap2\n      swap1\n      tag_48\n      jump\t// in\n    tag_59:\n      mload(0x40)\n      dup1\n      swap2\n      sub\n      swap1\n      log3\n        /* \"contracts/event.sol\":1341:1698  {... */\n      pop\n      pop\n        /* \"contracts/event.sol\":1255:1698  function transferEth( uint price, uint amount,address payable  _to) external  payable {... */\n      pop\n      pop\n      pop\n      jump\t// out\n        /* \"contracts/event.sol\":722:798  function setName(string memory _name) public {... */\n    tag_28:\n        /* \"contracts/event.sol\":785:790  _name */\n      dup1\n        /* \"contracts/event.sol\":778:782  name */\n      0x00\n        /* \"contracts/event.sol\":778:790  name = _name */\n      swap1\n      dup2\n      tag_61\n      swap2\n      swap1\n      tag_62\n      jump\t// in\n    tag_61:\n      pop\n        /* \"contracts/event.sol\":722:798  function setName(string memory _name) public {... */\n      pop\n      jump\t// out\n        /* \"#utility.yul\":7:106   */\n    tag_63:\n        /* \"#utility.yul\":59:65   */\n      0x00\n        /* \"#utility.yul\":93:98   */\n      dup2\n        /* \"#utility.yul\":87:99   */\n      mload\n        /* \"#utility.yul\":77:99   */\n      swap1\n      pop\n        /* \"#utility.yul\":7:106   */\n      swap2\n      swap1\n      pop\n      jump\t// out\n        /* \"#utility.yul\":112:281   */\n    tag_64:\n        /* \"#utility.yul\":196:207   */\n      0x00\n        /* \"#utility.yul\":230:236   */\n      dup3\n        /* \"#utility.yul\":225:228   */\n      dup3\n        /* \"#utility.yul\":218:237   */\n      mstore\n        /* \"#utility.yul\":270:274   */\n      0x20\n        /* \"#utility.yul\":265:268   */\n      dup3\n        /* \"#utility.yul\":261:275   */\n      add\n        /* \"#utility.yul\":246:275   */\n      swap1\n      pop\n        /* \"#utility.yul\":112:281   */\n      swap3\n      swap2\n      pop\n      pop\n      jump\t// out\n        /* \"#utility.yul\":287:426   */\n    tag_65:\n        /* \"#utility.yul\":376:382   */\n      dup3\n        /* \"#utility.yul\":371:374   */\n      dup2\n        /* \"#utility.yul\":366:369   */\n      dup4\n        /* \"#utility.yul\":360:383   */\n      mcopy\n        /* \"#utility.yul\":417:418   */\n      0x00\n        /* \"#utility.yul\":408:414   */\n      dup4\n        /* \"#utility.yul\":403:406   */\n      dup4\n        /* \"#utility.yul\":399:415   */\n      add\n        /* \"#utility.yul\":392:419   */\n      mstore\n        /* \"#utility.yul\":287:426   */\n      pop\n      pop\n      pop\n      jump\t// out\n        /* \"#utility.yul\":432:534   */\n    tag_66:\n        /* \"#utility.yul\":473:479   */\n      0x00\n        /* \"#utility.yul\":524:526   */\n      0x1f\n        /* \"#utility.yul\":520:527   */\n      not\n        /* \"#utility.yul\":515:517   */\n      0x1f\n        /* \"#utility.yul\":508:513   */\n      dup4\n        /* \"#utility.yul\":504:518   */\n      add\n        /* \"#utility.yul\":500:528   */\n      and\n        /* \"#utility.yul\":490:528   */\n      swap1\n      pop\n        /* \"#utility.yul\":432:534   */\n      swap2\n      swap1\n      pop\n      jump\t// out\n        /* \"#utility.yul\":540:917   */\n    tag_67:\n        /* \"#utility.yul\":628:631   */\n      0x00\n        /* \"#utility.yul\":656:695   */\n      tag_117\n        /* \"#utility.yul\":689:694   */\n      dup3\n        /* \"#utility.yul\":656:695   */\n      tag_63\n      jump\t// in\n    tag_117:\n        /* \"#utility.yul\":711:782   */\n      tag_118\n        /* \"#utility.yul\":775:781   */\n      dup2\n        /* \"#utility.yul\":770:773   */\n      dup6\n        /* \"#utility.yul\":711:782   */\n      tag_64\n      jump\t// in\n    tag_118:\n        /* \"#utility.yul\":704:782   */\n      swap4\n      pop\n        /* \"#utility.yul\":791:856   */\n      tag_119\n        /* \"#utility.yul\":849:855   */\n      dup2\n        /* \"#utility.yul\":844:847   */\n      dup6\n        /* \"#utility.yul\":837:841   */\n      0x20\n        /* \"#utility.yul\":830:835   */\n      dup7\n        /* \"#utility.yul\":826:842   */\n      add\n        /* \"#utility.yul\":791:856   */\n      tag_65\n      jump\t// in\n    tag_119:\n        /* \"#utility.yul\":881:910   */\n      tag_120\n        /* \"#utility.yul\":903:909   */\n      dup2\n        /* \"#utility.yul\":881:910   */\n      tag_66\n      jump\t// in\n    tag_120:\n        /* \"#utility.yul\":876:879   */\n      dup5\n        /* \"#utility.yul\":872:911   */\n      add\n        /* \"#utility.yul\":865:911   */\n      swap2\n      pop\n        /* \"#utility.yul\":632:917   */\n      pop\n        /* \"#utility.yul\":540:917   */\n      swap3\n      swap2\n      pop\n      pop\n      jump\t// out\n        /* \"#utility.yul\":923:1236   */\n    tag_11:\n        /* \"#utility.yul\":1036:1040   */\n      0x00\n        /* \"#utility.yul\":1074:1076   */\n      0x20\n        /* \"#utility.yul\":1063:1072   */\n      dup3\n        /* \"#utility.yul\":1059:1077   */\n      add\n        /* \"#utility.yul\":1051:1077   */\n      swap1\n      pop\n        /* \"#utility.yul\":1123:1132   */\n      dup2\n        /* \"#utility.yul\":1117:1121   */\n      dup2\n        /* \"#utility.yul\":1113:1133   */\n      sub\n        /* \"#utility.yul\":1109:1110   */\n      0x00\n        /* \"#utility.yul\":1098:1107   */\n      dup4\n        /* \"#utility.yul\":1094:1111   */\n      add\n        /* \"#utility.yul\":1087:1134   */\n      mstore\n        /* \"#utility.yul\":1151:1229   */\n      tag_122\n        /* \"#utility.yul\":1224:1228   */\n      dup2\n        /* \"#utility.yul\":1215:1221   */\n      dup5\n        /* \"#utility.yul\":1151:1229   */\n      tag_67\n      jump\t// in\n    tag_122:\n        /* \"#utility.yul\":1143:1229   */\n      swap1\n      pop\n        /* \"#utility.yul\":923:1236   */\n      swap3\n      swap2\n      pop\n      pop\n      jump\t// out\n        /* \"#utility.yul\":1242:1317   */\n    tag_68:\n        /* \"#utility.yul\":1275:1281   */\n      0x00\n        /* \"#utility.yul\":1308:1310   */\n      0x40\n        /* \"#utility.yul\":1302:1311   */\n      mload\n        /* \"#utility.yul\":1292:1311   */\n      swap1\n      pop\n        /* \"#utility.yul\":1242:1317   */\n      swap1\n      jump\t// out\n        /* \"#utility.yul\":1323:1440   */\n    tag_69:\n        /* \"#utility.yul\":1432:1433   */\n      0x00\n        /* \"#utility.yul\":1429:1430   */\n      dup1\n        /* \"#utility.yul\":1422:1434   */\n      revert\n        /* \"#utility.yul\":1446:1563   */\n    tag_70:\n        /* \"#utility.yul\":1555:1556   */\n      0x00\n        /* \"#utility.yul\":1552:1553   */\n      dup1\n        /* \"#utility.yul\":1545:1557   */\n      revert\n        /* \"#utility.yul\":1569:1646   */\n    tag_71:\n        /* \"#utility.yul\":1606:1613   */\n      0x00\n        /* \"#utility.yul\":1635:1640   */\n      dup2\n        /* \"#utility.yul\":1624:1640   */\n      swap1\n      pop\n        /* \"#utility.yul\":1569:1646   */\n      swap2\n      swap1\n      pop\n      jump\t// out\n        /* \"#utility.yul\":1652:1774   */\n    tag_72:\n        /* \"#utility.yul\":1725:1749   */\n      tag_128\n        /* \"#utility.yul\":1743:1748   */\n      dup2\n        /* \"#utility.yul\":1725:1749   */\n      tag_71\n      jump\t// in\n    tag_128:\n        /* \"#utility.yul\":1718:1723   */\n      dup2\n        /* \"#utility.yul\":1715:1750   */\n      eq\n        /* \"#utility.yul\":1705:1768   */\n      tag_129\n      jumpi\n        /* \"#utility.yul\":1764:1765   */\n      0x00\n        /* \"#utility.yul\":1761:1762   */\n      dup1\n        /* \"#utility.yul\":1754:1766   */\n      revert\n        /* \"#utility.yul\":1705:1768   */\n    tag_129:\n        /* \"#utility.yul\":1652:1774   */\n      pop\n      jump\t// out\n        /* \"#utility.yul\":1780:1919   */\n    tag_73:\n        /* \"#utility.yul\":1826:1831   */\n      0x00\n        /* \"#utility.yul\":1864:1870   */\n      dup2\n        /* \"#utility.yul\":1851:1871   */\n      calldataload\n        /* \"#utility.yul\":1842:1871   */\n      swap1\n      pop\n        /* \"#utility.yul\":1880:1913   */\n      tag_131\n        /* \"#utility.yul\":1907:1912   */\n      dup2\n        /* \"#utility.yul\":1880:1913   */\n      tag_72\n      jump\t// in\n    tag_131:\n        /* \"#utility.yul\":1780:1919   */\n      swap3\n      swap2\n      pop\n      pop\n      jump\t// out\n        /* \"#utility.yul\":1925:2051   */\n    tag_74:\n        /* \"#utility.yul\":1962:1969   */\n      0x00\n        /* \"#utility.yul\":2002:2044   */\n      0xffffffffffffffffffffffffffffffffffffffff\n        /* \"#utility.yul\":1995:2000   */\n      dup3\n        /* \"#utility.yul\":1991:2045   */\n      and\n        /* \"#utility.yul\":1980:2045   */\n      swap1\n      pop\n        /* \"#utility.yul\":1925:2051   */\n      swap2\n      swap1\n      pop\n      jump\t// out\n        /* \"#utility.yul\":2057:2161   */\n    tag_75:\n        /* \"#utility.yul\":2102:2109   */\n      0x00\n        /* \"#utility.yul\":2131:2155   */\n      tag_134\n        /* \"#utility.yul\":2149:2154   */\n      dup3\n        /* \"#utility.yul\":2131:2155   */\n      tag_74\n      jump\t// in\n    tag_134:\n        /* \"#utility.yul\":2120:2155   */\n      swap1\n      pop\n        /* \"#utility.yul\":2057:2161   */\n      swap2\n      swap1\n      pop\n      jump\t// out\n        /* \"#utility.yul\":2167:2305   */\n    tag_76:\n        /* \"#utility.yul\":2248:2280   */\n      tag_136\n        /* \"#utility.yul\":2274:2279   */\n      dup2\n        /* \"#utility.yul\":2248:2280   */\n      tag_75\n      jump\t// in\n    tag_136:\n        /* \"#utility.yul\":2241:2246   */\n      dup2\n        /* \"#utility.yul\":2238:2281   */\n      eq\n        /* \"#utility.yul\":2228:2299   */\n      tag_137\n      jumpi\n        /* \"#utility.yul\":2295:2296   */\n      0x00\n        /* \"#utility.yul\":2292:2293   */\n      dup1\n        /* \"#utility.yul\":2285:2297   */\n      revert\n        /* \"#utility.yul\":2228:2299   */\n    tag_137:\n        /* \"#utility.yul\":2167:2305   */\n      pop\n      jump\t// out\n        /* \"#utility.yul\":2311:2466   */\n    tag_77:\n        /* \"#utility.yul\":2365:2370   */\n      0x00\n        /* \"#utility.yul\":2403:2409   */\n      dup2\n        /* \"#utility.yul\":2390:2410   */\n      calldataload\n        /* \"#utility.yul\":2381:2410   */\n      swap1\n      pop\n        /* \"#utility.yul\":2419:2460   */\n      tag_139\n        /* \"#utility.yul\":2454:2459   */\n      dup2\n        /* \"#utility.yul\":2419:2460   */\n      tag_76\n      jump\t// in\n    tag_139:\n        /* \"#utility.yul\":2311:2466   */\n      swap3\n      swap2\n      pop\n      pop\n      jump\t// out\n        /* \"#utility.yul\":2472:3107   */\n    tag_14:\n        /* \"#utility.yul\":2557:2563   */\n      0x00\n        /* \"#utility.yul\":2565:2571   */\n      dup1\n        /* \"#utility.yul\":2573:2579   */\n      0x00\n        /* \"#utility.yul\":2622:2624   */\n      0x60\n        /* \"#utility.yul\":2610:2619   */\n      dup5\n        /* \"#utility.yul\":2601:2608   */\n      dup7\n        /* \"#utility.yul\":2597:2620   */\n      sub\n        /* \"#utility.yul\":2593:2625   */\n      slt\n        /* \"#utility.yul\":2590:2709   */\n      iszero\n      tag_141\n      jumpi\n        /* \"#utility.yul\":2628:2707   */\n      tag_142\n      tag_69\n      jump\t// in\n    tag_142:\n        /* \"#utility.yul\":2590:2709   */\n    tag_141:\n        /* \"#utility.yul\":2748:2749   */\n      0x00\n        /* \"#utility.yul\":2773:2826   */\n      tag_143\n        /* \"#utility.yul\":2818:2825   */\n      dup7\n        /* \"#utility.yul\":2809:2815   */\n      dup3\n        /* \"#utility.yul\":2798:2807   */\n      dup8\n        /* \"#utility.yul\":2794:2816   */\n      add\n        /* \"#utility.yul\":2773:2826   */\n      tag_73\n      jump\t// in\n    tag_143:\n        /* \"#utility.yul\":2763:2826   */\n      swap4\n      pop\n        /* \"#utility.yul\":2719:2836   */\n      pop\n        /* \"#utility.yul\":2875:2877   */\n      0x20\n        /* \"#utility.yul\":2901:2954   */\n      tag_144\n        /* \"#utility.yul\":2946:2953   */\n      dup7\n        /* \"#utility.yul\":2937:2943   */\n      dup3\n        /* \"#utility.yul\":2926:2935   */\n      dup8\n        /* \"#utility.yul\":2922:2944   */\n      add\n        /* \"#utility.yul\":2901:2954   */\n      tag_73\n      jump\t// in\n    tag_144:\n        /* \"#utility.yul\":2891:2954   */\n      swap3\n      pop\n        /* \"#utility.yul\":2846:2964   */\n      pop\n        /* \"#utility.yul\":3003:3005   */\n      0x40\n        /* \"#utility.yul\":3029:3090   */\n      tag_145\n        /* \"#utility.yul\":3082:3089   */\n      dup7\n        /* \"#utility.yul\":3073:3079   */\n      dup3\n        /* \"#utility.yul\":3062:3071   */\n      dup8\n        /* \"#utility.yul\":3058:3080   */\n      add\n        /* \"#utility.yul\":3029:3090   */\n      tag_77\n      jump\t// in\n    tag_145:\n        /* \"#utility.yul\":3019:3090   */\n      swap2\n      pop\n        /* \"#utility.yul\":2974:3100   */\n      pop\n        /* \"#utility.yul\":2472:3107   */\n      swap3\n      pop\n      swap3\n      pop\n      swap3\n      jump\t// out\n        /* \"#utility.yul\":3113:3209   */\n    tag_78:\n        /* \"#utility.yul\":3150:3157   */\n      0x00\n        /* \"#utility.yul\":3179:3203   */\n      tag_147\n        /* \"#utility.yul\":3197:3202   */\n      dup3\n        /* \"#utility.yul\":3179:3203   */\n      tag_74\n      jump\t// in\n    tag_147:\n        /* \"#utility.yul\":3168:3203   */\n      swap1\n      pop\n        /* \"#utility.yul\":3113:3209   */\n      swap2\n      swap1\n      pop\n      jump\t// out\n        /* \"#utility.yul\":3215:3333   */\n    tag_79:\n        /* \"#utility.yul\":3302:3326   */\n      tag_149\n        /* \"#utility.yul\":3320:3325   */\n      dup2\n        /* \"#utility.yul\":3302:3326   */\n      tag_78\n      jump\t// in\n    tag_149:\n        /* \"#utility.yul\":3297:3300   */\n      dup3\n        /* \"#utility.yul\":3290:3327   */\n      mstore\n        /* \"#utility.yul\":3215:3333   */\n      pop\n      pop\n      jump\t// out\n        /* \"#utility.yul\":3339:3561   */\n    tag_20:\n        /* \"#utility.yul\":3432:3436   */\n      0x00\n        /* \"#utility.yul\":3470:3472   */\n      0x20\n        /* \"#utility.yul\":3459:3468   */\n      dup3\n        /* \"#utility.yul\":3455:3473   */\n      add\n        /* \"#utility.yul\":3447:3473   */\n      swap1\n      pop\n        /* \"#utility.yul\":3483:3554   */\n      tag_151\n        /* \"#utility.yul\":3551:3552   */\n      0x00\n        /* \"#utility.yul\":3540:3549   */\n      dup4\n        /* \"#utility.yul\":3536:3553   */\n      add\n        /* \"#utility.yul\":3527:3533   */\n      dup5\n        /* \"#utility.yul\":3483:3554   */\n      tag_79\n      jump\t// in\n    tag_151:\n        /* \"#utility.yul\":3339:3561   */\n      swap3\n      swap2\n      pop\n      pop\n      jump\t// out\n        /* \"#utility.yul\":3567:3684   */\n    tag_80:\n        /* \"#utility.yul\":3676:3677   */\n      0x00\n        /* \"#utility.yul\":3673:3674   */\n      dup1\n        /* \"#utility.yul\":3666:3678   */\n      revert\n        /* \"#utility.yul\":3690:3807   */\n    tag_81:\n        /* \"#utility.yul\":3799:3800   */\n      0x00\n        /* \"#utility.yul\":3796:3797   */\n      dup1\n        /* \"#utility.yul\":3789:3801   */\n      revert\n        /* \"#utility.yul\":3813:3993   */\n    tag_82:\n        /* \"#utility.yul\":3861:3938   */\n      0x4e487b7100000000000000000000000000000000000000000000000000000000\n        /* \"#utility.yul\":3858:3859   */\n      0x00\n        /* \"#utility.yul\":3851:3939   */\n      mstore\n        /* \"#utility.yul\":3958:3962   */\n      0x41\n        /* \"#utility.yul\":3955:3956   */\n      0x04\n        /* \"#utility.yul\":3948:3963   */\n      mstore\n        /* \"#utility.yul\":3982:3986   */\n      0x24\n        /* \"#utility.yul\":3979:3980   */\n      0x00\n        /* \"#utility.yul\":3972:3987   */\n      revert\n        /* \"#utility.yul\":3999:4280   */\n    tag_83:\n        /* \"#utility.yul\":4082:4109   */\n      tag_156\n        /* \"#utility.yul\":4104:4108   */\n      dup3\n        /* \"#utility.yul\":4082:4109   */\n      tag_66\n      jump\t// in\n    tag_156:\n        /* \"#utility.yul\":4074:4080   */\n      dup2\n        /* \"#utility.yul\":4070:4110   */\n      add\n        /* \"#utility.yul\":4212:4218   */\n      dup2\n        /* \"#utility.yul\":4200:4210   */\n      dup2\n        /* \"#utility.yul\":4197:4219   */\n      lt\n        /* \"#utility.yul\":4176:4194   */\n      0xffffffffffffffff\n        /* \"#utility.yul\":4164:4174   */\n      dup3\n        /* \"#utility.yul\":4161:4195   */\n      gt\n        /* \"#utility.yul\":4158:4220   */\n      or\n        /* \"#utility.yul\":4155:4243   */\n      iszero\n      tag_157\n      jumpi\n        /* \"#utility.yul\":4223:4241   */\n      tag_158\n      tag_82\n      jump\t// in\n    tag_158:\n        /* \"#utility.yul\":4155:4243   */\n    tag_157:\n        /* \"#utility.yul\":4263:4273   */\n      dup1\n        /* \"#utility.yul\":4259:4261   */\n      0x40\n        /* \"#utility.yul\":4252:4274   */\n      mstore\n        /* \"#utility.yul\":4042:4280   */\n      pop\n        /* \"#utility.yul\":3999:4280   */\n      pop\n      pop\n      jump\t// out\n        /* \"#utility.yul\":4286:4415   */\n    tag_84:\n        /* \"#utility.yul\":4320:4326   */\n      0x00\n        /* \"#utility.yul\":4347:4367   */\n      tag_160\n      tag_68\n      jump\t// in\n    tag_160:\n        /* \"#utility.yul\":4337:4367   */\n      swap1\n      pop\n        /* \"#utility.yul\":4376:4409   */\n      tag_161\n        /* \"#utility.yul\":4404:4408   */\n      dup3\n        /* \"#utility.yul\":4396:4402   */\n      dup3\n        /* \"#utility.yul\":4376:4409   */\n      tag_83\n      jump\t// in\n    tag_161:\n        /* \"#utility.yul\":4286:4415   */\n      swap2\n      swap1\n      pop\n      jump\t// out\n        /* \"#utility.yul\":4421:4729   */\n    tag_85:\n        /* \"#utility.yul\":4483:4487   */\n      0x00\n        /* \"#utility.yul\":4573:4591   */\n      0xffffffffffffffff\n        /* \"#utility.yul\":4565:4571   */\n      dup3\n        /* \"#utility.yul\":4562:4592   */\n      gt\n        /* \"#utility.yul\":4559:4615   */\n      iszero\n      tag_163\n      jumpi\n        /* \"#utility.yul\":4595:4613   */\n      tag_164\n      tag_82\n      jump\t// in\n    tag_164:\n        /* \"#utility.yul\":4559:4615   */\n    tag_163:\n        /* \"#utility.yul\":4633:4662   */\n      tag_165\n        /* \"#utility.yul\":4655:4661   */\n      dup3\n        /* \"#utility.yul\":4633:4662   */\n      tag_66\n      jump\t// in\n    tag_165:\n        /* \"#utility.yul\":4625:4662   */\n      swap1\n      pop\n        /* \"#utility.yul\":4717:4721   */\n      0x20\n        /* \"#utility.yul\":4711:4715   */\n      dup2\n        /* \"#utility.yul\":4707:4722   */\n      add\n        /* \"#utility.yul\":4699:4722   */\n      swap1\n      pop\n        /* \"#utility.yul\":4421:4729   */\n      swap2\n      swap1\n      pop\n      jump\t// out\n        /* \"#utility.yul\":4735:4883   */\n    tag_86:\n        /* \"#utility.yul\":4833:4839   */\n      dup3\n        /* \"#utility.yul\":4828:4831   */\n      dup2\n        /* \"#utility.yul\":4823:4826   */\n      dup4\n        /* \"#utility.yul\":4810:4840   */\n      calldatacopy\n        /* \"#utility.yul\":4874:4875   */\n      0x00\n        /* \"#utility.yul\":4865:4871   */\n      dup4\n        /* \"#utility.yul\":4860:4863   */\n      dup4\n        /* \"#utility.yul\":4856:4872   */\n      add\n        /* \"#utility.yul\":4849:4876   */\n      mstore\n        /* \"#utility.yul\":4735:4883   */\n      pop\n      pop\n      pop\n      jump\t// out\n        /* \"#utility.yul\":4889:5314   */\n    tag_87:\n        /* \"#utility.yul\":4967:4972   */\n      0x00\n        /* \"#utility.yul\":4992:5058   */\n      tag_168\n        /* \"#utility.yul\":5008:5057   */\n      tag_169\n        /* \"#utility.yul\":5050:5056   */\n      dup5\n        /* \"#utility.yul\":5008:5057   */\n      tag_85\n      jump\t// in\n    tag_169:\n        /* \"#utility.yul\":4992:5058   */\n      tag_84\n      jump\t// in\n    tag_168:\n        /* \"#utility.yul\":4983:5058   */\n      swap1\n      pop\n        /* \"#utility.yul\":5081:5087   */\n      dup3\n        /* \"#utility.yul\":5074:5079   */\n      dup2\n        /* \"#utility.yul\":5067:5088   */\n      mstore\n        /* \"#utility.yul\":5119:5123   */\n      0x20\n        /* \"#utility.yul\":5112:5117   */\n      dup2\n        /* \"#utility.yul\":5108:5124   */\n      add\n        /* \"#utility.yul\":5157:5160   */\n      dup5\n        /* \"#utility.yul\":5148:5154   */\n      dup5\n        /* \"#utility.yul\":5143:5146   */\n      dup5\n        /* \"#utility.yul\":5139:5155   */\n      add\n        /* \"#utility.yul\":5136:5161   */\n      gt\n        /* \"#utility.yul\":5133:5245   */\n      iszero\n      tag_170\n      jumpi\n        /* \"#utility.yul\":5164:5243   */\n      tag_171\n      tag_81\n      jump\t// in\n    tag_171:\n        /* \"#utility.yul\":5133:5245   */\n    tag_170:\n        /* \"#utility.yul\":5254:5308   */\n      tag_172\n        /* \"#utility.yul\":5301:5307   */\n      dup5\n        /* \"#utility.yul\":5296:5299   */\n      dup3\n        /* \"#utility.yul\":5291:5294   */\n      dup6\n        /* \"#utility.yul\":5254:5308   */\n      tag_86\n      jump\t// in\n    tag_172:\n        /* \"#utility.yul\":4973:5314   */\n      pop\n        /* \"#utility.yul\":4889:5314   */\n      swap4\n      swap3\n      pop\n      pop\n      pop\n      jump\t// out\n        /* \"#utility.yul\":5334:5674   */\n    tag_88:\n        /* \"#utility.yul\":5390:5395   */\n      0x00\n        /* \"#utility.yul\":5439:5442   */\n      dup3\n        /* \"#utility.yul\":5432:5436   */\n      0x1f\n        /* \"#utility.yul\":5424:5430   */\n      dup4\n        /* \"#utility.yul\":5420:5437   */\n      add\n        /* \"#utility.yul\":5416:5443   */\n      slt\n        /* \"#utility.yul\":5406:5528   */\n      tag_174\n      jumpi\n        /* \"#utility.yul\":5447:5526   */\n      tag_175\n      tag_80\n      jump\t// in\n    tag_175:\n        /* \"#utility.yul\":5406:5528   */\n    tag_174:\n        /* \"#utility.yul\":5564:5570   */\n      dup2\n        /* \"#utility.yul\":5551:5571   */\n      calldataload\n        /* \"#utility.yul\":5589:5668   */\n      tag_176\n        /* \"#utility.yul\":5664:5667   */\n      dup5\n        /* \"#utility.yul\":5656:5662   */\n      dup3\n        /* \"#utility.yul\":5649:5653   */\n      0x20\n        /* \"#utility.yul\":5641:5647   */\n      dup7\n        /* \"#utility.yul\":5637:5654   */\n      add\n        /* \"#utility.yul\":5589:5668   */\n      tag_87\n      jump\t// in\n    tag_176:\n        /* \"#utility.yul\":5580:5668   */\n      swap2\n      pop\n        /* \"#utility.yul\":5396:5674   */\n      pop\n        /* \"#utility.yul\":5334:5674   */\n      swap3\n      swap2\n      pop\n      pop\n      jump\t// out\n        /* \"#utility.yul\":5680:6189   */\n    tag_27:\n        /* \"#utility.yul\":5749:5755   */\n      0x00\n        /* \"#utility.yul\":5798:5800   */\n      0x20\n        /* \"#utility.yul\":5786:5795   */\n      dup3\n        /* \"#utility.yul\":5777:5784   */\n      dup5\n        /* \"#utility.yul\":5773:5796   */\n      sub\n        /* \"#utility.yul\":5769:5801   */\n      slt\n        /* \"#utility.yul\":5766:5885   */\n      iszero\n      tag_178\n      jumpi\n        /* \"#utility.yul\":5804:5883   */\n      tag_179\n      tag_69\n      jump\t// in\n    tag_179:\n        /* \"#utility.yul\":5766:5885   */\n    tag_178:\n        /* \"#utility.yul\":5952:5953   */\n      0x00\n        /* \"#utility.yul\":5941:5950   */\n      dup3\n        /* \"#utility.yul\":5937:5954   */\n      add\n        /* \"#utility.yul\":5924:5955   */\n      calldataload\n        /* \"#utility.yul\":5982:6000   */\n      0xffffffffffffffff\n        /* \"#utility.yul\":5974:5980   */\n      dup2\n        /* \"#utility.yul\":5971:6001   */\n      gt\n        /* \"#utility.yul\":5968:6085   */\n      iszero\n      tag_180\n      jumpi\n        /* \"#utility.yul\":6004:6083   */\n      tag_181\n      tag_70\n      jump\t// in\n    tag_181:\n        /* \"#utility.yul\":5968:6085   */\n    tag_180:\n        /* \"#utility.yul\":6109:6172   */\n      tag_182\n        /* \"#utility.yul\":6164:6171   */\n      dup5\n        /* \"#utility.yul\":6155:6161   */\n      dup3\n        /* \"#utility.yul\":6144:6153   */\n      dup6\n        /* \"#utility.yul\":6140:6162   */\n      add\n        /* \"#utility.yul\":6109:6172   */\n      tag_88\n      jump\t// in\n    tag_182:\n        /* \"#utility.yul\":6099:6172   */\n      swap2\n      pop\n        /* \"#utility.yul\":5895:6182   */\n      pop\n        /* \"#utility.yul\":5680:6189   */\n      swap3\n      swap2\n      pop\n      pop\n      jump\t// out\n        /* \"#utility.yul\":6195:6375   */\n    tag_89:\n        /* \"#utility.yul\":6243:6320   */\n      0x4e487b7100000000000000000000000000000000000000000000000000000000\n        /* \"#utility.yul\":6240:6241   */\n      0x00\n        /* \"#utility.yul\":6233:6321   */\n      mstore\n        /* \"#utility.yul\":6340:6344   */\n      0x22\n        /* \"#utility.yul\":6337:6338   */\n      0x04\n        /* \"#utility.yul\":6330:6345   */\n      mstore\n        /* \"#utility.yul\":6364:6368   */\n      0x24\n        /* \"#utility.yul\":6361:6362   */\n      0x00\n        /* \"#utility.yul\":6354:6369   */\n      revert\n        /* \"#utility.yul\":6381:6701   */\n    tag_31:\n        /* \"#utility.yul\":6425:6431   */\n      0x00\n        /* \"#utility.yul\":6462:6463   */\n      0x02\n        /* \"#utility.yul\":6456:6460   */\n      dup3\n        /* \"#utility.yul\":6452:6464   */\n      div\n        /* \"#utility.yul\":6442:6464   */\n      swap1\n      pop\n        /* \"#utility.yul\":6509:6510   */\n      0x01\n        /* \"#utility.yul\":6503:6507   */\n      dup3\n        /* \"#utility.yul\":6499:6511   */\n      and\n        /* \"#utility.yul\":6530:6548   */\n      dup1\n        /* \"#utility.yul\":6520:6601   */\n      tag_185\n      jumpi\n        /* \"#utility.yul\":6586:6590   */\n      0x7f\n        /* \"#utility.yul\":6578:6584   */\n      dup3\n        /* \"#utility.yul\":6574:6591   */\n      and\n        /* \"#utility.yul\":6564:6591   */\n      swap2\n      pop\n        /* \"#utility.yul\":6520:6601   */\n    tag_185:\n        /* \"#utility.yul\":6648:6650   */\n      0x20\n        /* \"#utility.yul\":6640:6646   */\n      dup3\n        /* \"#utility.yul\":6637:6651   */\n      lt\n        /* \"#utility.yul\":6617:6635   */\n      dup2\n        /* \"#utility.yul\":6614:6652   */\n      sub\n        /* \"#utility.yul\":6611:6695   */\n      tag_186\n      jumpi\n        /* \"#utility.yul\":6667:6685   */\n      tag_187\n      tag_89\n      jump\t// in\n    tag_187:\n        /* \"#utility.yul\":6611:6695   */\n    tag_186:\n        /* \"#utility.yul\":6432:6701   */\n      pop\n        /* \"#utility.yul\":6381:6701   */\n      swap2\n      swap1\n      pop\n      jump\t// out\n        /* \"#utility.yul\":6707:6887   */\n    tag_90:\n        /* \"#utility.yul\":6755:6832   */\n      0x4e487b7100000000000000000000000000000000000000000000000000000000\n        /* \"#utility.yul\":6752:6753   */\n      0x00\n        /* \"#utility.yul\":6745:6833   */\n      mstore\n        /* \"#utility.yul\":6852:6856   */\n      0x11\n        /* \"#utility.yul\":6849:6850   */\n      0x04\n        /* \"#utility.yul\":6842:6857   */\n      mstore\n        /* \"#utility.yul\":6876:6880   */\n      0x24\n        /* \"#utility.yul\":6873:6874   */\n      0x00\n        /* \"#utility.yul\":6866:6881   */\n      revert\n        /* \"#utility.yul\":6893:7303   */\n    tag_38:\n        /* \"#utility.yul\":6933:6940   */\n      0x00\n        /* \"#utility.yul\":6956:6976   */\n      tag_190\n        /* \"#utility.yul\":6974:6975   */\n      dup3\n        /* \"#utility.yul\":6956:6976   */\n      tag_71\n      jump\t// in\n    tag_190:\n        /* \"#utility.yul\":6951:6976   */\n      swap2\n      pop\n        /* \"#utility.yul\":6990:7010   */\n      tag_191\n        /* \"#utility.yul\":7008:7009   */\n      dup4\n        /* \"#utility.yul\":6990:7010   */\n      tag_71\n      jump\t// in\n    tag_191:\n        /* \"#utility.yul\":6985:7010   */\n      swap3\n      pop\n        /* \"#utility.yul\":7045:7046   */\n      dup3\n        /* \"#utility.yul\":7042:7043   */\n      dup3\n        /* \"#utility.yul\":7038:7047   */\n      mul\n        /* \"#utility.yul\":7067:7097   */\n      tag_192\n        /* \"#utility.yul\":7085:7096   */\n      dup2\n        /* \"#utility.yul\":7067:7097   */\n      tag_71\n      jump\t// in\n    tag_192:\n        /* \"#utility.yul\":7056:7097   */\n      swap2\n      pop\n        /* \"#utility.yul\":7246:7247   */\n      dup3\n        /* \"#utility.yul\":7237:7244   */\n      dup3\n        /* \"#utility.yul\":7233:7248   */\n      div\n        /* \"#utility.yul\":7230:7231   */\n      dup5\n        /* \"#utility.yul\":7227:7249   */\n      eq\n        /* \"#utility.yul\":7207:7208   */\n      dup4\n        /* \"#utility.yul\":7200:7209   */\n      iszero\n        /* \"#utility.yul\":7180:7263   */\n      or\n        /* \"#utility.yul\":7157:7296   */\n      tag_193\n      jumpi\n        /* \"#utility.yul\":7276:7294   */\n      tag_194\n      tag_90\n      jump\t// in\n    tag_194:\n        /* \"#utility.yul\":7157:7296   */\n    tag_193:\n        /* \"#utility.yul\":6941:7303   */\n      pop\n        /* \"#utility.yul\":6893:7303   */\n      swap3\n      swap2\n      pop\n      pop\n      jump\t// out\n        /* \"#utility.yul\":7309:7476   */\n    tag_91:\n        /* \"#utility.yul\":7449:7468   */\n      0x4e6f7420656e6f75676874207072696365000000000000000000000000000000\n        /* \"#utility.yul\":7445:7446   */\n      0x00\n        /* \"#utility.yul\":7437:7443   */\n      dup3\n        /* \"#utility.yul\":7433:7447   */\n      add\n        /* \"#utility.yul\":7426:7469   */\n      mstore\n        /* \"#utility.yul\":7309:7476   */\n      pop\n      jump\t// out\n        /* \"#utility.yul\":7482:7848   */\n    tag_92:\n        /* \"#utility.yul\":7624:7627   */\n      0x00\n        /* \"#utility.yul\":7645:7712   */\n      tag_197\n        /* \"#utility.yul\":7709:7711   */\n      0x11\n        /* \"#utility.yul\":7704:7707   */\n      dup4\n        /* \"#utility.yul\":7645:7712   */\n      tag_64\n      jump\t// in\n    tag_197:\n        /* \"#utility.yul\":7638:7712   */\n      swap2\n      pop\n        /* \"#utility.yul\":7721:7814   */\n      tag_198\n        /* \"#utility.yul\":7810:7813   */\n      dup3\n        /* \"#utility.yul\":7721:7814   */\n      tag_91\n      jump\t// in\n    tag_198:\n        /* \"#utility.yul\":7839:7841   */\n      0x20\n        /* \"#utility.yul\":7834:7837   */\n      dup3\n        /* \"#utility.yul\":7830:7842   */\n      add\n        /* \"#utility.yul\":7823:7842   */\n      swap1\n      pop\n        /* \"#utility.yul\":7482:7848   */\n      swap2\n      swap1\n      pop\n      jump\t// out\n        /* \"#utility.yul\":7854:8273   */\n    tag_41:\n        /* \"#utility.yul\":8020:8024   */\n      0x00\n        /* \"#utility.yul\":8058:8060   */\n      0x20\n        /* \"#utility.yul\":8047:8056   */\n      dup3\n        /* \"#utility.yul\":8043:8061   */\n      add\n        /* \"#utility.yul\":8035:8061   */\n      swap1\n      pop\n        /* \"#utility.yul\":8107:8116   */\n      dup2\n        /* \"#utility.yul\":8101:8105   */\n      dup2\n        /* \"#utility.yul\":8097:8117   */\n      sub\n        /* \"#utility.yul\":8093:8094   */\n      0x00\n        /* \"#utility.yul\":8082:8091   */\n      dup4\n        /* \"#utility.yul\":8078:8095   */\n      add\n        /* \"#utility.yul\":8071:8118   */\n      mstore\n        /* \"#utility.yul\":8135:8266   */\n      tag_200\n        /* \"#utility.yul\":8261:8265   */\n      dup2\n        /* \"#utility.yul\":8135:8266   */\n      tag_92\n      jump\t// in\n    tag_200:\n        /* \"#utility.yul\":8127:8266   */\n      swap1\n      pop\n        /* \"#utility.yul\":7854:8273   */\n      swap2\n      swap1\n      pop\n      jump\t// out\n        /* \"#utility.yul\":8279:8442   */\n    tag_93:\n        /* \"#utility.yul\":8419:8434   */\n      0x53656e6420736f6d652045544800000000000000000000000000000000000000\n        /* \"#utility.yul\":8415:8416   */\n      0x00\n        /* \"#utility.yul\":8407:8413   */\n      dup3\n        /* \"#utility.yul\":8403:8417   */\n      add\n        /* \"#utility.yul\":8396:8435   */\n      mstore\n        /* \"#utility.yul\":8279:8442   */\n      pop\n      jump\t// out\n        /* \"#utility.yul\":8448:8814   */\n    tag_94:\n        /* \"#utility.yul\":8590:8593   */\n      0x00\n        /* \"#utility.yul\":8611:8678   */\n      tag_203\n        /* \"#utility.yul\":8675:8677   */\n      0x0d\n        /* \"#utility.yul\":8670:8673   */\n      dup4\n        /* \"#utility.yul\":8611:8678   */\n      tag_64\n      jump\t// in\n    tag_203:\n        /* \"#utility.yul\":8604:8678   */\n      swap2\n      pop\n        /* \"#utility.yul\":8687:8780   */\n      tag_204\n        /* \"#utility.yul\":8776:8779   */\n      dup3\n        /* \"#utility.yul\":8687:8780   */\n      tag_93\n      jump\t// in\n    tag_204:\n        /* \"#utility.yul\":8805:8807   */\n      0x20\n        /* \"#utility.yul\":8800:8803   */\n      dup3\n        /* \"#utility.yul\":8796:8808   */\n      add\n        /* \"#utility.yul\":8789:8808   */\n      swap1\n      pop\n        /* \"#utility.yul\":8448:8814   */\n      swap2\n      swap1\n      pop\n      jump\t// out\n        /* \"#utility.yul\":8820:9239   */\n    tag_44:\n        /* \"#utility.yul\":8986:8990   */\n      0x00\n        /* \"#utility.yul\":9024:9026   */\n      0x20\n        /* \"#utility.yul\":9013:9022   */\n      dup3\n        /* \"#utility.yul\":9009:9027   */\n      add\n        /* \"#utility.yul\":9001:9027   */\n      swap1\n      pop\n        /* \"#utility.yul\":9073:9082   */\n      dup2\n        /* \"#utility.yul\":9067:9071   */\n      dup2\n        /* \"#utility.yul\":9063:9083   */\n      sub\n        /* \"#utility.yul\":9059:9060   */\n      0x00\n        /* \"#utility.yul\":9048:9057   */\n      dup4\n        /* \"#utility.yul\":9044:9061   */\n      add\n        /* \"#utility.yul\":9037:9084   */\n      mstore\n        /* \"#utility.yul\":9101:9232   */\n      tag_206\n        /* \"#utility.yul\":9227:9231   */\n      dup2\n        /* \"#utility.yul\":9101:9232   */\n      tag_94\n      jump\t// in\n    tag_206:\n        /* \"#utility.yul\":9093:9232   */\n      swap1\n      pop\n        /* \"#utility.yul\":8820:9239   */\n      swap2\n      swap1\n      pop\n      jump\t// out\n        /* \"#utility.yul\":9245:9363   */\n    tag_95:\n        /* \"#utility.yul\":9332:9356   */\n      tag_208\n        /* \"#utility.yul\":9350:9355   */\n      dup2\n        /* \"#utility.yul\":9332:9356   */\n      tag_71\n      jump\t// in\n    tag_208:\n        /* \"#utility.yul\":9327:9330   */\n      dup3\n        /* \"#utility.yul\":9320:9357   */\n      mstore\n        /* \"#utility.yul\":9245:9363   */\n      pop\n      pop\n      jump\t// out\n        /* \"#utility.yul\":9369:9701   */\n    tag_48:\n        /* \"#utility.yul\":9490:9494   */\n      0x00\n        /* \"#utility.yul\":9528:9530   */\n      0x40\n        /* \"#utility.yul\":9517:9526   */\n      dup3\n        /* \"#utility.yul\":9513:9531   */\n      add\n        /* \"#utility.yul\":9505:9531   */\n      swap1\n      pop\n        /* \"#utility.yul\":9541:9612   */\n      tag_210\n        /* \"#utility.yul\":9609:9610   */\n      0x00\n        /* \"#utility.yul\":9598:9607   */\n      dup4\n        /* \"#utility.yul\":9594:9611   */\n      add\n        /* \"#utility.yul\":9585:9591   */\n      dup6\n        /* \"#utility.yul\":9541:9612   */\n      tag_95\n      jump\t// in\n    tag_210:\n        /* \"#utility.yul\":9622:9694   */\n      tag_211\n        /* \"#utility.yul\":9690:9692   */\n      0x20\n        /* \"#utility.yul\":9679:9688   */\n      dup4\n        /* \"#utility.yul\":9675:9693   */\n      add\n        /* \"#utility.yul\":9666:9672   */\n      dup5\n        /* \"#utility.yul\":9622:9694   */\n      tag_95\n      jump\t// in\n    tag_211:\n        /* \"#utility.yul\":9369:9701   */\n      swap4\n      swap3\n      pop\n      pop\n      pop\n      jump\t// out\n        /* \"#utility.yul\":9707:9848   */\n    tag_96:\n        /* \"#utility.yul\":9756:9760   */\n      0x00\n        /* \"#utility.yul\":9779:9782   */\n      dup2\n        /* \"#utility.yul\":9771:9782   */\n      swap1\n      pop\n        /* \"#utility.yul\":9802:9805   */\n      dup2\n        /* \"#utility.yul\":9799:9800   */\n      0x00\n        /* \"#utility.yul\":9792:9806   */\n      mstore\n        /* \"#utility.yul\":9836:9840   */\n      0x20\n        /* \"#utility.yul\":9833:9834   */\n      0x00\n        /* \"#utility.yul\":9823:9841   */\n      keccak256\n        /* \"#utility.yul\":9815:9841   */\n      swap1\n      pop\n        /* \"#utility.yul\":9707:9848   */\n      swap2\n      swap1\n      pop\n      jump\t// out\n        /* \"#utility.yul\":9854:9947   */\n    tag_97:\n        /* \"#utility.yul\":9891:9897   */\n      0x00\n        /* \"#utility.yul\":9938:9940   */\n      0x20\n        /* \"#utility.yul\":9933:9935   */\n      0x1f\n        /* \"#utility.yul\":9926:9931   */\n      dup4\n        /* \"#utility.yul\":9922:9936   */\n      add\n        /* \"#utility.yul\":9918:9941   */\n      div\n        /* \"#utility.yul\":9908:9941   */\n      swap1\n      pop\n        /* \"#utility.yul\":9854:9947   */\n      swap2\n      swap1\n      pop\n      jump\t// out\n        /* \"#utility.yul\":9953:10060   */\n    tag_98:\n        /* \"#utility.yul\":9997:10005   */\n      0x00\n        /* \"#utility.yul\":10047:10052   */\n      dup3\n        /* \"#utility.yul\":10041:10045   */\n      dup3\n        /* \"#utility.yul\":10037:10053   */\n      shl\n        /* \"#utility.yul\":10016:10053   */\n      swap1\n      pop\n        /* \"#utility.yul\":9953:10060   */\n      swap3\n      swap2\n      pop\n      pop\n      jump\t// out\n        /* \"#utility.yul\":10066:10459   */\n    tag_99:\n        /* \"#utility.yul\":10135:10141   */\n      0x00\n        /* \"#utility.yul\":10185:10186   */\n      0x08\n        /* \"#utility.yul\":10173:10183   */\n      dup4\n        /* \"#utility.yul\":10169:10187   */\n      mul\n        /* \"#utility.yul\":10208:10305   */\n      tag_216\n        /* \"#utility.yul\":10238:10304   */\n      0xffffffffffffffffffffffffffffffffffffffffffffffffffffffffffffffff\n        /* \"#utility.yul\":10227:10236   */\n      dup3\n        /* \"#utility.yul\":10208:10305   */\n      tag_98\n      jump\t// in\n    tag_216:\n        /* \"#utility.yul\":10326:10365   */\n      tag_217\n        /* \"#utility.yul\":10356:10364   */\n      dup7\n        /* \"#utility.yul\":10345:10354   */\n      dup4\n        /* \"#utility.yul\":10326:10365   */\n      tag_98\n      jump\t// in\n    tag_217:\n        /* \"#utility.yul\":10314:10365   */\n      swap6\n      pop\n        /* \"#utility.yul\":10398:10402   */\n      dup1\n        /* \"#utility.yul\":10394:10403   */\n      not\n        /* \"#utility.yul\":10387:10392   */\n      dup5\n        /* \"#utility.yul\":10383:10404   */\n      and\n        /* \"#utility.yul\":10374:10404   */\n      swap4\n      pop\n        /* \"#utility.yul\":10447:10451   */\n      dup1\n        /* \"#utility.yul\":10437:10445   */\n      dup7\n        /* \"#utility.yul\":10433:10452   */\n      and\n        /* \"#utility.yul\":10426:10431   */\n      dup5\n        /* \"#utility.yul\":10423:10453   */\n      or\n        /* \"#utility.yul\":10413:10453   */\n      swap3\n      pop\n        /* \"#utility.yul\":10142:10459   */\n      pop\n      pop\n        /* \"#utility.yul\":10066:10459   */\n      swap4\n      swap3\n      pop\n      pop\n      pop\n      jump\t// out\n        /* \"#utility.yul\":10465:10525   */\n    tag_100:\n        /* \"#utility.yul\":10493:10496   */\n      0x00\n        /* \"#utility.yul\":10514:10519   */\n      dup2\n        /* \"#utility.yul\":10507:10519   */\n      swap1\n      pop\n        /* \"#utility.yul\":10465:10525   */\n      swap2\n      swap1\n      pop\n      jump\t// out\n        /* \"#utility.yul\":10531:10673   */\n    tag_101:\n        /* \"#utility.yul\":10581:10590   */\n      0x00\n        /* \"#utility.yul\":10614:10667   */\n      tag_220\n        /* \"#utility.yul\":10632:10666   */\n      tag_221\n        /* \"#utility.yul\":10641:10665   */\n      tag_222\n        /* \"#utility.yul\":10659:10664   */\n      dup5\n        /* \"#utility.yul\":10641:10665   */\n      tag_71\n      jump\t// in\n    tag_222:\n        /* \"#utility.yul\":10632:10666   */\n      tag_100\n      jump\t// in\n    tag_221:\n        /* \"#utility.yul\":10614:10667   */\n      tag_71\n      jump\t// in\n    tag_220:\n        /* \"#utility.yul\":10601:10667   */\n      swap1\n      pop\n        /* \"#utility.yul\":10531:10673   */\n      swap2\n      swap1\n      pop\n      jump\t// out\n        /* \"#utility.yul\":10679:10754   */\n    tag_102:\n        /* \"#utility.yul\":10722:10725   */\n      0x00\n        /* \"#utility.yul\":10743:10748   */\n      dup2\n        /* \"#utility.yul\":10736:10748   */\n      swap1\n      pop\n        /* \"#utility.yul\":10679:10754   */\n      swap2\n      swap1\n      pop\n      jump\t// out\n        /* \"#utility.yul\":10760:11029   */\n    tag_103:\n        /* \"#utility.yul\":10870:10909   */\n      tag_225\n        /* \"#utility.yul\":10901:10908   */\n      dup4\n        /* \"#utility.yul\":10870:10909   */\n      tag_101\n      jump\t// in\n    tag_225:\n        /* \"#utility.yul\":10931:11022   */\n      tag_226\n        /* \"#utility.yul\":10980:11021   */\n      tag_227\n        /* \"#utility.yul\":11004:11020   */\n      dup3\n        /* \"#utility.yul\":10980:11021   */\n      tag_102\n      jump\t// in\n    tag_227:\n        /* \"#utility.yul\":10972:10978   */\n      dup5\n        /* \"#utility.yul\":10965:10969   */\n      dup5\n        /* \"#utility.yul\":10959:10970   */\n      sload\n        /* \"#utility.yul\":10931:11022   */\n      tag_99\n      jump\t// in\n    tag_226:\n        /* \"#utility.yul\":10925:10929   */\n      dup3\n        /* \"#utility.yul\":10918:11023   */\n      sstore\n        /* \"#utility.yul\":10836:11029   */\n      pop\n        /* \"#utility.yul\":10760:11029   */\n      pop\n      pop\n      pop\n      jump\t// out\n        /* \"#utility.yul\":11035:11108   */\n    tag_104:\n        /* \"#utility.yul\":11080:11083   */\n      0x00\n        /* \"#utility.yul\":11035:11108   */\n      swap1\n      jump\t// out\n        /* \"#utility.yul\":11114:11303   */\n    tag_105:\n        /* \"#utility.yul\":11191:11223   */\n      tag_230\n      tag_104\n      jump\t// in\n    tag_230:\n        /* \"#utility.yul\":11232:11297   */\n      tag_231\n        /* \"#utility.yul\":11290:11296   */\n      dup2\n        /* \"#utility.yul\":11282:11288   */\n      dup5\n        /* \"#utility.yul\":11276:11280   */\n      dup5\n        /* \"#utility.yul\":11232:11297   */\n      tag_103\n      jump\t// in\n    tag_231:\n        /* \"#utility.yul\":11167:11303   */\n      pop\n        /* \"#utility.yul\":11114:11303   */\n      pop\n      pop\n      jump\t// out\n        /* \"#utility.yul\":11309:11495   */\n    tag_106:\n        /* \"#utility.yul\":11369:11489   */\n    tag_233:\n        /* \"#utility.yul\":11386:11389   */\n      dup2\n        /* \"#utility.yul\":11379:11384   */\n      dup2\n        /* \"#utility.yul\":11376:11390   */\n      lt\n        /* \"#utility.yul\":11369:11489   */\n      iszero\n      tag_235\n      jumpi\n        /* \"#utility.yul\":11440:11479   */\n      tag_236\n        /* \"#utility.yul\":11477:11478   */\n      0x00\n        /* \"#utility.yul\":11470:11475   */\n      dup3\n        /* \"#utility.yul\":11440:11479   */\n      tag_105\n      jump\t// in\n    tag_236:\n        /* \"#utility.yul\":11413:11414   */\n      0x01\n        /* \"#utility.yul\":11406:11411   */\n      dup2\n        /* \"#utility.yul\":11402:11415   */\n      add\n        /* \"#utility.yul\":11393:11415   */\n      swap1\n      pop\n        /* \"#utility.yul\":11369:11489   */\n      jump(tag_233)\n    tag_235:\n        /* \"#utility.yul\":11309:11495   */\n      pop\n      pop\n      jump\t// out\n        /* \"#utility.yul\":11501:12044   */\n    tag_107:\n        /* \"#utility.yul\":11602:11604   */\n      0x1f\n        /* \"#utility.yul\":11597:11600   */\n      dup3\n        /* \"#utility.yul\":11594:11605   */\n      gt\n        /* \"#utility.yul\":11591:12037   */\n      iszero\n      tag_238\n      jumpi\n        /* \"#utility.yul\":11636:11674   */\n      tag_239\n        /* \"#utility.yul\":11668:11673   */\n      dup2\n        /* \"#utility.yul\":11636:11674   */\n      tag_96\n      jump\t// in\n    tag_239:\n        /* \"#utility.yul\":11720:11749   */\n      tag_240\n        /* \"#utility.yul\":11738:11748   */\n      dup5\n        /* \"#utility.yul\":11720:11749   */\n      tag_97\n      jump\t// in\n    tag_240:\n        /* \"#utility.yul\":11710:11718   */\n      dup2\n        /* \"#utility.yul\":11706:11750   */\n      add\n        /* \"#utility.yul\":11903:11905   */\n      0x20\n        /* \"#utility.yul\":11891:11901   */\n      dup6\n        /* \"#utility.yul\":11888:11906   */\n      lt\n        /* \"#utility.yul\":11885:11934   */\n      iszero\n      tag_241\n      jumpi\n        /* \"#utility.yul\":11924:11932   */\n      dup2\n        /* \"#utility.yul\":11909:11932   */\n      swap1\n      pop\n        /* \"#utility.yul\":11885:11934   */\n    tag_241:\n        /* \"#utility.yul\":11947:12027   */\n      tag_242\n        /* \"#utility.yul\":12003:12025   */\n      tag_243\n        /* \"#utility.yul\":12021:12024   */\n      dup6\n        /* \"#utility.yul\":12003:12025   */\n      tag_97\n      jump\t// in\n    tag_243:\n        /* \"#utility.yul\":11993:12001   */\n      dup4\n        /* \"#utility.yul\":11989:12026   */\n      add\n        /* \"#utility.yul\":11976:11987   */\n      dup3\n        /* \"#utility.yul\":11947:12027   */\n      tag_106\n      jump\t// in\n    tag_242:\n        /* \"#utility.yul\":11606:12037   */\n      pop\n      pop\n        /* \"#utility.yul\":11591:12037   */\n    tag_238:\n        /* \"#utility.yul\":11501:12044   */\n      pop\n      pop\n      pop\n      jump\t// out\n        /* \"#utility.yul\":12050:12167   */\n    tag_108:\n        /* \"#utility.yul\":12104:12112   */\n      0x00\n        /* \"#utility.yul\":12154:12159   */\n      dup3\n        /* \"#utility.yul\":12148:12152   */\n      dup3\n        /* \"#utility.yul\":12144:12160   */\n      shr\n        /* \"#utility.yul\":12123:12160   */\n      swap1\n      pop\n        /* \"#utility.yul\":12050:12167   */\n      swap3\n      swap2\n      pop\n      pop\n      jump\t// out\n        /* \"#utility.yul\":12173:12342   */\n    tag_109:\n        /* \"#utility.yul\":12217:12223   */\n      0x00\n        /* \"#utility.yul\":12250:12301   */\n      tag_246\n        /* \"#utility.yul\":12298:12299   */\n      0x00\n        /* \"#utility.yul\":12294:12300   */\n      not\n        /* \"#utility.yul\":12286:12291   */\n      dup5\n        /* \"#utility.yul\":12283:12284   */\n      0x08\n        /* \"#utility.yul\":12279:12292   */\n      mul\n        /* \"#utility.yul\":12250:12301   */\n      tag_108\n      jump\t// in\n    tag_246:\n        /* \"#utility.yul\":12246:12302   */\n      not\n        /* \"#utility.yul\":12331:12335   */\n      dup1\n        /* \"#utility.yul\":12325:12329   */\n      dup4\n        /* \"#utility.yul\":12321:12336   */\n      and\n        /* \"#utility.yul\":12311:12336   */\n      swap2\n      pop\n        /* \"#utility.yul\":12224:12342   */\n      pop\n        /* \"#utility.yul\":12173:12342   */\n      swap3\n      swap2\n      pop\n      pop\n      jump\t// out\n        /* \"#utility.yul\":12347:12642   */\n    tag_110:\n        /* \"#utility.yul\":12423:12427   */\n      0x00\n        /* \"#utility.yul\":12569:12598   */\n      tag_248\n        /* \"#utility.yul\":12594:12597   */\n      dup4\n        /* \"#utility.yul\":12588:12592   */\n      dup4\n        /* \"#utility.yul\":12569:12598   */\n      tag_109\n      jump\t// in\n    tag_248:\n        /* \"#utility.yul\":12561:12598   */\n      swap2\n      pop\n        /* \"#utility.yul\":12631:12634   */\n      dup3\n        /* \"#utility.yul\":12628:12629   */\n      0x02\n        /* \"#utility.yul\":12624:12635   */\n      mul\n        /* \"#utility.yul\":12618:12622   */\n      dup3\n        /* \"#utility.yul\":12615:12636   */\n      or\n        /* \"#utility.yul\":12607:12636   */\n      swap1\n      pop\n        /* \"#utility.yul\":12347:12642   */\n      swap3\n      swap2\n      pop\n      pop\n      jump\t// out\n        /* \"#utility.yul\":12647:14042   */\n    tag_62:\n        /* \"#utility.yul\":12764:12801   */\n      tag_250\n        /* \"#utility.yul\":12797:12800   */\n      dup3\n        /* \"#utility.yul\":12764:12801   */\n      tag_63\n      jump\t// in\n    tag_250:\n        /* \"#utility.yul\":12866:12884   */\n      0xffffffffffffffff\n        /* \"#utility.yul\":12858:12864   */\n      dup2\n        /* \"#utility.yul\":12855:12885   */\n      gt\n        /* \"#utility.yul\":12852:12908   */\n      iszero\n      tag_251\n      jumpi\n        /* \"#utility.yul\":12888:12906   */\n      tag_252\n      tag_82\n      jump\t// in\n    tag_252:\n        /* \"#utility.yul\":12852:12908   */\n    tag_251:\n        /* \"#utility.yul\":12932:12970   */\n      tag_253\n        /* \"#utility.yul\":12964:12968   */\n      dup3\n        /* \"#utility.yul\":12958:12969   */\n      sload\n        /* \"#utility.yul\":12932:12970   */\n      tag_31\n      jump\t// in\n    tag_253:\n        /* \"#utility.yul\":13017:13084   */\n      tag_254\n        /* \"#utility.yul\":13077:13083   */\n      dup3\n        /* \"#utility.yul\":13069:13075   */\n      dup3\n        /* \"#utility.yul\":13063:13067   */\n      dup6\n        /* \"#utility.yul\":13017:13084   */\n      tag_107\n      jump\t// in\n    tag_254:\n        /* \"#utility.yul\":13111:13112   */\n      0x00\n        /* \"#utility.yul\":13135:13139   */\n      0x20\n        /* \"#utility.yul\":13122:13139   */\n      swap1\n      pop\n        /* \"#utility.yul\":13167:13169   */\n      0x1f\n        /* \"#utility.yul\":13159:13165   */\n      dup4\n        /* \"#utility.yul\":13156:13170   */\n      gt\n        /* \"#utility.yul\":13184:13185   */\n      0x01\n        /* \"#utility.yul\":13179:13797   */\n      dup2\n      eq\n      tag_256\n      jumpi\n        /* \"#utility.yul\":13841:13842   */\n      0x00\n        /* \"#utility.yul\":13858:13864   */\n      dup5\n        /* \"#utility.yul\":13855:13932   */\n      iszero\n      tag_257\n      jumpi\n        /* \"#utility.yul\":13907:13916   */\n      dup3\n        /* \"#utility.yul\":13902:13905   */\n      dup8\n        /* \"#utility.yul\":13898:13917   */\n      add\n        /* \"#utility.yul\":13892:13918   */\n      mload\n        /* \"#utility.yul\":13883:13918   */\n      swap1\n      pop\n        /* \"#utility.yul\":13855:13932   */\n    tag_257:\n        /* \"#utility.yul\":13958:14025   */\n      tag_258\n        /* \"#utility.yul\":14018:14024   */\n      dup6\n        /* \"#utility.yul\":14011:14016   */\n      dup3\n        /* \"#utility.yul\":13958:14025   */\n      tag_110\n      jump\t// in\n    tag_258:\n        /* \"#utility.yul\":13952:13956   */\n      dup7\n        /* \"#utility.yul\":13945:14026   */\n      sstore\n        /* \"#utility.yul\":13814:14036   */\n      pop\n        /* \"#utility.yul\":13149:14036   */\n      jump(tag_255)\n        /* \"#utility.yul\":13179:13797   */\n    tag_256:\n        /* \"#utility.yul\":13231:13235   */\n      0x1f\n        /* \"#utility.yul\":13227:13236   */\n      not\n        /* \"#utility.yul\":13219:13225   */\n      dup5\n        /* \"#utility.yul\":13215:13237   */\n      and\n        /* \"#utility.yul\":13265:13302   */\n      tag_259\n        /* \"#utility.yul\":13297:13301   */\n      dup7\n        /* \"#utility.yul\":13265:13302   */\n      tag_96\n      jump\t// in\n    tag_259:\n        /* \"#utility.yul\":13324:13325   */\n      0x00\n        /* \"#utility.yul\":13338:13546   */\n    tag_260:\n        /* \"#utility.yul\":13352:13359   */\n      dup3\n        /* \"#utility.yul\":13349:13350   */\n      dup2\n        /* \"#utility.yul\":13346:13360   */\n      lt\n        /* \"#utility.yul\":13338:13546   */\n      iszero\n      tag_262\n      jumpi\n        /* \"#utility.yul\":13431:13440   */\n      dup5\n        /* \"#utility.yul\":13426:13429   */\n      dup10\n        /* \"#utility.yul\":13422:13441   */\n      add\n        /* \"#utility.yul\":13416:13442   */\n      mload\n        /* \"#utility.yul\":13408:13414   */\n      dup3\n        /* \"#utility.yul\":13401:13443   */\n      sstore\n        /* \"#utility.yul\":13482:13483   */\n      0x01\n        /* \"#utility.yul\":13474:13480   */\n      dup3\n        /* \"#utility.yul\":13470:13484   */\n      add\n        /* \"#utility.yul\":13460:13484   */\n      swap2\n      pop\n        /* \"#utility.yul\":13529:13531   */\n      0x20\n        /* \"#utility.yul\":13518:13527   */\n      dup6\n        /* \"#utility.yul\":13514:13532   */\n      add\n        /* \"#utility.yul\":13501:13532   */\n      swap5\n      pop\n        /* \"#utility.yul\":13375:13379   */\n      0x20\n        /* \"#utility.yul\":13372:13373   */\n      dup2\n        /* \"#utility.yul\":13368:13380   */\n      add\n        /* \"#utility.yul\":13363:13380   */\n      swap1\n      pop\n        /* \"#utility.yul\":13338:13546   */\n      jump(tag_260)\n    tag_262:\n        /* \"#utility.yul\":13574:13580   */\n      dup7\n        /* \"#utility.yul\":13565:13572   */\n      dup4\n        /* \"#utility.yul\":13562:13581   */\n      lt\n        /* \"#utility.yul\":13559:13738   */\n      iszero\n      tag_263\n      jumpi\n        /* \"#utility.yul\":13632:13641   */\n      dup5\n        /* \"#utility.yul\":13627:13630   */\n      dup10\n        /* \"#utility.yul\":13623:13642   */\n      add\n        /* \"#utility.yul\":13617:13643   */\n      mload\n        /* \"#utility.yul\":13675:13723   */\n      tag_264\n        /* \"#utility.yul\":13717:13721   */\n      0x1f\n        /* \"#utility.yul\":13709:13715   */\n      dup10\n        /* \"#utility.yul\":13705:13722   */\n      and\n        /* \"#utility.yul\":13694:13703   */\n      dup3\n        /* \"#utility.yul\":13675:13723   */\n      tag_109\n      jump\t// in\n    tag_264:\n        /* \"#utility.yul\":13667:13673   */\n      dup4\n        /* \"#utility.yul\":13660:13724   */\n      sstore\n        /* \"#utility.yul\":13582:13738   */\n      pop\n        /* \"#utility.yul\":13559:13738   */\n    tag_263:\n        /* \"#utility.yul\":13784:13785   */\n      0x01\n        /* \"#utility.yul\":13780:13781   */\n      0x02\n        /* \"#utility.yul\":13772:13778   */\n      dup9\n        /* \"#utility.yul\":13768:13782   */\n      mul\n        /* \"#utility.yul\":13764:13786   */\n      add\n        /* \"#utility.yul\":13758:13762   */\n      dup9\n        /* \"#utility.yul\":13751:13787   */\n      sstore\n        /* \"#utility.yul\":13186:13797   */\n      pop\n      pop\n      pop\n        /* \"#utility.yul\":13149:14036   */\n    tag_255:\n      pop\n        /* \"#utility.yul\":12739:14042   */\n      pop\n      pop\n      pop\n        /* \"#utility.yul\":12647:14042   */\n      pop\n      pop\n      jump\t// out\n\n    auxdata: 0xa2646970667358221220ed65059d900da0e55e04aa31c42a01846bfaf8bb041adab21d155f52359db88364736f6c63430008190033\n}\n",
				"bytecode": {
					"linkReferences": {},
					"object": "60806040526040518060400160405280600c81526020017f4d6168616e20477572756e6700000000000000000000000000000000000000008152505f90816100479190610293565b50348015610053575f80fd5b50610362565b5f81519050919050565b7f4e487b71000000000000000000000000000000000000000000000000000000005f52604160045260245ffd5b7f4e487b71000000000000000000000000000000000000000000000000000000005f52602260045260245ffd5b5f60028204905060018216806100d457607f821691505b6020821081036100e7576100e6610090565b5b50919050565b5f819050815f5260205f209050919050565b5f6020601f8301049050919050565b5f82821b905092915050565b5f600883026101497fffffffffffffffffffffffffffffffffffffffffffffffffffffffffffffffff8261010e565b610153868361010e565b95508019841693508086168417925050509392505050565b5f819050919050565b5f819050919050565b5f61019761019261018d8461016b565b610174565b61016b565b9050919050565b5f819050919050565b6101b08361017d565b6101c46101bc8261019e565b84845461011a565b825550505050565b5f90565b6101d86101cc565b6101e38184846101a7565b505050565b5b81811015610206576101fb5f826101d0565b6001810190506101e9565b5050565b601f82111561024b5761021c816100ed565b610225846100ff565b81016020851015610234578190505b610248610240856100ff565b8301826101e8565b50505b505050565b5f82821c905092915050565b5f61026b5f1984600802610250565b1980831691505092915050565b5f610283838361025c565b9150826002028217905092915050565b61029c82610059565b67ffffffffffffffff8111156102b5576102b4610063565b5b6102bf82546100bd565b6102ca82828561020a565b5f60209050601f8311600181146102fb575f84156102e9578287015190505b6102f38582610278565b86555061035a565b601f198416610309866100ed565b5f5b828110156103305784890151825560018201915060208501945060208101905061030b565b8683101561034d5784890151610349601f89168261025c565b8355505b6001600288020188555050505b505050505050565b610be88061036f5f395ff3fe608060405260043610610049575f3560e01c806317d7de7c1461004d57806322b731341461007757806332a2c5d0146100935780639384aea4146100bd578063c47f0027146100d9575b5f80fd5b348015610058575f80fd5b50610061610101565b60405161006e91906104bb565b60405180910390f35b610091600480360381019061008c9190610579565b610190565b005b34801561009e575f80fd5b506100a76102d5565b6040516100b491906105e9565b60405180910390f35b6100d760048036038101906100d29190610579565b6102dc565b005b3480156100e4575f80fd5b506100ff60048036038101906100fa919061072e565b610439565b005b60605f805461010f906107a2565b80601f016020809104026020016040519081016040528092919081815260200182805461013b906107a2565b80156101865780601f1061015d57610100808354040283529160200191610186565b820191905f5260205f20905b81548152906001019060200180831161016957829003601f168201915b5050505050905090565b5f828461019d91906107ff565b9050803410156101e2576040517f08c379a00000000000000000000000000000000000000000000000000000000081526004016101d99061088a565b60405180910390fd5b5f3411610224576040517f08c379a000000000000000000000000000000000000000000000000000000000815260040161021b906108f2565b60405180910390fd5b8173ffffffffffffffffffffffffffffffffffffffff166108fc3490811502906040515f60405180830381858888f19350505050158015610267573d5f803e3d5ffd5b508173ffffffffffffffffffffffffffffffffffffffff163373ffffffffffffffffffffffffffffffffffffffff167fb365b2508ba235fc078f2abfa8d8330f334677aa244800ce4f232ced19844dbe34426040516102c792919061091f565b60405180910390a350505050565b5f30905090565b5f82846102e991906107ff565b90505f670de0b6b3a76400008261030091906107ff565b905080341015610345576040517f08c379a000000000000000000000000000000000000000000000000000000000815260040161033c9061088a565b60405180910390fd5b5f3411610387576040517f08c379a000000000000000000000000000000000000000000000000000000000815260040161037e906108f2565b60405180910390fd5b8273ffffffffffffffffffffffffffffffffffffffff166108fc8290811502906040515f60405180830381858888f193505050501580156103ca573d5f803e3d5ffd5b508273ffffffffffffffffffffffffffffffffffffffff163373ffffffffffffffffffffffffffffffffffffffff167fb365b2508ba235fc078f2abfa8d8330f334677aa244800ce4f232ced19844dbe834260405161042a92919061091f565b60405180910390a35050505050565b805f90816104479190610ae3565b5050565b5f81519050919050565b5f82825260208201905092915050565b8281835e5f83830152505050565b5f601f19601f8301169050919050565b5f61048d8261044b565b6104978185610455565b93506104a7818560208601610465565b6104b081610473565b840191505092915050565b5f6020820190508181035f8301526104d38184610483565b905092915050565b5f604051905090565b5f80fd5b5f80fd5b5f819050919050565b6104fe816104ec565b8114610508575f80fd5b50565b5f81359050610519816104f5565b92915050565b5f73ffffffffffffffffffffffffffffffffffffffff82169050919050565b5f6105488261051f565b9050919050565b6105588161053e565b8114610562575f80fd5b50565b5f813590506105738161054f565b92915050565b5f805f606084860312156105905761058f6104e4565b5b5f61059d8682870161050b565b93505060206105ae8682870161050b565b92505060406105bf86828701610565565b9150509250925092565b5f6105d38261051f565b9050919050565b6105e3816105c9565b82525050565b5f6020820190506105fc5f8301846105da565b92915050565b5f80fd5b5f80fd5b7f4e487b71000000000000000000000000000000000000000000000000000000005f52604160045260245ffd5b61064082610473565b810181811067ffffffffffffffff8211171561065f5761065e61060a565b5b80604052505050565b5f6106716104db565b905061067d8282610637565b919050565b5f67ffffffffffffffff82111561069c5761069b61060a565b5b6106a582610473565b9050602081019050919050565b828183375f83830152505050565b5f6106d26106cd84610682565b610668565b9050828152602081018484840111156106ee576106ed610606565b5b6106f98482856106b2565b509392505050565b5f82601f83011261071557610714610602565b5b81356107258482602086016106c0565b91505092915050565b5f60208284031215610743576107426104e4565b5b5f82013567ffffffffffffffff8111156107605761075f6104e8565b5b61076c84828501610701565b91505092915050565b7f4e487b71000000000000000000000000000000000000000000000000000000005f52602260045260245ffd5b5f60028204905060018216806107b957607f821691505b6020821081036107cc576107cb610775565b5b50919050565b7f4e487b71000000000000000000000000000000000000000000000000000000005f52601160045260245ffd5b5f610809826104ec565b9150610814836104ec565b9250828202610822816104ec565b91508282048414831517610839576108386107d2565b5b5092915050565b7f4e6f7420656e6f756768742070726963650000000000000000000000000000005f82015250565b5f610874601183610455565b915061087f82610840565b602082019050919050565b5f6020820190508181035f8301526108a181610868565b9050919050565b7f53656e6420736f6d6520455448000000000000000000000000000000000000005f82015250565b5f6108dc600d83610455565b91506108e7826108a8565b602082019050919050565b5f6020820190508181035f830152610909816108d0565b9050919050565b610919816104ec565b82525050565b5f6040820190506109325f830185610910565b61093f6020830184610910565b9392505050565b5f819050815f5260205f209050919050565b5f6020601f8301049050919050565b5f82821b905092915050565b5f600883026109a27fffffffffffffffffffffffffffffffffffffffffffffffffffffffffffffffff82610967565b6109ac8683610967565b95508019841693508086168417925050509392505050565b5f819050919050565b5f6109e76109e26109dd846104ec565b6109c4565b6104ec565b9050919050565b5f819050919050565b610a00836109cd565b610a14610a0c826109ee565b848454610973565b825550505050565b5f90565b610a28610a1c565b610a338184846109f7565b505050565b5b81811015610a5657610a4b5f82610a20565b600181019050610a39565b5050565b601f821115610a9b57610a6c81610946565b610a7584610958565b81016020851015610a84578190505b610a98610a9085610958565b830182610a38565b50505b505050565b5f82821c905092915050565b5f610abb5f1984600802610aa0565b1980831691505092915050565b5f610ad38383610aac565b9150826002028217905092915050565b610aec8261044b565b67ffffffffffffffff811115610b0557610b0461060a565b5b610b0f82546107a2565b610b1a828285610a5a565b5f60209050601f831160018114610b4b575f8415610b39578287015190505b610b438582610ac8565b865550610baa565b601f198416610b5986610946565b5f5b82811015610b8057848901518255600182019150602085019450602081019050610b5b565b86831015610b9d5784890151610b99601f891682610aac565b8355505b6001600288020188555050505b50505050505056fea2646970667358221220ed65059d900da0e55e04aa31c42a01846bfaf8bb041adab21d155f52359db88364736f6c63430008190033",
					"opcodes": "PUSH1 0x80 PUSH1 0x40 MSTORE PUSH1 0x40 MLOAD DUP1 PUSH1 0x40 ADD PUSH1 0x40 MSTORE DUP1 PUSH1 0xC DUP2 MSTORE PUSH1 0x20 ADD PUSH32 0x4D6168616E20477572756E670000000000000000000000000000000000000000 DUP2 MSTORE POP PUSH0 SWAP1 DUP2 PUSH2 0x47 SWAP2 SWAP1 PUSH2 0x293 JUMP JUMPDEST POP CALLVALUE DUP1 ISZERO PUSH2 0x53 JUMPI PUSH0 DUP1 REVERT JUMPDEST POP PUSH2 0x362 JUMP JUMPDEST PUSH0 DUP2 MLOAD SWAP1 POP SWAP2 SWAP1 POP JUMP JUMPDEST PUSH32 0x4E487B7100000000000000000000000000000000000000000000000000000000 PUSH0 MSTORE PUSH1 0x41 PUSH1 0x4 MSTORE PUSH1 0x24 PUSH0 REVERT JUMPDEST PUSH32 0x4E487B7100000000000000000000000000000000000000000000000000000000 PUSH0 MSTORE PUSH1 0x22 PUSH1 0x4 MSTORE PUSH1 0x24 PUSH0 REVERT JUMPDEST PUSH0 PUSH1 0x2 DUP3 DIV SWAP1 POP PUSH1 0x1 DUP3 AND DUP1 PUSH2 0xD4 JUMPI PUSH1 0x7F DUP3 AND SWAP2 POP JUMPDEST PUSH1 0x20 DUP3 LT DUP2 SUB PUSH2 0xE7 JUMPI PUSH2 0xE6 PUSH2 0x90 JUMP JUMPDEST JUMPDEST POP SWAP2 SWAP1 POP JUMP JUMPDEST PUSH0 DUP2 SWAP1 POP DUP2 PUSH0 MSTORE PUSH1 0x20 PUSH0 KECCAK256 SWAP1 POP SWAP2 SWAP1 POP JUMP JUMPDEST PUSH0 PUSH1 0x20 PUSH1 0x1F DUP4 ADD DIV SWAP1 POP SWAP2 SWAP1 POP JUMP JUMPDEST PUSH0 DUP3 DUP3 SHL SWAP1 POP SWAP3 SWAP2 POP POP JUMP JUMPDEST PUSH0 PUSH1 0x8 DUP4 MUL PUSH2 0x149 PUSH32 0xFFFFFFFFFFFFFFFFFFFFFFFFFFFFFFFFFFFFFFFFFFFFFFFFFFFFFFFFFFFFFFFF DUP3 PUSH2 0x10E JUMP JUMPDEST PUSH2 0x153 DUP7 DUP4 PUSH2 0x10E JUMP JUMPDEST SWAP6 POP DUP1 NOT DUP5 AND SWAP4 POP DUP1 DUP7 AND DUP5 OR SWAP3 POP POP POP SWAP4 SWAP3 POP POP POP JUMP JUMPDEST PUSH0 DUP2 SWAP1 POP SWAP2 SWAP1 POP JUMP JUMPDEST PUSH0 DUP2 SWAP1 POP SWAP2 SWAP1 POP JUMP JUMPDEST PUSH0 PUSH2 0x197 PUSH2 0x192 PUSH2 0x18D DUP5 PUSH2 0x16B JUMP JUMPDEST PUSH2 0x174 JUMP JUMPDEST PUSH2 0x16B JUMP JUMPDEST SWAP1 POP SWAP2 SWAP1 POP JUMP JUMPDEST PUSH0 DUP2 SWAP1 POP SWAP2 SWAP1 POP JUMP JUMPDEST PUSH2 0x1B0 DUP4 PUSH2 0x17D JUMP JUMPDEST PUSH2 0x1C4 PUSH2 0x1BC DUP3 PUSH2 0x19E JUMP JUMPDEST DUP5 DUP5 SLOAD PUSH2 0x11A JUMP JUMPDEST DUP3 SSTORE POP POP POP POP JUMP JUMPDEST PUSH0 SWAP1 JUMP JUMPDEST PUSH2 0x1D8 PUSH2 0x1CC JUMP JUMPDEST PUSH2 0x1E3 DUP2 DUP5 DUP5 PUSH2 0x1A7 JUMP JUMPDEST POP POP POP JUMP JUMPDEST JUMPDEST DUP2 DUP2 LT ISZERO PUSH2 0x206 JUMPI PUSH2 0x1FB PUSH0 DUP3 PUSH2 0x1D0 JUMP JUMPDEST PUSH1 0x1 DUP2 ADD SWAP1 POP PUSH2 0x1E9 JUMP JUMPDEST POP POP JUMP JUMPDEST PUSH1 0x1F DUP3 GT ISZERO PUSH2 0x24B JUMPI PUSH2 0x21C DUP2 PUSH2 0xED JUMP JUMPDEST PUSH2 0x225 DUP5 PUSH2 0xFF JUMP JUMPDEST DUP2 ADD PUSH1 0x20 DUP6 LT ISZERO PUSH2 0x234 JUMPI DUP2 SWAP1 POP JUMPDEST PUSH2 0x248 PUSH2 0x240 DUP6 PUSH2 0xFF JUMP JUMPDEST DUP4 ADD DUP3 PUSH2 0x1E8 JUMP JUMPDEST POP POP JUMPDEST POP POP POP JUMP JUMPDEST PUSH0 DUP3 DUP3 SHR SWAP1 POP SWAP3 SWAP2 POP POP JUMP JUMPDEST PUSH0 PUSH2 0x26B PUSH0 NOT DUP5 PUSH1 0x8 MUL PUSH2 0x250 JUMP JUMPDEST NOT DUP1 DUP4 AND SWAP2 POP POP SWAP3 SWAP2 POP POP JUMP JUMPDEST PUSH0 PUSH2 0x283 DUP4 DUP4 PUSH2 0x25C JUMP JUMPDEST SWAP2 POP DUP3 PUSH1 0x2 MUL DUP3 OR SWAP1 POP SWAP3 SWAP2 POP POP JUMP JUMPDEST PUSH2 0x29C DUP3 PUSH2 0x59 JUMP JUMPDEST PUSH8 0xFFFFFFFFFFFFFFFF DUP2 GT ISZERO PUSH2 0x2B5 JUMPI PUSH2 0x2B4 PUSH2 0x63 JUMP JUMPDEST JUMPDEST PUSH2 0x2BF DUP3 SLOAD PUSH2 0xBD JUMP JUMPDEST PUSH2 0x2CA DUP3 DUP3 DUP6 PUSH2 0x20A JUMP JUMPDEST PUSH0 PUSH1 0x20 SWAP1 POP PUSH1 0x1F DUP4 GT PUSH1 0x1 DUP2 EQ PUSH2 0x2FB JUMPI PUSH0 DUP5 ISZERO PUSH2 0x2E9 JUMPI DUP3 DUP8 ADD MLOAD SWAP1 POP JUMPDEST PUSH2 0x2F3 DUP6 DUP3 PUSH2 0x278 JUMP JUMPDEST DUP7 SSTORE POP PUSH2 0x35A JUMP JUMPDEST PUSH1 0x1F NOT DUP5 AND PUSH2 0x309 DUP7 PUSH2 0xED JUMP JUMPDEST PUSH0 JUMPDEST DUP3 DUP2 LT ISZERO PUSH2 0x330 JUMPI DUP5 DUP10 ADD MLOAD DUP3 SSTORE PUSH1 0x1 DUP3 ADD SWAP2 POP PUSH1 0x20 DUP6 ADD SWAP5 POP PUSH1 0x20 DUP2 ADD SWAP1 POP PUSH2 0x30B JUMP JUMPDEST DUP7 DUP4 LT ISZERO PUSH2 0x34D JUMPI DUP5 DUP10 ADD MLOAD PUSH2 0x349 PUSH1 0x1F DUP10 AND DUP3 PUSH2 0x25C JUMP JUMPDEST DUP4 SSTORE POP JUMPDEST PUSH1 0x1 PUSH1 0x2 DUP9 MUL ADD DUP9 SSTORE POP POP POP JUMPDEST POP POP POP POP POP POP JUMP JUMPDEST PUSH2 0xBE8 DUP1 PUSH2 0x36F PUSH0 CODECOPY PUSH0 RETURN INVALID PUSH1 0x80 PUSH1 0x40 MSTORE PUSH1 0x4 CALLDATASIZE LT PUSH2 0x49 JUMPI PUSH0 CALLDATALOAD PUSH1 0xE0 SHR DUP1 PUSH4 0x17D7DE7C EQ PUSH2 0x4D JUMPI DUP1 PUSH4 0x22B73134 EQ PUSH2 0x77 JUMPI DUP1 PUSH4 0x32A2C5D0 EQ PUSH2 0x93 JUMPI DUP1 PUSH4 0x9384AEA4 EQ PUSH2 0xBD JUMPI DUP1 PUSH4 0xC47F0027 EQ PUSH2 0xD9 JUMPI JUMPDEST PUSH0 DUP1 REVERT JUMPDEST CALLVALUE DUP1 ISZERO PUSH2 0x58 JUMPI PUSH0 DUP1 REVERT JUMPDEST POP PUSH2 0x61 PUSH2 0x101 JUMP JUMPDEST PUSH1 0x40 MLOAD PUSH2 0x6E SWAP2 SWAP1 PUSH2 0x4BB JUMP JUMPDEST PUSH1 0x40 MLOAD DUP1 SWAP2 SUB SWAP1 RETURN JUMPDEST PUSH2 0x91 PUSH1 0x4 DUP1 CALLDATASIZE SUB DUP2 ADD SWAP1 PUSH2 0x8C SWAP2 SWAP1 PUSH2 0x579 JUMP JUMPDEST PUSH2 0x190 JUMP JUMPDEST STOP JUMPDEST CALLVALUE DUP1 ISZERO PUSH2 0x9E JUMPI PUSH0 DUP1 REVERT JUMPDEST POP PUSH2 0xA7 PUSH2 0x2D5 JUMP JUMPDEST PUSH1 0x40 MLOAD PUSH2 0xB4 SWAP2 SWAP1 PUSH2 0x5E9 JUMP JUMPDEST PUSH1 0x40 MLOAD DUP1 SWAP2 SUB SWAP1 RETURN JUMPDEST PUSH2 0xD7 PUSH1 0x4 DUP1 CALLDATASIZE SUB DUP2 ADD SWAP1 PUSH2 0xD2 SWAP2 SWAP1 PUSH2 0x579 JUMP JUMPDEST PUSH2 0x2DC JUMP JUMPDEST STOP JUMPDEST CALLVALUE DUP1 ISZERO PUSH2 0xE4 JUMPI PUSH0 DUP1 REVERT JUMPDEST POP PUSH2 0xFF PUSH1 0x4 DUP1 CALLDATASIZE SUB DUP2 ADD SWAP1 PUSH2 0xFA SWAP2 SWAP1 PUSH2 0x72E JUMP JUMPDEST PUSH2 0x439 JUMP JUMPDEST STOP JUMPDEST PUSH1 0x60 PUSH0 DUP1 SLOAD PUSH2 0x10F SWAP1 PUSH2 0x7A2 JUMP JUMPDEST DUP1 PUSH1 0x1F ADD PUSH1 0x20 DUP1 SWAP2 DIV MUL PUSH1 0x20 ADD PUSH1 0x40 MLOAD SWAP1 DUP2 ADD PUSH1 0x40 MSTORE DUP1 SWAP3 SWAP2 SWAP1 DUP2 DUP2 MSTORE PUSH1 0x20 ADD DUP3 DUP1 SLOAD PUSH2 0x13B SWAP1 PUSH2 0x7A2 JUMP JUMPDEST DUP1 ISZERO PUSH2 0x186 JUMPI DUP1 PUSH1 0x1F LT PUSH2 0x15D JUMPI PUSH2 0x100 DUP1 DUP4 SLOAD DIV MUL DUP4 MSTORE SWAP2 PUSH1 0x20 ADD SWAP2 PUSH2 0x186 JUMP JUMPDEST DUP3 ADD SWAP2 SWAP1 PUSH0 MSTORE PUSH1 0x20 PUSH0 KECCAK256 SWAP1 JUMPDEST DUP2 SLOAD DUP2 MSTORE SWAP1 PUSH1 0x1 ADD SWAP1 PUSH1 0x20 ADD DUP1 DUP4 GT PUSH2 0x169 JUMPI DUP3 SWAP1 SUB PUSH1 0x1F AND DUP3 ADD SWAP2 JUMPDEST POP POP POP POP POP SWAP1 POP SWAP1 JUMP JUMPDEST PUSH0 DUP3 DUP5 PUSH2 0x19D SWAP2 SWAP1 PUSH2 0x7FF JUMP JUMPDEST SWAP1 POP DUP1 CALLVALUE LT ISZERO PUSH2 0x1E2 JUMPI PUSH1 0x40 MLOAD PUSH32 0x8C379A000000000000000000000000000000000000000000000000000000000 DUP2 MSTORE PUSH1 0x4 ADD PUSH2 0x1D9 SWAP1 PUSH2 0x88A JUMP JUMPDEST PUSH1 0x40 MLOAD DUP1 SWAP2 SUB SWAP1 REVERT JUMPDEST PUSH0 CALLVALUE GT PUSH2 0x224 JUMPI PUSH1 0x40 MLOAD PUSH32 0x8C379A000000000000000000000000000000000000000000000000000000000 DUP2 MSTORE PUSH1 0x4 ADD PUSH2 0x21B SWAP1 PUSH2 0x8F2 JUMP JUMPDEST PUSH1 0x40 MLOAD DUP1 SWAP2 SUB SWAP1 REVERT JUMPDEST DUP2 PUSH20 0xFFFFFFFFFFFFFFFFFFFFFFFFFFFFFFFFFFFFFFFF AND PUSH2 0x8FC CALLVALUE SWAP1 DUP2 ISZERO MUL SWAP1 PUSH1 0x40 MLOAD PUSH0 PUSH1 0x40 MLOAD DUP1 DUP4 SUB DUP2 DUP6 DUP9 DUP9 CALL SWAP4 POP POP POP POP ISZERO DUP1 ISZERO PUSH2 0x267 JUMPI RETURNDATASIZE PUSH0 DUP1 RETURNDATACOPY RETURNDATASIZE PUSH0 REVERT JUMPDEST POP DUP2 PUSH20 0xFFFFFFFFFFFFFFFFFFFFFFFFFFFFFFFFFFFFFFFF AND CALLER PUSH20 0xFFFFFFFFFFFFFFFFFFFFFFFFFFFFFFFFFFFFFFFF AND PUSH32 0xB365B2508BA235FC078F2ABFA8D8330F334677AA244800CE4F232CED19844DBE CALLVALUE TIMESTAMP PUSH1 0x40 MLOAD PUSH2 0x2C7 SWAP3 SWAP2 SWAP1 PUSH2 0x91F JUMP JUMPDEST PUSH1 0x40 MLOAD DUP1 SWAP2 SUB SWAP1 LOG3 POP POP POP POP JUMP JUMPDEST PUSH0 ADDRESS SWAP1 POP SWAP1 JUMP JUMPDEST PUSH0 DUP3 DUP5 PUSH2 0x2E9 SWAP2 SWAP1 PUSH2 0x7FF JUMP JUMPDEST SWAP1 POP PUSH0 PUSH8 0xDE0B6B3A7640000 DUP3 PUSH2 0x300 SWAP2 SWAP1 PUSH2 0x7FF JUMP JUMPDEST SWAP1 POP DUP1 CALLVALUE LT ISZERO PUSH2 0x345 JUMPI PUSH1 0x40 MLOAD PUSH32 0x8C379A000000000000000000000000000000000000000000000000000000000 DUP2 MSTORE PUSH1 0x4 ADD PUSH2 0x33C SWAP1 PUSH2 0x88A JUMP JUMPDEST PUSH1 0x40 MLOAD DUP1 SWAP2 SUB SWAP1 REVERT JUMPDEST PUSH0 CALLVALUE GT PUSH2 0x387 JUMPI PUSH1 0x40 MLOAD PUSH32 0x8C379A000000000000000000000000000000000000000000000000000000000 DUP2 MSTORE PUSH1 0x4 ADD PUSH2 0x37E SWAP1 PUSH2 0x8F2 JUMP JUMPDEST PUSH1 0x40 MLOAD DUP1 SWAP2 SUB SWAP1 REVERT JUMPDEST DUP3 PUSH20 0xFFFFFFFFFFFFFFFFFFFFFFFFFFFFFFFFFFFFFFFF AND PUSH2 0x8FC DUP3 SWAP1 DUP2 ISZERO MUL SWAP1 PUSH1 0x40 MLOAD PUSH0 PUSH1 0x40 MLOAD DUP1 DUP4 SUB DUP2 DUP6 DUP9 DUP9 CALL SWAP4 POP POP POP POP ISZERO DUP1 ISZERO PUSH2 0x3CA JUMPI RETURNDATASIZE PUSH0 DUP1 RETURNDATACOPY RETURNDATASIZE PUSH0 REVERT JUMPDEST POP DUP3 PUSH20 0xFFFFFFFFFFFFFFFFFFFFFFFFFFFFFFFFFFFFFFFF AND CALLER PUSH20 0xFFFFFFFFFFFFFFFFFFFFFFFFFFFFFFFFFFFFFFFF AND PUSH32 0xB365B2508BA235FC078F2ABFA8D8330F334677AA244800CE4F232CED19844DBE DUP4 TIMESTAMP PUSH1 0x40 MLOAD PUSH2 0x42A SWAP3 SWAP2 SWAP1 PUSH2 0x91F JUMP JUMPDEST PUSH1 0x40 MLOAD DUP1 SWAP2 SUB SWAP1 LOG3 POP POP POP POP POP JUMP JUMPDEST DUP1 PUSH0 SWAP1 DUP2 PUSH2 0x447 SWAP2 SWAP1 PUSH2 0xAE3 JUMP JUMPDEST POP POP JUMP JUMPDEST PUSH0 DUP2 MLOAD SWAP1 POP SWAP2 SWAP1 POP JUMP JUMPDEST PUSH0 DUP3 DUP3 MSTORE PUSH1 0x20 DUP3 ADD SWAP1 POP SWAP3 SWAP2 POP POP JUMP JUMPDEST DUP3 DUP2 DUP4 MCOPY PUSH0 DUP4 DUP4 ADD MSTORE POP POP POP JUMP JUMPDEST PUSH0 PUSH1 0x1F NOT PUSH1 0x1F DUP4 ADD AND SWAP1 POP SWAP2 SWAP1 POP JUMP JUMPDEST PUSH0 PUSH2 0x48D DUP3 PUSH2 0x44B JUMP JUMPDEST PUSH2 0x497 DUP2 DUP6 PUSH2 0x455 JUMP JUMPDEST SWAP4 POP PUSH2 0x4A7 DUP2 DUP6 PUSH1 0x20 DUP7 ADD PUSH2 0x465 JUMP JUMPDEST PUSH2 0x4B0 DUP2 PUSH2 0x473 JUMP JUMPDEST DUP5 ADD SWAP2 POP POP SWAP3 SWAP2 POP POP JUMP JUMPDEST PUSH0 PUSH1 0x20 DUP3 ADD SWAP1 POP DUP2 DUP2 SUB PUSH0 DUP4 ADD MSTORE PUSH2 0x4D3 DUP2 DUP5 PUSH2 0x483 JUMP JUMPDEST SWAP1 POP SWAP3 SWAP2 POP POP JUMP JUMPDEST PUSH0 PUSH1 0x40 MLOAD SWAP1 POP SWAP1 JUMP JUMPDEST PUSH0 DUP1 REVERT JUMPDEST PUSH0 DUP1 REVERT JUMPDEST PUSH0 DUP2 SWAP1 POP SWAP2 SWAP1 POP JUMP JUMPDEST PUSH2 0x4FE DUP2 PUSH2 0x4EC JUMP JUMPDEST DUP2 EQ PUSH2 0x508 JUMPI PUSH0 DUP1 REVERT JUMPDEST POP JUMP JUMPDEST PUSH0 DUP2 CALLDATALOAD SWAP1 POP PUSH2 0x519 DUP2 PUSH2 0x4F5 JUMP JUMPDEST SWAP3 SWAP2 POP POP JUMP JUMPDEST PUSH0 PUSH20 0xFFFFFFFFFFFFFFFFFFFFFFFFFFFFFFFFFFFFFFFF DUP3 AND SWAP1 POP SWAP2 SWAP1 POP JUMP JUMPDEST PUSH0 PUSH2 0x548 DUP3 PUSH2 0x51F JUMP JUMPDEST SWAP1 POP SWAP2 SWAP1 POP JUMP JUMPDEST PUSH2 0x558 DUP2 PUSH2 0x53E JUMP JUMPDEST DUP2 EQ PUSH2 0x562 JUMPI PUSH0 DUP1 REVERT JUMPDEST POP JUMP JUMPDEST PUSH0 DUP2 CALLDATALOAD SWAP1 POP PUSH2 0x573 DUP2 PUSH2 0x54F JUMP JUMPDEST SWAP3 SWAP2 POP POP JUMP JUMPDEST PUSH0 DUP1 PUSH0 PUSH1 0x60 DUP5 DUP7 SUB SLT ISZERO PUSH2 0x590 JUMPI PUSH2 0x58F PUSH2 0x4E4 JUMP JUMPDEST JUMPDEST PUSH0 PUSH2 0x59D DUP7 DUP3 DUP8 ADD PUSH2 0x50B JUMP JUMPDEST SWAP4 POP POP PUSH1 0x20 PUSH2 0x5AE DUP7 DUP3 DUP8 ADD PUSH2 0x50B JUMP JUMPDEST SWAP3 POP POP PUSH1 0x40 PUSH2 0x5BF DUP7 DUP3 DUP8 ADD PUSH2 0x565 JUMP JUMPDEST SWAP2 POP POP SWAP3 POP SWAP3 POP SWAP3 JUMP JUMPDEST PUSH0 PUSH2 0x5D3 DUP3 PUSH2 0x51F JUMP JUMPDEST SWAP1 POP SWAP2 SWAP1 POP JUMP JUMPDEST PUSH2 0x5E3 DUP2 PUSH2 0x5C9 JUMP JUMPDEST DUP3 MSTORE POP POP JUMP JUMPDEST PUSH0 PUSH1 0x20 DUP3 ADD SWAP1 POP PUSH2 0x5FC PUSH0 DUP4 ADD DUP5 PUSH2 0x5DA JUMP JUMPDEST SWAP3 SWAP2 POP POP JUMP JUMPDEST PUSH0 DUP1 REVERT JUMPDEST PUSH0 DUP1 REVERT JUMPDEST PUSH32 0x4E487B7100000000000000000000000000000000000000000000000000000000 PUSH0 MSTORE PUSH1 0x41 PUSH1 0x4 MSTORE PUSH1 0x24 PUSH0 REVERT JUMPDEST PUSH2 0x640 DUP3 PUSH2 0x473 JUMP JUMPDEST DUP2 ADD DUP2 DUP2 LT PUSH8 0xFFFFFFFFFFFFFFFF DUP3 GT OR ISZERO PUSH2 0x65F JUMPI PUSH2 0x65E PUSH2 0x60A JUMP JUMPDEST JUMPDEST DUP1 PUSH1 0x40 MSTORE POP POP POP JUMP JUMPDEST PUSH0 PUSH2 0x671 PUSH2 0x4DB JUMP JUMPDEST SWAP1 POP PUSH2 0x67D DUP3 DUP3 PUSH2 0x637 JUMP JUMPDEST SWAP2 SWAP1 POP JUMP JUMPDEST PUSH0 PUSH8 0xFFFFFFFFFFFFFFFF DUP3 GT ISZERO PUSH2 0x69C JUMPI PUSH2 0x69B PUSH2 0x60A JUMP JUMPDEST JUMPDEST PUSH2 0x6A5 DUP3 PUSH2 0x473 JUMP JUMPDEST SWAP1 POP PUSH1 0x20 DUP2 ADD SWAP1 POP SWAP2 SWAP1 POP JUMP JUMPDEST DUP3 DUP2 DUP4 CALLDATACOPY PUSH0 DUP4 DUP4 ADD MSTORE POP POP POP JUMP JUMPDEST PUSH0 PUSH2 0x6D2 PUSH2 0x6CD DUP5 PUSH2 0x682 JUMP JUMPDEST PUSH2 0x668 JUMP JUMPDEST SWAP1 POP DUP3 DUP2 MSTORE PUSH1 0x20 DUP2 ADD DUP5 DUP5 DUP5 ADD GT ISZERO PUSH2 0x6EE JUMPI PUSH2 0x6ED PUSH2 0x606 JUMP JUMPDEST JUMPDEST PUSH2 0x6F9 DUP5 DUP3 DUP6 PUSH2 0x6B2 JUMP JUMPDEST POP SWAP4 SWAP3 POP POP POP JUMP JUMPDEST PUSH0 DUP3 PUSH1 0x1F DUP4 ADD SLT PUSH2 0x715 JUMPI PUSH2 0x714 PUSH2 0x602 JUMP JUMPDEST JUMPDEST DUP2 CALLDATALOAD PUSH2 0x725 DUP5 DUP3 PUSH1 0x20 DUP7 ADD PUSH2 0x6C0 JUMP JUMPDEST SWAP2 POP POP SWAP3 SWAP2 POP POP JUMP JUMPDEST PUSH0 PUSH1 0x20 DUP3 DUP5 SUB SLT ISZERO PUSH2 0x743 JUMPI PUSH2 0x742 PUSH2 0x4E4 JUMP JUMPDEST JUMPDEST PUSH0 DUP3 ADD CALLDATALOAD PUSH8 0xFFFFFFFFFFFFFFFF DUP2 GT ISZERO PUSH2 0x760 JUMPI PUSH2 0x75F PUSH2 0x4E8 JUMP JUMPDEST JUMPDEST PUSH2 0x76C DUP5 DUP3 DUP6 ADD PUSH2 0x701 JUMP JUMPDEST SWAP2 POP POP SWAP3 SWAP2 POP POP JUMP JUMPDEST PUSH32 0x4E487B7100000000000000000000000000000000000000000000000000000000 PUSH0 MSTORE PUSH1 0x22 PUSH1 0x4 MSTORE PUSH1 0x24 PUSH0 REVERT JUMPDEST PUSH0 PUSH1 0x2 DUP3 DIV SWAP1 POP PUSH1 0x1 DUP3 AND DUP1 PUSH2 0x7B9 JUMPI PUSH1 0x7F DUP3 AND SWAP2 POP JUMPDEST PUSH1 0x20 DUP3 LT DUP2 SUB PUSH2 0x7CC JUMPI PUSH2 0x7CB PUSH2 0x775 JUMP JUMPDEST JUMPDEST POP SWAP2 SWAP1 POP JUMP JUMPDEST PUSH32 0x4E487B7100000000000000000000000000000000000000000000000000000000 PUSH0 MSTORE PUSH1 0x11 PUSH1 0x4 MSTORE PUSH1 0x24 PUSH0 REVERT JUMPDEST PUSH0 PUSH2 0x809 DUP3 PUSH2 0x4EC JUMP JUMPDEST SWAP2 POP PUSH2 0x814 DUP4 PUSH2 0x4EC JUMP JUMPDEST SWAP3 POP DUP3 DUP3 MUL PUSH2 0x822 DUP2 PUSH2 0x4EC JUMP JUMPDEST SWAP2 POP DUP3 DUP3 DIV DUP5 EQ DUP4 ISZERO OR PUSH2 0x839 JUMPI PUSH2 0x838 PUSH2 0x7D2 JUMP JUMPDEST JUMPDEST POP SWAP3 SWAP2 POP POP JUMP JUMPDEST PUSH32 0x4E6F7420656E6F75676874207072696365000000000000000000000000000000 PUSH0 DUP3 ADD MSTORE POP JUMP JUMPDEST PUSH0 PUSH2 0x874 PUSH1 0x11 DUP4 PUSH2 0x455 JUMP JUMPDEST SWAP2 POP PUSH2 0x87F DUP3 PUSH2 0x840 JUMP JUMPDEST PUSH1 0x20 DUP3 ADD SWAP1 POP SWAP2 SWAP1 POP JUMP JUMPDEST PUSH0 PUSH1 0x20 DUP3 ADD SWAP1 POP DUP2 DUP2 SUB PUSH0 DUP4 ADD MSTORE PUSH2 0x8A1 DUP2 PUSH2 0x868 JUMP JUMPDEST SWAP1 POP SWAP2 SWAP1 POP JUMP JUMPDEST PUSH32 0x53656E6420736F6D652045544800000000000000000000000000000000000000 PUSH0 DUP3 ADD MSTORE POP JUMP JUMPDEST PUSH0 PUSH2 0x8DC PUSH1 0xD DUP4 PUSH2 0x455 JUMP JUMPDEST SWAP2 POP PUSH2 0x8E7 DUP3 PUSH2 0x8A8 JUMP JUMPDEST PUSH1 0x20 DUP3 ADD SWAP1 POP SWAP2 SWAP1 POP JUMP JUMPDEST PUSH0 PUSH1 0x20 DUP3 ADD SWAP1 POP DUP2 DUP2 SUB PUSH0 DUP4 ADD MSTORE PUSH2 0x909 DUP2 PUSH2 0x8D0 JUMP JUMPDEST SWAP1 POP SWAP2 SWAP1 POP JUMP JUMPDEST PUSH2 0x919 DUP2 PUSH2 0x4EC JUMP JUMPDEST DUP3 MSTORE POP POP JUMP JUMPDEST PUSH0 PUSH1 0x40 DUP3 ADD SWAP1 POP PUSH2 0x932 PUSH0 DUP4 ADD DUP6 PUSH2 0x910 JUMP JUMPDEST PUSH2 0x93F PUSH1 0x20 DUP4 ADD DUP5 PUSH2 0x910 JUMP JUMPDEST SWAP4 SWAP3 POP POP POP JUMP JUMPDEST PUSH0 DUP2 SWAP1 POP DUP2 PUSH0 MSTORE PUSH1 0x20 PUSH0 KECCAK256 SWAP1 POP SWAP2 SWAP1 POP JUMP JUMPDEST PUSH0 PUSH1 0x20 PUSH1 0x1F DUP4 ADD DIV SWAP1 POP SWAP2 SWAP1 POP JUMP JUMPDEST PUSH0 DUP3 DUP3 SHL SWAP1 POP SWAP3 SWAP2 POP POP JUMP JUMPDEST PUSH0 PUSH1 0x8 DUP4 MUL PUSH2 0x9A2 PUSH32 0xFFFFFFFFFFFFFFFFFFFFFFFFFFFFFFFFFFFFFFFFFFFFFFFFFFFFFFFFFFFFFFFF DUP3 PUSH2 0x967 JUMP JUMPDEST PUSH2 0x9AC DUP7 DUP4 PUSH2 0x967 JUMP JUMPDEST SWAP6 POP DUP1 NOT DUP5 AND SWAP4 POP DUP1 DUP7 AND DUP5 OR SWAP3 POP POP POP SWAP4 SWAP3 POP POP POP JUMP JUMPDEST PUSH0 DUP2 SWAP1 POP SWAP2 SWAP1 POP JUMP JUMPDEST PUSH0 PUSH2 0x9E7 PUSH2 0x9E2 PUSH2 0x9DD DUP5 PUSH2 0x4EC JUMP JUMPDEST PUSH2 0x9C4 JUMP JUMPDEST PUSH2 0x4EC JUMP JUMPDEST SWAP1 POP SWAP2 SWAP1 POP JUMP JUMPDEST PUSH0 DUP2 SWAP1 POP SWAP2 SWAP1 POP JUMP JUMPDEST PUSH2 0xA00 DUP4 PUSH2 0x9CD JUMP JUMPDEST PUSH2 0xA14 PUSH2 0xA0C DUP3 PUSH2 0x9EE JUMP JUMPDEST DUP5 DUP5 SLOAD PUSH2 0x973 JUMP JUMPDEST DUP3 SSTORE POP POP POP POP JUMP JUMPDEST PUSH0 SWAP1 JUMP JUMPDEST PUSH2 0xA28 PUSH2 0xA1C JUMP JUMPDEST PUSH2 0xA33 DUP2 DUP5 DUP5 PUSH2 0x9F7 JUMP JUMPDEST POP POP POP JUMP JUMPDEST JUMPDEST DUP2 DUP2 LT ISZERO PUSH2 0xA56 JUMPI PUSH2 0xA4B PUSH0 DUP3 PUSH2 0xA20 JUMP JUMPDEST PUSH1 0x1 DUP2 ADD SWAP1 POP PUSH2 0xA39 JUMP JUMPDEST POP POP JUMP JUMPDEST PUSH1 0x1F DUP3 GT ISZERO PUSH2 0xA9B JUMPI PUSH2 0xA6C DUP2 PUSH2 0x946 JUMP JUMPDEST PUSH2 0xA75 DUP5 PUSH2 0x958 JUMP JUMPDEST DUP2 ADD PUSH1 0x20 DUP6 LT ISZERO PUSH2 0xA84 JUMPI DUP2 SWAP1 POP JUMPDEST PUSH2 0xA98 PUSH2 0xA90 DUP6 PUSH2 0x958 JUMP JUMPDEST DUP4 ADD DUP3 PUSH2 0xA38 JUMP JUMPDEST POP POP JUMPDEST POP POP POP JUMP JUMPDEST PUSH0 DUP3 DUP3 SHR SWAP1 POP SWAP3 SWAP2 POP POP JUMP JUMPDEST PUSH0 PUSH2 0xABB PUSH0 NOT DUP5 PUSH1 0x8 MUL PUSH2 0xAA0 JUMP JUMPDEST NOT DUP1 DUP4 AND SWAP2 POP POP SWAP3 SWAP2 POP POP JUMP JUMPDEST PUSH0 PUSH2 0xAD3 DUP4 DUP4 PUSH2 0xAAC JUMP JUMPDEST SWAP2 POP DUP3 PUSH1 0x2 MUL DUP3 OR SWAP1 POP SWAP3 SWAP2 POP POP JUMP JUMPDEST PUSH2 0xAEC DUP3 PUSH2 0x44B JUMP JUMPDEST PUSH8 0xFFFFFFFFFFFFFFFF DUP2 GT ISZERO PUSH2 0xB05 JUMPI PUSH2 0xB04 PUSH2 0x60A JUMP JUMPDEST JUMPDEST PUSH2 0xB0F DUP3 SLOAD PUSH2 0x7A2 JUMP JUMPDEST PUSH2 0xB1A DUP3 DUP3 DUP6 PUSH2 0xA5A JUMP JUMPDEST PUSH0 PUSH1 0x20 SWAP1 POP PUSH1 0x1F DUP4 GT PUSH1 0x1 DUP2 EQ PUSH2 0xB4B JUMPI PUSH0 DUP5 ISZERO PUSH2 0xB39 JUMPI DUP3 DUP8 ADD MLOAD SWAP1 POP JUMPDEST PUSH2 0xB43 DUP6 DUP3 PUSH2 0xAC8 JUMP JUMPDEST DUP7 SSTORE POP PUSH2 0xBAA JUMP JUMPDEST PUSH1 0x1F NOT DUP5 AND PUSH2 0xB59 DUP7 PUSH2 0x946 JUMP JUMPDEST PUSH0 JUMPDEST DUP3 DUP2 LT ISZERO PUSH2 0xB80 JUMPI DUP5 DUP10 ADD MLOAD DUP3 SSTORE PUSH1 0x1 DUP3 ADD SWAP2 POP PUSH1 0x20 DUP6 ADD SWAP5 POP PUSH1 0x20 DUP2 ADD SWAP1 POP PUSH2 0xB5B JUMP JUMPDEST DUP7 DUP4 LT ISZERO PUSH2 0xB9D JUMPI DUP5 DUP10 ADD MLOAD PUSH2 0xB99 PUSH1 0x1F DUP10 AND DUP3 PUSH2 0xAAC JUMP JUMPDEST DUP4 SSTORE POP JUMPDEST PUSH1 0x1 PUSH1 0x2 DUP9 MUL ADD DUP9 SSTORE POP POP POP JUMPDEST POP POP POP POP POP POP JUMP INVALID LOG2 PUSH5 0x6970667358 0x22 SLT KECCAK256 0xED PUSH6 0x59D900DA0E5 MCOPY DIV 0xAA BALANCE 0xC4 0x2A ADD DUP5 PUSH12 0xFAF8BB041ADAB21D155F5235 SWAP14 0xB8 DUP4 PUSH5 0x736F6C6343 STOP ADDMOD NOT STOP CALLER "
				},
				"gasEstimates": {
					"creation": {
						"codeDepositCost": "609600",
						"executionCost": "infinite",
						"totalCost": "infinite"
					},
					"external": {
						"getContractAddress()": "401",
						"getName()": "infinite",
						"setName(string)": "infinite",
						"transferEth(uint256,uint256,address)": "infinite",
						"transferEth1(uint256,uint256,address)": "infinite"
					}
				},
				"methodIdentifiers": {
					"getContractAddress()": "32a2c5d0",
					"getName()": "17d7de7c",
					"setName(string)": "c47f0027",
					"transferEth(uint256,uint256,address)": "9384aea4",
					"transferEth1(uint256,uint256,address)": "22b73134"
				}
			},
			"storageLayout": {
				"storage": [
					{
						"astId": 4,
						"contract": "contracts/event.sol:Transfer",
						"label": "name",
						"offset": 0,
						"slot": "0",
						"type": "t_string_storage"
					}
				],
				"types": {
					"t_string_storage": {
						"encoding": "bytes",
						"label": "string",
						"numberOfBytes": "32"
					}
				}
			},
			"userdoc": {
				"kind": "user",
				"methods": {},
				"version": 1
			}
		}
	}
}