{
	"contracts/GiftShop.sol": {
		"GiftShop": {
			"abi": [
				{
					"anonymous": false,
					"inputs": [
						{
							"indexed": false,
							"internalType": "uint256",
							"name": "product_Id",
							"type": "uint256"
						},
						{
							"indexed": false,
							"internalType": "address",
							"name": "buyer",
							"type": "address"
						}
					],
					"name": "buyProduct",
					"type": "event"
				},
				{
					"anonymous": false,
					"inputs": [
						{
							"indexed": false,
							"internalType": "string",
							"name": "product_title",
							"type": "string"
						},
						{
							"indexed": false,
							"internalType": "uint256",
							"name": "product_Id",
							"type": "uint256"
						}
					],
					"name": "createProduct",
					"type": "event"
				},
				{
					"inputs": [
						{
							"internalType": "uint256",
							"name": "",
							"type": "uint256"
						}
					],
					"name": "products",
					"outputs": [
						{
							"internalType": "uint256",
							"name": "product_Id",
							"type": "uint256"
						},
						{
							"internalType": "string",
							"name": "product_Title",
							"type": "string"
						},
						{
							"internalType": "uint256",
							"name": "price",
							"type": "uint256"
						},
						{
							"internalType": "string",
							"name": "disc",
							"type": "string"
						},
						{
							"internalType": "address",
							"name": "buyer",
							"type": "address"
						}
					],
					"stateMutability": "view",
					"type": "function"
				},
				{
					"inputs": [
						{
							"internalType": "string",
							"name": "_productTitle",
							"type": "string"
						},
						{
							"internalType": "string",
							"name": "_disc",
							"type": "string"
						},
						{
							"internalType": "uint256",
							"name": "_price",
							"type": "uint256"
						}
					],
					"name": "registerProduct",
					"outputs": [],
					"stateMutability": "nonpayable",
					"type": "function"
				}
			],
			"devdoc": {
				"kind": "dev",
				"methods": {},
				"version": 1
			},
			"evm": {
				"assembly": "    /* \"contracts/GiftShop.sol\":60:919  contract GiftShop {... */\n  mstore(0x40, 0x80)\n    /* \"contracts/GiftShop.sol\":98:99  1 */\n  0x01\n    /* \"contracts/GiftShop.sol\":85:99  uint count = 1 */\n  0x00\n  sstore\n    /* \"contracts/GiftShop.sol\":60:919  contract GiftShop {... */\n  callvalue\n  dup1\n  iszero\n  tag_1\n  jumpi\n  0x00\n  dup1\n  revert\ntag_1:\n  pop\n  dataSize(sub_0)\n  dup1\n  dataOffset(sub_0)\n  0x00\n  codecopy\n  0x00\n  return\nstop\n\nsub_0: assembly {\n        /* \"contracts/GiftShop.sol\":60:919  contract GiftShop {... */\n      mstore(0x40, 0x80)\n      callvalue\n      dup1\n      iszero\n      tag_1\n      jumpi\n      0x00\n      dup1\n      revert\n    tag_1:\n      pop\n      jumpi(tag_2, lt(calldatasize, 0x04))\n      shr(0xe0, calldataload(0x00))\n      dup1\n      0x3153a15b\n      eq\n      tag_3\n      jumpi\n      dup1\n      0x7acc0b20\n      eq\n      tag_4\n      jumpi\n    tag_2:\n      0x00\n      dup1\n      revert\n        /* \"contracts/GiftShop.sol\":422:908  function registerProduct(string memory _productTitle, string memory _disc,uint _price) public{... */\n    tag_3:\n      tag_5\n      0x04\n      dup1\n      calldatasize\n      sub\n      dup2\n      add\n      swap1\n      tag_6\n      swap2\n      swap1\n      tag_7\n      jump\t// in\n    tag_6:\n      tag_8\n      jump\t// in\n    tag_5:\n      stop\n        /* \"contracts/GiftShop.sol\":262:287  Product[] public products */\n    tag_4:\n      tag_9\n      0x04\n      dup1\n      calldatasize\n      sub\n      dup2\n      add\n      swap1\n      tag_10\n      swap2\n      swap1\n      tag_11\n      jump\t// in\n    tag_10:\n      tag_12\n      jump\t// in\n    tag_9:\n      mload(0x40)\n      tag_13\n      swap6\n      swap5\n      swap4\n      swap3\n      swap2\n      swap1\n      tag_14\n      jump\t// in\n    tag_13:\n      mload(0x40)\n      dup1\n      swap2\n      sub\n      swap1\n      return\n        /* \"contracts/GiftShop.sol\":422:908  function registerProduct(string memory _productTitle, string memory _disc,uint _price) public{... */\n    tag_8:\n        /* \"contracts/GiftShop.sol\":543:544  0 */\n      0x00\n        /* \"contracts/GiftShop.sol\":534:540  _price */\n      dup2\n        /* \"contracts/GiftShop.sol\":534:544  _price > 0 */\n      gt\n        /* \"contracts/GiftShop.sol\":526:573  require(_price > 0, \"Price must be above zero\") */\n      tag_16\n      jumpi\n      mload(0x40)\n      0x08c379a000000000000000000000000000000000000000000000000000000000\n      dup2\n      mstore\n      0x04\n      add\n      tag_17\n      swap1\n      tag_18\n      jump\t// in\n    tag_17:\n      mload(0x40)\n      dup1\n      swap2\n      sub\n      swap1\n      revert\n    tag_16:\n        /* \"contracts/GiftShop.sol\":584:610  Product memory tempProduct */\n      tag_19\n      tag_20\n      jump\t// in\n    tag_19:\n        /* \"contracts/GiftShop.sol\":649:662  _productTitle */\n      dup4\n        /* \"contracts/GiftShop.sol\":621:632  tempProduct */\n      dup2\n        /* \"contracts/GiftShop.sol\":621:646  tempProduct.product_Title */\n      0x20\n      add\n        /* \"contracts/GiftShop.sol\":621:662  tempProduct.product_Title = _productTitle */\n      dup2\n      swap1\n      mstore\n      pop\n        /* \"contracts/GiftShop.sol\":692:697  _disc */\n      dup3\n        /* \"contracts/GiftShop.sol\":673:684  tempProduct */\n      dup2\n        /* \"contracts/GiftShop.sol\":673:689  tempProduct.disc */\n      0x60\n      add\n        /* \"contracts/GiftShop.sol\":673:697  tempProduct.disc = _disc */\n      dup2\n      swap1\n      mstore\n      pop\n        /* \"contracts/GiftShop.sol\":728:734  _price */\n      dup2\n        /* \"contracts/GiftShop.sol\":708:719  tempProduct */\n      dup2\n        /* \"contracts/GiftShop.sol\":708:725  tempProduct.price */\n      0x40\n      add\n        /* \"contracts/GiftShop.sol\":708:734  tempProduct.price = _price */\n      dup2\n      dup2\n      mstore\n      pop\n      pop\n        /* \"contracts/GiftShop.sol\":770:775  count */\n      sload(0x00)\n        /* \"contracts/GiftShop.sol\":745:756  tempProduct */\n      dup2\n        /* \"contracts/GiftShop.sol\":745:767  tempProduct.product_Id */\n      0x00\n      add\n        /* \"contracts/GiftShop.sol\":745:775  tempProduct.product_Id = count */\n      dup2\n      dup2\n      mstore\n      pop\n      pop\n        /* \"contracts/GiftShop.sol\":786:794  products */\n      0x01\n        /* \"contracts/GiftShop.sol\":800:811  tempProduct */\n      dup2\n        /* \"contracts/GiftShop.sol\":786:812  products.push(tempProduct) */\n      swap1\n      dup1\n      0x01\n      dup2\n      sload\n      add\n      dup1\n      dup3\n      sstore\n      dup1\n      swap2\n      pop\n      pop\n      0x01\n      swap1\n      sub\n      swap1\n      0x00\n      mstore\n      keccak256(0x00, 0x20)\n      swap1\n      0x05\n      mul\n      add\n      0x00\n      swap1\n      swap2\n      swap1\n      swap2\n      swap1\n      swap2\n      pop\n      0x00\n      dup3\n      add\n      mload\n      dup2\n      0x00\n      add\n      sstore\n      0x20\n      dup3\n      add\n      mload\n      dup2\n      0x01\n      add\n      swap1\n      dup2\n      tag_22\n      swap2\n      swap1\n      tag_23\n      jump\t// in\n    tag_22:\n      pop\n      0x40\n      dup3\n      add\n      mload\n      dup2\n      0x02\n      add\n      sstore\n      0x60\n      dup3\n      add\n      mload\n      dup2\n      0x03\n      add\n      swap1\n      dup2\n      tag_24\n      swap2\n      swap1\n      tag_23\n      jump\t// in\n    tag_24:\n      pop\n      0x80\n      dup3\n      add\n      mload\n      dup2\n      0x04\n      add\n      exp(0x0100, 0x00)\n      dup2\n      sload\n      dup2\n      0xffffffffffffffffffffffffffffffffffffffff\n      mul\n      not\n      and\n      swap1\n      dup4\n      0xffffffffffffffffffffffffffffffffffffffff\n      and\n      mul\n      or\n      swap1\n      sstore\n      pop\n      pop\n      pop\n        /* \"contracts/GiftShop.sol\":823:828  count */\n      0x00\n      dup1\n        /* \"contracts/GiftShop.sol\":823:830  count++ */\n      dup2\n      sload\n      dup1\n      swap3\n      swap2\n      swap1\n      tag_25\n      swap1\n      tag_26\n      jump\t// in\n    tag_25:\n      swap2\n      swap1\n      pop\n      sstore\n      pop\n        /* \"contracts/GiftShop.sol\":846:898  createProduct(_productTitle, tempProduct.product_Id) */\n      0xe9300c6ca7da27f6fbd35b68f168d1b203a732ab98fe0d53c954f2cdc7c4baa9\n        /* \"contracts/GiftShop.sol\":860:873  _productTitle */\n      dup5\n        /* \"contracts/GiftShop.sol\":875:886  tempProduct */\n      dup3\n        /* \"contracts/GiftShop.sol\":875:897  tempProduct.product_Id */\n      0x00\n      add\n      mload\n        /* \"contracts/GiftShop.sol\":846:898  createProduct(_productTitle, tempProduct.product_Id) */\n      mload(0x40)\n      tag_27\n      swap3\n      swap2\n      swap1\n      tag_28\n      jump\t// in\n    tag_27:\n      mload(0x40)\n      dup1\n      swap2\n      sub\n      swap1\n      log1\n        /* \"contracts/GiftShop.sol\":515:908  {... */\n      pop\n        /* \"contracts/GiftShop.sol\":422:908  function registerProduct(string memory _productTitle, string memory _disc,uint _price) public{... */\n      pop\n      pop\n      pop\n      jump\t// out\n        /* \"contracts/GiftShop.sol\":262:287  Product[] public products */\n    tag_12:\n      0x01\n      dup2\n      dup2\n      sload\n      dup2\n      lt\n      tag_29\n      jumpi\n      0x00\n      dup1\n      revert\n    tag_29:\n      swap1\n      0x00\n      mstore\n      keccak256(0x00, 0x20)\n      swap1\n      0x05\n      mul\n      add\n      0x00\n      swap2\n      pop\n      swap1\n      pop\n      dup1\n      0x00\n      add\n      sload\n      swap1\n      dup1\n      0x01\n      add\n      dup1\n      sload\n      tag_31\n      swap1\n      tag_32\n      jump\t// in\n    tag_31:\n      dup1\n      0x1f\n      add\n      0x20\n      dup1\n      swap2\n      div\n      mul\n      0x20\n      add\n      mload(0x40)\n      swap1\n      dup2\n      add\n      0x40\n      mstore\n      dup1\n      swap3\n      swap2\n      swap1\n      dup2\n      dup2\n      mstore\n      0x20\n      add\n      dup3\n      dup1\n      sload\n      tag_33\n      swap1\n      tag_32\n      jump\t// in\n    tag_33:\n      dup1\n      iszero\n      tag_34\n      jumpi\n      dup1\n      0x1f\n      lt\n      tag_35\n      jumpi\n      0x0100\n      dup1\n      dup4\n      sload\n      div\n      mul\n      dup4\n      mstore\n      swap2\n      0x20\n      add\n      swap2\n      jump(tag_34)\n    tag_35:\n      dup3\n      add\n      swap2\n      swap1\n      0x00\n      mstore\n      keccak256(0x00, 0x20)\n      swap1\n    tag_36:\n      dup2\n      sload\n      dup2\n      mstore\n      swap1\n      0x01\n      add\n      swap1\n      0x20\n      add\n      dup1\n      dup4\n      gt\n      tag_36\n      jumpi\n      dup3\n      swap1\n      sub\n      0x1f\n      and\n      dup3\n      add\n      swap2\n    tag_34:\n      pop\n      pop\n      pop\n      pop\n      pop\n      swap1\n      dup1\n      0x02\n      add\n      sload\n      swap1\n      dup1\n      0x03\n      add\n      dup1\n      sload\n      tag_37\n      swap1\n      tag_32\n      jump\t// in\n    tag_37:\n      dup1\n      0x1f\n      add\n      0x20\n      dup1\n      swap2\n      div\n      mul\n      0x20\n      add\n      mload(0x40)\n      swap1\n      dup2\n      add\n      0x40\n      mstore\n      dup1\n      swap3\n      swap2\n      swap1\n      dup2\n      dup2\n      mstore\n      0x20\n      add\n      dup3\n      dup1\n      sload\n      tag_38\n      swap1\n      tag_32\n      jump\t// in\n    tag_38:\n      dup1\n      iszero\n      tag_39\n      jumpi\n      dup1\n      0x1f\n      lt\n      tag_40\n      jumpi\n      0x0100\n      dup1\n      dup4\n      sload\n      div\n      mul\n      dup4\n      mstore\n      swap2\n      0x20\n      add\n      swap2\n      jump(tag_39)\n    tag_40:\n      dup3\n      add\n      swap2\n      swap1\n      0x00\n      mstore\n      keccak256(0x00, 0x20)\n      swap1\n    tag_41:\n      dup2\n      sload\n      dup2\n      mstore\n      swap1\n      0x01\n      add\n      swap1\n      0x20\n      add\n      dup1\n      dup4\n      gt\n      tag_41\n      jumpi\n      dup3\n      swap1\n      sub\n      0x1f\n      and\n      dup3\n      add\n      swap2\n    tag_39:\n      pop\n      pop\n      pop\n      pop\n      pop\n      swap1\n      dup1\n      0x04\n      add\n      0x00\n      swap1\n      sload\n      swap1\n      0x0100\n      exp\n      swap1\n      div\n      0xffffffffffffffffffffffffffffffffffffffff\n      and\n      swap1\n      pop\n      dup6\n      jump\t// out\n    tag_20:\n      mload(0x40)\n      dup1\n      0xa0\n      add\n      0x40\n      mstore\n      dup1\n      0x00\n      dup2\n      mstore\n      0x20\n      add\n      0x60\n      dup2\n      mstore\n      0x20\n      add\n      0x00\n      dup2\n      mstore\n      0x20\n      add\n      0x60\n      dup2\n      mstore\n      0x20\n      add\n      and(0xffffffffffffffffffffffffffffffffffffffff, 0x00)\n      dup2\n      mstore\n      pop\n      swap1\n      jump\t// out\n        /* \"#utility.yul\":7:82   */\n    tag_42:\n        /* \"#utility.yul\":40:46   */\n      0x00\n        /* \"#utility.yul\":73:75   */\n      0x40\n        /* \"#utility.yul\":67:76   */\n      mload\n        /* \"#utility.yul\":57:76   */\n      swap1\n      pop\n        /* \"#utility.yul\":7:82   */\n      swap1\n      jump\t// out\n        /* \"#utility.yul\":88:205   */\n    tag_43:\n        /* \"#utility.yul\":197:198   */\n      0x00\n        /* \"#utility.yul\":194:195   */\n      dup1\n        /* \"#utility.yul\":187:199   */\n      revert\n        /* \"#utility.yul\":211:328   */\n    tag_44:\n        /* \"#utility.yul\":320:321   */\n      0x00\n        /* \"#utility.yul\":317:318   */\n      dup1\n        /* \"#utility.yul\":310:322   */\n      revert\n        /* \"#utility.yul\":334:451   */\n    tag_45:\n        /* \"#utility.yul\":443:444   */\n      0x00\n        /* \"#utility.yul\":440:441   */\n      dup1\n        /* \"#utility.yul\":433:445   */\n      revert\n        /* \"#utility.yul\":457:574   */\n    tag_46:\n        /* \"#utility.yul\":566:567   */\n      0x00\n        /* \"#utility.yul\":563:564   */\n      dup1\n        /* \"#utility.yul\":556:568   */\n      revert\n        /* \"#utility.yul\":580:682   */\n    tag_47:\n        /* \"#utility.yul\":621:627   */\n      0x00\n        /* \"#utility.yul\":672:674   */\n      0x1f\n        /* \"#utility.yul\":668:675   */\n      not\n        /* \"#utility.yul\":663:665   */\n      0x1f\n        /* \"#utility.yul\":656:661   */\n      dup4\n        /* \"#utility.yul\":652:666   */\n      add\n        /* \"#utility.yul\":648:676   */\n      and\n        /* \"#utility.yul\":638:676   */\n      swap1\n      pop\n        /* \"#utility.yul\":580:682   */\n      swap2\n      swap1\n      pop\n      jump\t// out\n        /* \"#utility.yul\":688:868   */\n    tag_48:\n        /* \"#utility.yul\":736:813   */\n      0x4e487b7100000000000000000000000000000000000000000000000000000000\n        /* \"#utility.yul\":733:734   */\n      0x00\n        /* \"#utility.yul\":726:814   */\n      mstore\n        /* \"#utility.yul\":833:837   */\n      0x41\n        /* \"#utility.yul\":830:831   */\n      0x04\n        /* \"#utility.yul\":823:838   */\n      mstore\n        /* \"#utility.yul\":857:861   */\n      0x24\n        /* \"#utility.yul\":854:855   */\n      0x00\n        /* \"#utility.yul\":847:862   */\n      revert\n        /* \"#utility.yul\":874:1155   */\n    tag_49:\n        /* \"#utility.yul\":957:984   */\n      tag_94\n        /* \"#utility.yul\":979:983   */\n      dup3\n        /* \"#utility.yul\":957:984   */\n      tag_47\n      jump\t// in\n    tag_94:\n        /* \"#utility.yul\":949:955   */\n      dup2\n        /* \"#utility.yul\":945:985   */\n      add\n        /* \"#utility.yul\":1087:1093   */\n      dup2\n        /* \"#utility.yul\":1075:1085   */\n      dup2\n        /* \"#utility.yul\":1072:1094   */\n      lt\n        /* \"#utility.yul\":1051:1069   */\n      0xffffffffffffffff\n        /* \"#utility.yul\":1039:1049   */\n      dup3\n        /* \"#utility.yul\":1036:1070   */\n      gt\n        /* \"#utility.yul\":1033:1095   */\n      or\n        /* \"#utility.yul\":1030:1118   */\n      iszero\n      tag_95\n      jumpi\n        /* \"#utility.yul\":1098:1116   */\n      tag_96\n      tag_48\n      jump\t// in\n    tag_96:\n        /* \"#utility.yul\":1030:1118   */\n    tag_95:\n        /* \"#utility.yul\":1138:1148   */\n      dup1\n        /* \"#utility.yul\":1134:1136   */\n      0x40\n        /* \"#utility.yul\":1127:1149   */\n      mstore\n        /* \"#utility.yul\":917:1155   */\n      pop\n        /* \"#utility.yul\":874:1155   */\n      pop\n      pop\n      jump\t// out\n        /* \"#utility.yul\":1161:1290   */\n    tag_50:\n        /* \"#utility.yul\":1195:1201   */\n      0x00\n        /* \"#utility.yul\":1222:1242   */\n      tag_98\n      tag_42\n      jump\t// in\n    tag_98:\n        /* \"#utility.yul\":1212:1242   */\n      swap1\n      pop\n        /* \"#utility.yul\":1251:1284   */\n      tag_99\n        /* \"#utility.yul\":1279:1283   */\n      dup3\n        /* \"#utility.yul\":1271:1277   */\n      dup3\n        /* \"#utility.yul\":1251:1284   */\n      tag_49\n      jump\t// in\n    tag_99:\n        /* \"#utility.yul\":1161:1290   */\n      swap2\n      swap1\n      pop\n      jump\t// out\n        /* \"#utility.yul\":1296:1604   */\n    tag_51:\n        /* \"#utility.yul\":1358:1362   */\n      0x00\n        /* \"#utility.yul\":1448:1466   */\n      0xffffffffffffffff\n        /* \"#utility.yul\":1440:1446   */\n      dup3\n        /* \"#utility.yul\":1437:1467   */\n      gt\n        /* \"#utility.yul\":1434:1490   */\n      iszero\n      tag_101\n      jumpi\n        /* \"#utility.yul\":1470:1488   */\n      tag_102\n      tag_48\n      jump\t// in\n    tag_102:\n        /* \"#utility.yul\":1434:1490   */\n    tag_101:\n        /* \"#utility.yul\":1508:1537   */\n      tag_103\n        /* \"#utility.yul\":1530:1536   */\n      dup3\n        /* \"#utility.yul\":1508:1537   */\n      tag_47\n      jump\t// in\n    tag_103:\n        /* \"#utility.yul\":1500:1537   */\n      swap1\n      pop\n        /* \"#utility.yul\":1592:1596   */\n      0x20\n        /* \"#utility.yul\":1586:1590   */\n      dup2\n        /* \"#utility.yul\":1582:1597   */\n      add\n        /* \"#utility.yul\":1574:1597   */\n      swap1\n      pop\n        /* \"#utility.yul\":1296:1604   */\n      swap2\n      swap1\n      pop\n      jump\t// out\n        /* \"#utility.yul\":1610:1758   */\n    tag_52:\n        /* \"#utility.yul\":1708:1714   */\n      dup3\n        /* \"#utility.yul\":1703:1706   */\n      dup2\n        /* \"#utility.yul\":1698:1701   */\n      dup4\n        /* \"#utility.yul\":1685:1715   */\n      calldatacopy\n        /* \"#utility.yul\":1749:1750   */\n      0x00\n        /* \"#utility.yul\":1740:1746   */\n      dup4\n        /* \"#utility.yul\":1735:1738   */\n      dup4\n        /* \"#utility.yul\":1731:1747   */\n      add\n        /* \"#utility.yul\":1724:1751   */\n      mstore\n        /* \"#utility.yul\":1610:1758   */\n      pop\n      pop\n      pop\n      jump\t// out\n        /* \"#utility.yul\":1764:2189   */\n    tag_53:\n        /* \"#utility.yul\":1842:1847   */\n      0x00\n        /* \"#utility.yul\":1867:1933   */\n      tag_106\n        /* \"#utility.yul\":1883:1932   */\n      tag_107\n        /* \"#utility.yul\":1925:1931   */\n      dup5\n        /* \"#utility.yul\":1883:1932   */\n      tag_51\n      jump\t// in\n    tag_107:\n        /* \"#utility.yul\":1867:1933   */\n      tag_50\n      jump\t// in\n    tag_106:\n        /* \"#utility.yul\":1858:1933   */\n      swap1\n      pop\n        /* \"#utility.yul\":1956:1962   */\n      dup3\n        /* \"#utility.yul\":1949:1954   */\n      dup2\n        /* \"#utility.yul\":1942:1963   */\n      mstore\n        /* \"#utility.yul\":1994:1998   */\n      0x20\n        /* \"#utility.yul\":1987:1992   */\n      dup2\n        /* \"#utility.yul\":1983:1999   */\n      add\n        /* \"#utility.yul\":2032:2035   */\n      dup5\n        /* \"#utility.yul\":2023:2029   */\n      dup5\n        /* \"#utility.yul\":2018:2021   */\n      dup5\n        /* \"#utility.yul\":2014:2030   */\n      add\n        /* \"#utility.yul\":2011:2036   */\n      gt\n        /* \"#utility.yul\":2008:2120   */\n      iszero\n      tag_108\n      jumpi\n        /* \"#utility.yul\":2039:2118   */\n      tag_109\n      tag_46\n      jump\t// in\n    tag_109:\n        /* \"#utility.yul\":2008:2120   */\n    tag_108:\n        /* \"#utility.yul\":2129:2183   */\n      tag_110\n        /* \"#utility.yul\":2176:2182   */\n      dup5\n        /* \"#utility.yul\":2171:2174   */\n      dup3\n        /* \"#utility.yul\":2166:2169   */\n      dup6\n        /* \"#utility.yul\":2129:2183   */\n      tag_52\n      jump\t// in\n    tag_110:\n        /* \"#utility.yul\":1848:2189   */\n      pop\n        /* \"#utility.yul\":1764:2189   */\n      swap4\n      swap3\n      pop\n      pop\n      pop\n      jump\t// out\n        /* \"#utility.yul\":2209:2549   */\n    tag_54:\n        /* \"#utility.yul\":2265:2270   */\n      0x00\n        /* \"#utility.yul\":2314:2317   */\n      dup3\n        /* \"#utility.yul\":2307:2311   */\n      0x1f\n        /* \"#utility.yul\":2299:2305   */\n      dup4\n        /* \"#utility.yul\":2295:2312   */\n      add\n        /* \"#utility.yul\":2291:2318   */\n      slt\n        /* \"#utility.yul\":2281:2403   */\n      tag_112\n      jumpi\n        /* \"#utility.yul\":2322:2401   */\n      tag_113\n      tag_45\n      jump\t// in\n    tag_113:\n        /* \"#utility.yul\":2281:2403   */\n    tag_112:\n        /* \"#utility.yul\":2439:2445   */\n      dup2\n        /* \"#utility.yul\":2426:2446   */\n      calldataload\n        /* \"#utility.yul\":2464:2543   */\n      tag_114\n        /* \"#utility.yul\":2539:2542   */\n      dup5\n        /* \"#utility.yul\":2531:2537   */\n      dup3\n        /* \"#utility.yul\":2524:2528   */\n      0x20\n        /* \"#utility.yul\":2516:2522   */\n      dup7\n        /* \"#utility.yul\":2512:2529   */\n      add\n        /* \"#utility.yul\":2464:2543   */\n      tag_53\n      jump\t// in\n    tag_114:\n        /* \"#utility.yul\":2455:2543   */\n      swap2\n      pop\n        /* \"#utility.yul\":2271:2549   */\n      pop\n        /* \"#utility.yul\":2209:2549   */\n      swap3\n      swap2\n      pop\n      pop\n      jump\t// out\n        /* \"#utility.yul\":2555:2632   */\n    tag_55:\n        /* \"#utility.yul\":2592:2599   */\n      0x00\n        /* \"#utility.yul\":2621:2626   */\n      dup2\n        /* \"#utility.yul\":2610:2626   */\n      swap1\n      pop\n        /* \"#utility.yul\":2555:2632   */\n      swap2\n      swap1\n      pop\n      jump\t// out\n        /* \"#utility.yul\":2638:2760   */\n    tag_56:\n        /* \"#utility.yul\":2711:2735   */\n      tag_117\n        /* \"#utility.yul\":2729:2734   */\n      dup2\n        /* \"#utility.yul\":2711:2735   */\n      tag_55\n      jump\t// in\n    tag_117:\n        /* \"#utility.yul\":2704:2709   */\n      dup2\n        /* \"#utility.yul\":2701:2736   */\n      eq\n        /* \"#utility.yul\":2691:2754   */\n      tag_118\n      jumpi\n        /* \"#utility.yul\":2750:2751   */\n      0x00\n        /* \"#utility.yul\":2747:2748   */\n      dup1\n        /* \"#utility.yul\":2740:2752   */\n      revert\n        /* \"#utility.yul\":2691:2754   */\n    tag_118:\n        /* \"#utility.yul\":2638:2760   */\n      pop\n      jump\t// out\n        /* \"#utility.yul\":2766:2905   */\n    tag_57:\n        /* \"#utility.yul\":2812:2817   */\n      0x00\n        /* \"#utility.yul\":2850:2856   */\n      dup2\n        /* \"#utility.yul\":2837:2857   */\n      calldataload\n        /* \"#utility.yul\":2828:2857   */\n      swap1\n      pop\n        /* \"#utility.yul\":2866:2899   */\n      tag_120\n        /* \"#utility.yul\":2893:2898   */\n      dup2\n        /* \"#utility.yul\":2866:2899   */\n      tag_56\n      jump\t// in\n    tag_120:\n        /* \"#utility.yul\":2766:2905   */\n      swap3\n      swap2\n      pop\n      pop\n      jump\t// out\n        /* \"#utility.yul\":2911:3890   */\n    tag_7:\n        /* \"#utility.yul\":3008:3014   */\n      0x00\n        /* \"#utility.yul\":3016:3022   */\n      dup1\n        /* \"#utility.yul\":3024:3030   */\n      0x00\n        /* \"#utility.yul\":3073:3075   */\n      0x60\n        /* \"#utility.yul\":3061:3070   */\n      dup5\n        /* \"#utility.yul\":3052:3059   */\n      dup7\n        /* \"#utility.yul\":3048:3071   */\n      sub\n        /* \"#utility.yul\":3044:3076   */\n      slt\n        /* \"#utility.yul\":3041:3160   */\n      iszero\n      tag_122\n      jumpi\n        /* \"#utility.yul\":3079:3158   */\n      tag_123\n      tag_43\n      jump\t// in\n    tag_123:\n        /* \"#utility.yul\":3041:3160   */\n    tag_122:\n        /* \"#utility.yul\":3227:3228   */\n      0x00\n        /* \"#utility.yul\":3216:3225   */\n      dup5\n        /* \"#utility.yul\":3212:3229   */\n      add\n        /* \"#utility.yul\":3199:3230   */\n      calldataload\n        /* \"#utility.yul\":3257:3275   */\n      0xffffffffffffffff\n        /* \"#utility.yul\":3249:3255   */\n      dup2\n        /* \"#utility.yul\":3246:3276   */\n      gt\n        /* \"#utility.yul\":3243:3360   */\n      iszero\n      tag_124\n      jumpi\n        /* \"#utility.yul\":3279:3358   */\n      tag_125\n      tag_44\n      jump\t// in\n    tag_125:\n        /* \"#utility.yul\":3243:3360   */\n    tag_124:\n        /* \"#utility.yul\":3384:3447   */\n      tag_126\n        /* \"#utility.yul\":3439:3446   */\n      dup7\n        /* \"#utility.yul\":3430:3436   */\n      dup3\n        /* \"#utility.yul\":3419:3428   */\n      dup8\n        /* \"#utility.yul\":3415:3437   */\n      add\n        /* \"#utility.yul\":3384:3447   */\n      tag_54\n      jump\t// in\n    tag_126:\n        /* \"#utility.yul\":3374:3447   */\n      swap4\n      pop\n        /* \"#utility.yul\":3170:3457   */\n      pop\n        /* \"#utility.yul\":3524:3526   */\n      0x20\n        /* \"#utility.yul\":3513:3522   */\n      dup5\n        /* \"#utility.yul\":3509:3527   */\n      add\n        /* \"#utility.yul\":3496:3528   */\n      calldataload\n        /* \"#utility.yul\":3555:3573   */\n      0xffffffffffffffff\n        /* \"#utility.yul\":3547:3553   */\n      dup2\n        /* \"#utility.yul\":3544:3574   */\n      gt\n        /* \"#utility.yul\":3541:3658   */\n      iszero\n      tag_127\n      jumpi\n        /* \"#utility.yul\":3577:3656   */\n      tag_128\n      tag_44\n      jump\t// in\n    tag_128:\n        /* \"#utility.yul\":3541:3658   */\n    tag_127:\n        /* \"#utility.yul\":3682:3745   */\n      tag_129\n        /* \"#utility.yul\":3737:3744   */\n      dup7\n        /* \"#utility.yul\":3728:3734   */\n      dup3\n        /* \"#utility.yul\":3717:3726   */\n      dup8\n        /* \"#utility.yul\":3713:3735   */\n      add\n        /* \"#utility.yul\":3682:3745   */\n      tag_54\n      jump\t// in\n    tag_129:\n        /* \"#utility.yul\":3672:3745   */\n      swap3\n      pop\n        /* \"#utility.yul\":3467:3755   */\n      pop\n        /* \"#utility.yul\":3794:3796   */\n      0x40\n        /* \"#utility.yul\":3820:3873   */\n      tag_130\n        /* \"#utility.yul\":3865:3872   */\n      dup7\n        /* \"#utility.yul\":3856:3862   */\n      dup3\n        /* \"#utility.yul\":3845:3854   */\n      dup8\n        /* \"#utility.yul\":3841:3863   */\n      add\n        /* \"#utility.yul\":3820:3873   */\n      tag_57\n      jump\t// in\n    tag_130:\n        /* \"#utility.yul\":3810:3873   */\n      swap2\n      pop\n        /* \"#utility.yul\":3765:3883   */\n      pop\n        /* \"#utility.yul\":2911:3890   */\n      swap3\n      pop\n      swap3\n      pop\n      swap3\n      jump\t// out\n        /* \"#utility.yul\":3896:4225   */\n    tag_11:\n        /* \"#utility.yul\":3955:3961   */\n      0x00\n        /* \"#utility.yul\":4004:4006   */\n      0x20\n        /* \"#utility.yul\":3992:4001   */\n      dup3\n        /* \"#utility.yul\":3983:3990   */\n      dup5\n        /* \"#utility.yul\":3979:4002   */\n      sub\n        /* \"#utility.yul\":3975:4007   */\n      slt\n        /* \"#utility.yul\":3972:4091   */\n      iszero\n      tag_132\n      jumpi\n        /* \"#utility.yul\":4010:4089   */\n      tag_133\n      tag_43\n      jump\t// in\n    tag_133:\n        /* \"#utility.yul\":3972:4091   */\n    tag_132:\n        /* \"#utility.yul\":4130:4131   */\n      0x00\n        /* \"#utility.yul\":4155:4208   */\n      tag_134\n        /* \"#utility.yul\":4200:4207   */\n      dup5\n        /* \"#utility.yul\":4191:4197   */\n      dup3\n        /* \"#utility.yul\":4180:4189   */\n      dup6\n        /* \"#utility.yul\":4176:4198   */\n      add\n        /* \"#utility.yul\":4155:4208   */\n      tag_57\n      jump\t// in\n    tag_134:\n        /* \"#utility.yul\":4145:4208   */\n      swap2\n      pop\n        /* \"#utility.yul\":4101:4218   */\n      pop\n        /* \"#utility.yul\":3896:4225   */\n      swap3\n      swap2\n      pop\n      pop\n      jump\t// out\n        /* \"#utility.yul\":4231:4349   */\n    tag_58:\n        /* \"#utility.yul\":4318:4342   */\n      tag_136\n        /* \"#utility.yul\":4336:4341   */\n      dup2\n        /* \"#utility.yul\":4318:4342   */\n      tag_55\n      jump\t// in\n    tag_136:\n        /* \"#utility.yul\":4313:4316   */\n      dup3\n        /* \"#utility.yul\":4306:4343   */\n      mstore\n        /* \"#utility.yul\":4231:4349   */\n      pop\n      pop\n      jump\t// out\n        /* \"#utility.yul\":4355:4454   */\n    tag_59:\n        /* \"#utility.yul\":4407:4413   */\n      0x00\n        /* \"#utility.yul\":4441:4446   */\n      dup2\n        /* \"#utility.yul\":4435:4447   */\n      mload\n        /* \"#utility.yul\":4425:4447   */\n      swap1\n      pop\n        /* \"#utility.yul\":4355:4454   */\n      swap2\n      swap1\n      pop\n      jump\t// out\n        /* \"#utility.yul\":4460:4629   */\n    tag_60:\n        /* \"#utility.yul\":4544:4555   */\n      0x00\n        /* \"#utility.yul\":4578:4584   */\n      dup3\n        /* \"#utility.yul\":4573:4576   */\n      dup3\n        /* \"#utility.yul\":4566:4585   */\n      mstore\n        /* \"#utility.yul\":4618:4622   */\n      0x20\n        /* \"#utility.yul\":4613:4616   */\n      dup3\n        /* \"#utility.yul\":4609:4623   */\n      add\n        /* \"#utility.yul\":4594:4623   */\n      swap1\n      pop\n        /* \"#utility.yul\":4460:4629   */\n      swap3\n      swap2\n      pop\n      pop\n      jump\t// out\n        /* \"#utility.yul\":4635:4774   */\n    tag_61:\n        /* \"#utility.yul\":4724:4730   */\n      dup3\n        /* \"#utility.yul\":4719:4722   */\n      dup2\n        /* \"#utility.yul\":4714:4717   */\n      dup4\n        /* \"#utility.yul\":4708:4731   */\n      mcopy\n        /* \"#utility.yul\":4765:4766   */\n      0x00\n        /* \"#utility.yul\":4756:4762   */\n      dup4\n        /* \"#utility.yul\":4751:4754   */\n      dup4\n        /* \"#utility.yul\":4747:4763   */\n      add\n        /* \"#utility.yul\":4740:4767   */\n      mstore\n        /* \"#utility.yul\":4635:4774   */\n      pop\n      pop\n      pop\n      jump\t// out\n        /* \"#utility.yul\":4780:5157   */\n    tag_62:\n        /* \"#utility.yul\":4868:4871   */\n      0x00\n        /* \"#utility.yul\":4896:4935   */\n      tag_141\n        /* \"#utility.yul\":4929:4934   */\n      dup3\n        /* \"#utility.yul\":4896:4935   */\n      tag_59\n      jump\t// in\n    tag_141:\n        /* \"#utility.yul\":4951:5022   */\n      tag_142\n        /* \"#utility.yul\":5015:5021   */\n      dup2\n        /* \"#utility.yul\":5010:5013   */\n      dup6\n        /* \"#utility.yul\":4951:5022   */\n      tag_60\n      jump\t// in\n    tag_142:\n        /* \"#utility.yul\":4944:5022   */\n      swap4\n      pop\n        /* \"#utility.yul\":5031:5096   */\n      tag_143\n        /* \"#utility.yul\":5089:5095   */\n      dup2\n        /* \"#utility.yul\":5084:5087   */\n      dup6\n        /* \"#utility.yul\":5077:5081   */\n      0x20\n        /* \"#utility.yul\":5070:5075   */\n      dup7\n        /* \"#utility.yul\":5066:5082   */\n      add\n        /* \"#utility.yul\":5031:5096   */\n      tag_61\n      jump\t// in\n    tag_143:\n        /* \"#utility.yul\":5121:5150   */\n      tag_144\n        /* \"#utility.yul\":5143:5149   */\n      dup2\n        /* \"#utility.yul\":5121:5150   */\n      tag_47\n      jump\t// in\n    tag_144:\n        /* \"#utility.yul\":5116:5119   */\n      dup5\n        /* \"#utility.yul\":5112:5151   */\n      add\n        /* \"#utility.yul\":5105:5151   */\n      swap2\n      pop\n        /* \"#utility.yul\":4872:5157   */\n      pop\n        /* \"#utility.yul\":4780:5157   */\n      swap3\n      swap2\n      pop\n      pop\n      jump\t// out\n        /* \"#utility.yul\":5163:5289   */\n    tag_63:\n        /* \"#utility.yul\":5200:5207   */\n      0x00\n        /* \"#utility.yul\":5240:5282   */\n      0xffffffffffffffffffffffffffffffffffffffff\n        /* \"#utility.yul\":5233:5238   */\n      dup3\n        /* \"#utility.yul\":5229:5283   */\n      and\n        /* \"#utility.yul\":5218:5283   */\n      swap1\n      pop\n        /* \"#utility.yul\":5163:5289   */\n      swap2\n      swap1\n      pop\n      jump\t// out\n        /* \"#utility.yul\":5295:5391   */\n    tag_64:\n        /* \"#utility.yul\":5332:5339   */\n      0x00\n        /* \"#utility.yul\":5361:5385   */\n      tag_147\n        /* \"#utility.yul\":5379:5384   */\n      dup3\n        /* \"#utility.yul\":5361:5385   */\n      tag_63\n      jump\t// in\n    tag_147:\n        /* \"#utility.yul\":5350:5385   */\n      swap1\n      pop\n        /* \"#utility.yul\":5295:5391   */\n      swap2\n      swap1\n      pop\n      jump\t// out\n        /* \"#utility.yul\":5397:5515   */\n    tag_65:\n        /* \"#utility.yul\":5484:5508   */\n      tag_149\n        /* \"#utility.yul\":5502:5507   */\n      dup2\n        /* \"#utility.yul\":5484:5508   */\n      tag_64\n      jump\t// in\n    tag_149:\n        /* \"#utility.yul\":5479:5482   */\n      dup3\n        /* \"#utility.yul\":5472:5509   */\n      mstore\n        /* \"#utility.yul\":5397:5515   */\n      pop\n      pop\n      jump\t// out\n        /* \"#utility.yul\":5521:6367   */\n    tag_14:\n        /* \"#utility.yul\":5766:5770   */\n      0x00\n        /* \"#utility.yul\":5804:5807   */\n      0xa0\n        /* \"#utility.yul\":5793:5802   */\n      dup3\n        /* \"#utility.yul\":5789:5808   */\n      add\n        /* \"#utility.yul\":5781:5808   */\n      swap1\n      pop\n        /* \"#utility.yul\":5818:5889   */\n      tag_151\n        /* \"#utility.yul\":5886:5887   */\n      0x00\n        /* \"#utility.yul\":5875:5884   */\n      dup4\n        /* \"#utility.yul\":5871:5888   */\n      add\n        /* \"#utility.yul\":5862:5868   */\n      dup9\n        /* \"#utility.yul\":5818:5889   */\n      tag_58\n      jump\t// in\n    tag_151:\n        /* \"#utility.yul\":5936:5945   */\n      dup2\n        /* \"#utility.yul\":5930:5934   */\n      dup2\n        /* \"#utility.yul\":5926:5946   */\n      sub\n        /* \"#utility.yul\":5921:5923   */\n      0x20\n        /* \"#utility.yul\":5910:5919   */\n      dup4\n        /* \"#utility.yul\":5906:5924   */\n      add\n        /* \"#utility.yul\":5899:5947   */\n      mstore\n        /* \"#utility.yul\":5964:6042   */\n      tag_152\n        /* \"#utility.yul\":6037:6041   */\n      dup2\n        /* \"#utility.yul\":6028:6034   */\n      dup8\n        /* \"#utility.yul\":5964:6042   */\n      tag_62\n      jump\t// in\n    tag_152:\n        /* \"#utility.yul\":5956:6042   */\n      swap1\n      pop\n        /* \"#utility.yul\":6052:6124   */\n      tag_153\n        /* \"#utility.yul\":6120:6122   */\n      0x40\n        /* \"#utility.yul\":6109:6118   */\n      dup4\n        /* \"#utility.yul\":6105:6123   */\n      add\n        /* \"#utility.yul\":6096:6102   */\n      dup7\n        /* \"#utility.yul\":6052:6124   */\n      tag_58\n      jump\t// in\n    tag_153:\n        /* \"#utility.yul\":6171:6180   */\n      dup2\n        /* \"#utility.yul\":6165:6169   */\n      dup2\n        /* \"#utility.yul\":6161:6181   */\n      sub\n        /* \"#utility.yul\":6156:6158   */\n      0x60\n        /* \"#utility.yul\":6145:6154   */\n      dup4\n        /* \"#utility.yul\":6141:6159   */\n      add\n        /* \"#utility.yul\":6134:6182   */\n      mstore\n        /* \"#utility.yul\":6199:6277   */\n      tag_154\n        /* \"#utility.yul\":6272:6276   */\n      dup2\n        /* \"#utility.yul\":6263:6269   */\n      dup6\n        /* \"#utility.yul\":6199:6277   */\n      tag_62\n      jump\t// in\n    tag_154:\n        /* \"#utility.yul\":6191:6277   */\n      swap1\n      pop\n        /* \"#utility.yul\":6287:6360   */\n      tag_155\n        /* \"#utility.yul\":6355:6358   */\n      0x80\n        /* \"#utility.yul\":6344:6353   */\n      dup4\n        /* \"#utility.yul\":6340:6359   */\n      add\n        /* \"#utility.yul\":6331:6337   */\n      dup5\n        /* \"#utility.yul\":6287:6360   */\n      tag_65\n      jump\t// in\n    tag_155:\n        /* \"#utility.yul\":5521:6367   */\n      swap7\n      swap6\n      pop\n      pop\n      pop\n      pop\n      pop\n      pop\n      jump\t// out\n        /* \"#utility.yul\":6373:6547   */\n    tag_66:\n        /* \"#utility.yul\":6513:6539   */\n      0x5072696365206d7573742062652061626f7665207a65726f0000000000000000\n        /* \"#utility.yul\":6509:6510   */\n      0x00\n        /* \"#utility.yul\":6501:6507   */\n      dup3\n        /* \"#utility.yul\":6497:6511   */\n      add\n        /* \"#utility.yul\":6490:6540   */\n      mstore\n        /* \"#utility.yul\":6373:6547   */\n      pop\n      jump\t// out\n        /* \"#utility.yul\":6553:6919   */\n    tag_67:\n        /* \"#utility.yul\":6695:6698   */\n      0x00\n        /* \"#utility.yul\":6716:6783   */\n      tag_158\n        /* \"#utility.yul\":6780:6782   */\n      0x18\n        /* \"#utility.yul\":6775:6778   */\n      dup4\n        /* \"#utility.yul\":6716:6783   */\n      tag_60\n      jump\t// in\n    tag_158:\n        /* \"#utility.yul\":6709:6783   */\n      swap2\n      pop\n        /* \"#utility.yul\":6792:6885   */\n      tag_159\n        /* \"#utility.yul\":6881:6884   */\n      dup3\n        /* \"#utility.yul\":6792:6885   */\n      tag_66\n      jump\t// in\n    tag_159:\n        /* \"#utility.yul\":6910:6912   */\n      0x20\n        /* \"#utility.yul\":6905:6908   */\n      dup3\n        /* \"#utility.yul\":6901:6913   */\n      add\n        /* \"#utility.yul\":6894:6913   */\n      swap1\n      pop\n        /* \"#utility.yul\":6553:6919   */\n      swap2\n      swap1\n      pop\n      jump\t// out\n        /* \"#utility.yul\":6925:7344   */\n    tag_18:\n        /* \"#utility.yul\":7091:7095   */\n      0x00\n        /* \"#utility.yul\":7129:7131   */\n      0x20\n        /* \"#utility.yul\":7118:7127   */\n      dup3\n        /* \"#utility.yul\":7114:7132   */\n      add\n        /* \"#utility.yul\":7106:7132   */\n      swap1\n      pop\n        /* \"#utility.yul\":7178:7187   */\n      dup2\n        /* \"#utility.yul\":7172:7176   */\n      dup2\n        /* \"#utility.yul\":7168:7188   */\n      sub\n        /* \"#utility.yul\":7164:7165   */\n      0x00\n        /* \"#utility.yul\":7153:7162   */\n      dup4\n        /* \"#utility.yul\":7149:7166   */\n      add\n        /* \"#utility.yul\":7142:7189   */\n      mstore\n        /* \"#utility.yul\":7206:7337   */\n      tag_161\n        /* \"#utility.yul\":7332:7336   */\n      dup2\n        /* \"#utility.yul\":7206:7337   */\n      tag_67\n      jump\t// in\n    tag_161:\n        /* \"#utility.yul\":7198:7337   */\n      swap1\n      pop\n        /* \"#utility.yul\":6925:7344   */\n      swap2\n      swap1\n      pop\n      jump\t// out\n        /* \"#utility.yul\":7350:7530   */\n    tag_68:\n        /* \"#utility.yul\":7398:7475   */\n      0x4e487b7100000000000000000000000000000000000000000000000000000000\n        /* \"#utility.yul\":7395:7396   */\n      0x00\n        /* \"#utility.yul\":7388:7476   */\n      mstore\n        /* \"#utility.yul\":7495:7499   */\n      0x22\n        /* \"#utility.yul\":7492:7493   */\n      0x04\n        /* \"#utility.yul\":7485:7500   */\n      mstore\n        /* \"#utility.yul\":7519:7523   */\n      0x24\n        /* \"#utility.yul\":7516:7517   */\n      0x00\n        /* \"#utility.yul\":7509:7524   */\n      revert\n        /* \"#utility.yul\":7536:7856   */\n    tag_32:\n        /* \"#utility.yul\":7580:7586   */\n      0x00\n        /* \"#utility.yul\":7617:7618   */\n      0x02\n        /* \"#utility.yul\":7611:7615   */\n      dup3\n        /* \"#utility.yul\":7607:7619   */\n      div\n        /* \"#utility.yul\":7597:7619   */\n      swap1\n      pop\n        /* \"#utility.yul\":7664:7665   */\n      0x01\n        /* \"#utility.yul\":7658:7662   */\n      dup3\n        /* \"#utility.yul\":7654:7666   */\n      and\n        /* \"#utility.yul\":7685:7703   */\n      dup1\n        /* \"#utility.yul\":7675:7756   */\n      tag_164\n      jumpi\n        /* \"#utility.yul\":7741:7745   */\n      0x7f\n        /* \"#utility.yul\":7733:7739   */\n      dup3\n        /* \"#utility.yul\":7729:7746   */\n      and\n        /* \"#utility.yul\":7719:7746   */\n      swap2\n      pop\n        /* \"#utility.yul\":7675:7756   */\n    tag_164:\n        /* \"#utility.yul\":7803:7805   */\n      0x20\n        /* \"#utility.yul\":7795:7801   */\n      dup3\n        /* \"#utility.yul\":7792:7806   */\n      lt\n        /* \"#utility.yul\":7772:7790   */\n      dup2\n        /* \"#utility.yul\":7769:7807   */\n      sub\n        /* \"#utility.yul\":7766:7850   */\n      tag_165\n      jumpi\n        /* \"#utility.yul\":7822:7840   */\n      tag_166\n      tag_68\n      jump\t// in\n    tag_166:\n        /* \"#utility.yul\":7766:7850   */\n    tag_165:\n        /* \"#utility.yul\":7587:7856   */\n      pop\n        /* \"#utility.yul\":7536:7856   */\n      swap2\n      swap1\n      pop\n      jump\t// out\n        /* \"#utility.yul\":7862:8003   */\n    tag_69:\n        /* \"#utility.yul\":7911:7915   */\n      0x00\n        /* \"#utility.yul\":7934:7937   */\n      dup2\n        /* \"#utility.yul\":7926:7937   */\n      swap1\n      pop\n        /* \"#utility.yul\":7957:7960   */\n      dup2\n        /* \"#utility.yul\":7954:7955   */\n      0x00\n        /* \"#utility.yul\":7947:7961   */\n      mstore\n        /* \"#utility.yul\":7991:7995   */\n      0x20\n        /* \"#utility.yul\":7988:7989   */\n      0x00\n        /* \"#utility.yul\":7978:7996   */\n      keccak256\n        /* \"#utility.yul\":7970:7996   */\n      swap1\n      pop\n        /* \"#utility.yul\":7862:8003   */\n      swap2\n      swap1\n      pop\n      jump\t// out\n        /* \"#utility.yul\":8009:8102   */\n    tag_70:\n        /* \"#utility.yul\":8046:8052   */\n      0x00\n        /* \"#utility.yul\":8093:8095   */\n      0x20\n        /* \"#utility.yul\":8088:8090   */\n      0x1f\n        /* \"#utility.yul\":8081:8086   */\n      dup4\n        /* \"#utility.yul\":8077:8091   */\n      add\n        /* \"#utility.yul\":8073:8096   */\n      div\n        /* \"#utility.yul\":8063:8096   */\n      swap1\n      pop\n        /* \"#utility.yul\":8009:8102   */\n      swap2\n      swap1\n      pop\n      jump\t// out\n        /* \"#utility.yul\":8108:8215   */\n    tag_71:\n        /* \"#utility.yul\":8152:8160   */\n      0x00\n        /* \"#utility.yul\":8202:8207   */\n      dup3\n        /* \"#utility.yul\":8196:8200   */\n      dup3\n        /* \"#utility.yul\":8192:8208   */\n      shl\n        /* \"#utility.yul\":8171:8208   */\n      swap1\n      pop\n        /* \"#utility.yul\":8108:8215   */\n      swap3\n      swap2\n      pop\n      pop\n      jump\t// out\n        /* \"#utility.yul\":8221:8614   */\n    tag_72:\n        /* \"#utility.yul\":8290:8296   */\n      0x00\n        /* \"#utility.yul\":8340:8341   */\n      0x08\n        /* \"#utility.yul\":8328:8338   */\n      dup4\n        /* \"#utility.yul\":8324:8342   */\n      mul\n        /* \"#utility.yul\":8363:8460   */\n      tag_171\n        /* \"#utility.yul\":8393:8459   */\n      0xffffffffffffffffffffffffffffffffffffffffffffffffffffffffffffffff\n        /* \"#utility.yul\":8382:8391   */\n      dup3\n        /* \"#utility.yul\":8363:8460   */\n      tag_71\n      jump\t// in\n    tag_171:\n        /* \"#utility.yul\":8481:8520   */\n      tag_172\n        /* \"#utility.yul\":8511:8519   */\n      dup7\n        /* \"#utility.yul\":8500:8509   */\n      dup4\n        /* \"#utility.yul\":8481:8520   */\n      tag_71\n      jump\t// in\n    tag_172:\n        /* \"#utility.yul\":8469:8520   */\n      swap6\n      pop\n        /* \"#utility.yul\":8553:8557   */\n      dup1\n        /* \"#utility.yul\":8549:8558   */\n      not\n        /* \"#utility.yul\":8542:8547   */\n      dup5\n        /* \"#utility.yul\":8538:8559   */\n      and\n        /* \"#utility.yul\":8529:8559   */\n      swap4\n      pop\n        /* \"#utility.yul\":8602:8606   */\n      dup1\n        /* \"#utility.yul\":8592:8600   */\n      dup7\n        /* \"#utility.yul\":8588:8607   */\n      and\n        /* \"#utility.yul\":8581:8586   */\n      dup5\n        /* \"#utility.yul\":8578:8608   */\n      or\n        /* \"#utility.yul\":8568:8608   */\n      swap3\n      pop\n        /* \"#utility.yul\":8297:8614   */\n      pop\n      pop\n        /* \"#utility.yul\":8221:8614   */\n      swap4\n      swap3\n      pop\n      pop\n      pop\n      jump\t// out\n        /* \"#utility.yul\":8620:8680   */\n    tag_73:\n        /* \"#utility.yul\":8648:8651   */\n      0x00\n        /* \"#utility.yul\":8669:8674   */\n      dup2\n        /* \"#utility.yul\":8662:8674   */\n      swap1\n      pop\n        /* \"#utility.yul\":8620:8680   */\n      swap2\n      swap1\n      pop\n      jump\t// out\n        /* \"#utility.yul\":8686:8828   */\n    tag_74:\n        /* \"#utility.yul\":8736:8745   */\n      0x00\n        /* \"#utility.yul\":8769:8822   */\n      tag_175\n        /* \"#utility.yul\":8787:8821   */\n      tag_176\n        /* \"#utility.yul\":8796:8820   */\n      tag_177\n        /* \"#utility.yul\":8814:8819   */\n      dup5\n        /* \"#utility.yul\":8796:8820   */\n      tag_55\n      jump\t// in\n    tag_177:\n        /* \"#utility.yul\":8787:8821   */\n      tag_73\n      jump\t// in\n    tag_176:\n        /* \"#utility.yul\":8769:8822   */\n      tag_55\n      jump\t// in\n    tag_175:\n        /* \"#utility.yul\":8756:8822   */\n      swap1\n      pop\n        /* \"#utility.yul\":8686:8828   */\n      swap2\n      swap1\n      pop\n      jump\t// out\n        /* \"#utility.yul\":8834:8909   */\n    tag_75:\n        /* \"#utility.yul\":8877:8880   */\n      0x00\n        /* \"#utility.yul\":8898:8903   */\n      dup2\n        /* \"#utility.yul\":8891:8903   */\n      swap1\n      pop\n        /* \"#utility.yul\":8834:8909   */\n      swap2\n      swap1\n      pop\n      jump\t// out\n        /* \"#utility.yul\":8915:9184   */\n    tag_76:\n        /* \"#utility.yul\":9025:9064   */\n      tag_180\n        /* \"#utility.yul\":9056:9063   */\n      dup4\n        /* \"#utility.yul\":9025:9064   */\n      tag_74\n      jump\t// in\n    tag_180:\n        /* \"#utility.yul\":9086:9177   */\n      tag_181\n        /* \"#utility.yul\":9135:9176   */\n      tag_182\n        /* \"#utility.yul\":9159:9175   */\n      dup3\n        /* \"#utility.yul\":9135:9176   */\n      tag_75\n      jump\t// in\n    tag_182:\n        /* \"#utility.yul\":9127:9133   */\n      dup5\n        /* \"#utility.yul\":9120:9124   */\n      dup5\n        /* \"#utility.yul\":9114:9125   */\n      sload\n        /* \"#utility.yul\":9086:9177   */\n      tag_72\n      jump\t// in\n    tag_181:\n        /* \"#utility.yul\":9080:9084   */\n      dup3\n        /* \"#utility.yul\":9073:9178   */\n      sstore\n        /* \"#utility.yul\":8991:9184   */\n      pop\n        /* \"#utility.yul\":8915:9184   */\n      pop\n      pop\n      pop\n      jump\t// out\n        /* \"#utility.yul\":9190:9263   */\n    tag_77:\n        /* \"#utility.yul\":9235:9238   */\n      0x00\n        /* \"#utility.yul\":9190:9263   */\n      swap1\n      jump\t// out\n        /* \"#utility.yul\":9269:9458   */\n    tag_78:\n        /* \"#utility.yul\":9346:9378   */\n      tag_185\n      tag_77\n      jump\t// in\n    tag_185:\n        /* \"#utility.yul\":9387:9452   */\n      tag_186\n        /* \"#utility.yul\":9445:9451   */\n      dup2\n        /* \"#utility.yul\":9437:9443   */\n      dup5\n        /* \"#utility.yul\":9431:9435   */\n      dup5\n        /* \"#utility.yul\":9387:9452   */\n      tag_76\n      jump\t// in\n    tag_186:\n        /* \"#utility.yul\":9322:9458   */\n      pop\n        /* \"#utility.yul\":9269:9458   */\n      pop\n      pop\n      jump\t// out\n        /* \"#utility.yul\":9464:9650   */\n    tag_79:\n        /* \"#utility.yul\":9524:9644   */\n    tag_188:\n        /* \"#utility.yul\":9541:9544   */\n      dup2\n        /* \"#utility.yul\":9534:9539   */\n      dup2\n        /* \"#utility.yul\":9531:9545   */\n      lt\n        /* \"#utility.yul\":9524:9644   */\n      iszero\n      tag_190\n      jumpi\n        /* \"#utility.yul\":9595:9634   */\n      tag_191\n        /* \"#utility.yul\":9632:9633   */\n      0x00\n        /* \"#utility.yul\":9625:9630   */\n      dup3\n        /* \"#utility.yul\":9595:9634   */\n      tag_78\n      jump\t// in\n    tag_191:\n        /* \"#utility.yul\":9568:9569   */\n      0x01\n        /* \"#utility.yul\":9561:9566   */\n      dup2\n        /* \"#utility.yul\":9557:9570   */\n      add\n        /* \"#utility.yul\":9548:9570   */\n      swap1\n      pop\n        /* \"#utility.yul\":9524:9644   */\n      jump(tag_188)\n    tag_190:\n        /* \"#utility.yul\":9464:9650   */\n      pop\n      pop\n      jump\t// out\n        /* \"#utility.yul\":9656:10199   */\n    tag_80:\n        /* \"#utility.yul\":9757:9759   */\n      0x1f\n        /* \"#utility.yul\":9752:9755   */\n      dup3\n        /* \"#utility.yul\":9749:9760   */\n      gt\n        /* \"#utility.yul\":9746:10192   */\n      iszero\n      tag_193\n      jumpi\n        /* \"#utility.yul\":9791:9829   */\n      tag_194\n        /* \"#utility.yul\":9823:9828   */\n      dup2\n        /* \"#utility.yul\":9791:9829   */\n      tag_69\n      jump\t// in\n    tag_194:\n        /* \"#utility.yul\":9875:9904   */\n      tag_195\n        /* \"#utility.yul\":9893:9903   */\n      dup5\n        /* \"#utility.yul\":9875:9904   */\n      tag_70\n      jump\t// in\n    tag_195:\n        /* \"#utility.yul\":9865:9873   */\n      dup2\n        /* \"#utility.yul\":9861:9905   */\n      add\n        /* \"#utility.yul\":10058:10060   */\n      0x20\n        /* \"#utility.yul\":10046:10056   */\n      dup6\n        /* \"#utility.yul\":10043:10061   */\n      lt\n        /* \"#utility.yul\":10040:10089   */\n      iszero\n      tag_196\n      jumpi\n        /* \"#utility.yul\":10079:10087   */\n      dup2\n        /* \"#utility.yul\":10064:10087   */\n      swap1\n      pop\n        /* \"#utility.yul\":10040:10089   */\n    tag_196:\n        /* \"#utility.yul\":10102:10182   */\n      tag_197\n        /* \"#utility.yul\":10158:10180   */\n      tag_198\n        /* \"#utility.yul\":10176:10179   */\n      dup6\n        /* \"#utility.yul\":10158:10180   */\n      tag_70\n      jump\t// in\n    tag_198:\n        /* \"#utility.yul\":10148:10156   */\n      dup4\n        /* \"#utility.yul\":10144:10181   */\n      add\n        /* \"#utility.yul\":10131:10142   */\n      dup3\n        /* \"#utility.yul\":10102:10182   */\n      tag_79\n      jump\t// in\n    tag_197:\n        /* \"#utility.yul\":9761:10192   */\n      pop\n      pop\n        /* \"#utility.yul\":9746:10192   */\n    tag_193:\n        /* \"#utility.yul\":9656:10199   */\n      pop\n      pop\n      pop\n      jump\t// out\n        /* \"#utility.yul\":10205:10322   */\n    tag_81:\n        /* \"#utility.yul\":10259:10267   */\n      0x00\n        /* \"#utility.yul\":10309:10314   */\n      dup3\n        /* \"#utility.yul\":10303:10307   */\n      dup3\n        /* \"#utility.yul\":10299:10315   */\n      shr\n        /* \"#utility.yul\":10278:10315   */\n      swap1\n      pop\n        /* \"#utility.yul\":10205:10322   */\n      swap3\n      swap2\n      pop\n      pop\n      jump\t// out\n        /* \"#utility.yul\":10328:10497   */\n    tag_82:\n        /* \"#utility.yul\":10372:10378   */\n      0x00\n        /* \"#utility.yul\":10405:10456   */\n      tag_201\n        /* \"#utility.yul\":10453:10454   */\n      0x00\n        /* \"#utility.yul\":10449:10455   */\n      not\n        /* \"#utility.yul\":10441:10446   */\n      dup5\n        /* \"#utility.yul\":10438:10439   */\n      0x08\n        /* \"#utility.yul\":10434:10447   */\n      mul\n        /* \"#utility.yul\":10405:10456   */\n      tag_81\n      jump\t// in\n    tag_201:\n        /* \"#utility.yul\":10401:10457   */\n      not\n        /* \"#utility.yul\":10486:10490   */\n      dup1\n        /* \"#utility.yul\":10480:10484   */\n      dup4\n        /* \"#utility.yul\":10476:10491   */\n      and\n        /* \"#utility.yul\":10466:10491   */\n      swap2\n      pop\n        /* \"#utility.yul\":10379:10497   */\n      pop\n        /* \"#utility.yul\":10328:10497   */\n      swap3\n      swap2\n      pop\n      pop\n      jump\t// out\n        /* \"#utility.yul\":10502:10797   */\n    tag_83:\n        /* \"#utility.yul\":10578:10582   */\n      0x00\n        /* \"#utility.yul\":10724:10753   */\n      tag_203\n        /* \"#utility.yul\":10749:10752   */\n      dup4\n        /* \"#utility.yul\":10743:10747   */\n      dup4\n        /* \"#utility.yul\":10724:10753   */\n      tag_82\n      jump\t// in\n    tag_203:\n        /* \"#utility.yul\":10716:10753   */\n      swap2\n      pop\n        /* \"#utility.yul\":10786:10789   */\n      dup3\n        /* \"#utility.yul\":10783:10784   */\n      0x02\n        /* \"#utility.yul\":10779:10790   */\n      mul\n        /* \"#utility.yul\":10773:10777   */\n      dup3\n        /* \"#utility.yul\":10770:10791   */\n      or\n        /* \"#utility.yul\":10762:10791   */\n      swap1\n      pop\n        /* \"#utility.yul\":10502:10797   */\n      swap3\n      swap2\n      pop\n      pop\n      jump\t// out\n        /* \"#utility.yul\":10802:12197   */\n    tag_23:\n        /* \"#utility.yul\":10919:10956   */\n      tag_205\n        /* \"#utility.yul\":10952:10955   */\n      dup3\n        /* \"#utility.yul\":10919:10956   */\n      tag_59\n      jump\t// in\n    tag_205:\n        /* \"#utility.yul\":11021:11039   */\n      0xffffffffffffffff\n        /* \"#utility.yul\":11013:11019   */\n      dup2\n        /* \"#utility.yul\":11010:11040   */\n      gt\n        /* \"#utility.yul\":11007:11063   */\n      iszero\n      tag_206\n      jumpi\n        /* \"#utility.yul\":11043:11061   */\n      tag_207\n      tag_48\n      jump\t// in\n    tag_207:\n        /* \"#utility.yul\":11007:11063   */\n    tag_206:\n        /* \"#utility.yul\":11087:11125   */\n      tag_208\n        /* \"#utility.yul\":11119:11123   */\n      dup3\n        /* \"#utility.yul\":11113:11124   */\n      sload\n        /* \"#utility.yul\":11087:11125   */\n      tag_32\n      jump\t// in\n    tag_208:\n        /* \"#utility.yul\":11172:11239   */\n      tag_209\n        /* \"#utility.yul\":11232:11238   */\n      dup3\n        /* \"#utility.yul\":11224:11230   */\n      dup3\n        /* \"#utility.yul\":11218:11222   */\n      dup6\n        /* \"#utility.yul\":11172:11239   */\n      tag_80\n      jump\t// in\n    tag_209:\n        /* \"#utility.yul\":11266:11267   */\n      0x00\n        /* \"#utility.yul\":11290:11294   */\n      0x20\n        /* \"#utility.yul\":11277:11294   */\n      swap1\n      pop\n        /* \"#utility.yul\":11322:11324   */\n      0x1f\n        /* \"#utility.yul\":11314:11320   */\n      dup4\n        /* \"#utility.yul\":11311:11325   */\n      gt\n        /* \"#utility.yul\":11339:11340   */\n      0x01\n        /* \"#utility.yul\":11334:11952   */\n      dup2\n      eq\n      tag_211\n      jumpi\n        /* \"#utility.yul\":11996:11997   */\n      0x00\n        /* \"#utility.yul\":12013:12019   */\n      dup5\n        /* \"#utility.yul\":12010:12087   */\n      iszero\n      tag_212\n      jumpi\n        /* \"#utility.yul\":12062:12071   */\n      dup3\n        /* \"#utility.yul\":12057:12060   */\n      dup8\n        /* \"#utility.yul\":12053:12072   */\n      add\n        /* \"#utility.yul\":12047:12073   */\n      mload\n        /* \"#utility.yul\":12038:12073   */\n      swap1\n      pop\n        /* \"#utility.yul\":12010:12087   */\n    tag_212:\n        /* \"#utility.yul\":12113:12180   */\n      tag_213\n        /* \"#utility.yul\":12173:12179   */\n      dup6\n        /* \"#utility.yul\":12166:12171   */\n      dup3\n        /* \"#utility.yul\":12113:12180   */\n      tag_83\n      jump\t// in\n    tag_213:\n        /* \"#utility.yul\":12107:12111   */\n      dup7\n        /* \"#utility.yul\":12100:12181   */\n      sstore\n        /* \"#utility.yul\":11969:12191   */\n      pop\n        /* \"#utility.yul\":11304:12191   */\n      jump(tag_210)\n        /* \"#utility.yul\":11334:11952   */\n    tag_211:\n        /* \"#utility.yul\":11386:11390   */\n      0x1f\n        /* \"#utility.yul\":11382:11391   */\n      not\n        /* \"#utility.yul\":11374:11380   */\n      dup5\n        /* \"#utility.yul\":11370:11392   */\n      and\n        /* \"#utility.yul\":11420:11457   */\n      tag_214\n        /* \"#utility.yul\":11452:11456   */\n      dup7\n        /* \"#utility.yul\":11420:11457   */\n      tag_69\n      jump\t// in\n    tag_214:\n        /* \"#utility.yul\":11479:11480   */\n      0x00\n        /* \"#utility.yul\":11493:11701   */\n    tag_215:\n        /* \"#utility.yul\":11507:11514   */\n      dup3\n        /* \"#utility.yul\":11504:11505   */\n      dup2\n        /* \"#utility.yul\":11501:11515   */\n      lt\n        /* \"#utility.yul\":11493:11701   */\n      iszero\n      tag_217\n      jumpi\n        /* \"#utility.yul\":11586:11595   */\n      dup5\n        /* \"#utility.yul\":11581:11584   */\n      dup10\n        /* \"#utility.yul\":11577:11596   */\n      add\n        /* \"#utility.yul\":11571:11597   */\n      mload\n        /* \"#utility.yul\":11563:11569   */\n      dup3\n        /* \"#utility.yul\":11556:11598   */\n      sstore\n        /* \"#utility.yul\":11637:11638   */\n      0x01\n        /* \"#utility.yul\":11629:11635   */\n      dup3\n        /* \"#utility.yul\":11625:11639   */\n      add\n        /* \"#utility.yul\":11615:11639   */\n      swap2\n      pop\n        /* \"#utility.yul\":11684:11686   */\n      0x20\n        /* \"#utility.yul\":11673:11682   */\n      dup6\n        /* \"#utility.yul\":11669:11687   */\n      add\n        /* \"#utility.yul\":11656:11687   */\n      swap5\n      pop\n        /* \"#utility.yul\":11530:11534   */\n      0x20\n        /* \"#utility.yul\":11527:11528   */\n      dup2\n        /* \"#utility.yul\":11523:11535   */\n      add\n        /* \"#utility.yul\":11518:11535   */\n      swap1\n      pop\n        /* \"#utility.yul\":11493:11701   */\n      jump(tag_215)\n    tag_217:\n        /* \"#utility.yul\":11729:11735   */\n      dup7\n        /* \"#utility.yul\":11720:11727   */\n      dup4\n        /* \"#utility.yul\":11717:11736   */\n      lt\n        /* \"#utility.yul\":11714:11893   */\n      iszero\n      tag_218\n      jumpi\n        /* \"#utility.yul\":11787:11796   */\n      dup5\n        /* \"#utility.yul\":11782:11785   */\n      dup10\n        /* \"#utility.yul\":11778:11797   */\n      add\n        /* \"#utility.yul\":11772:11798   */\n      mload\n        /* \"#utility.yul\":11830:11878   */\n      tag_219\n        /* \"#utility.yul\":11872:11876   */\n      0x1f\n        /* \"#utility.yul\":11864:11870   */\n      dup10\n        /* \"#utility.yul\":11860:11877   */\n      and\n        /* \"#utility.yul\":11849:11858   */\n      dup3\n        /* \"#utility.yul\":11830:11878   */\n      tag_82\n      jump\t// in\n    tag_219:\n        /* \"#utility.yul\":11822:11828   */\n      dup4\n        /* \"#utility.yul\":11815:11879   */\n      sstore\n        /* \"#utility.yul\":11737:11893   */\n      pop\n        /* \"#utility.yul\":11714:11893   */\n    tag_218:\n        /* \"#utility.yul\":11939:11940   */\n      0x01\n        /* \"#utility.yul\":11935:11936   */\n      0x02\n        /* \"#utility.yul\":11927:11933   */\n      dup9\n        /* \"#utility.yul\":11923:11937   */\n      mul\n        /* \"#utility.yul\":11919:11941   */\n      add\n        /* \"#utility.yul\":11913:11917   */\n      dup9\n        /* \"#utility.yul\":11906:11942   */\n      sstore\n        /* \"#utility.yul\":11341:11952   */\n      pop\n      pop\n      pop\n        /* \"#utility.yul\":11304:12191   */\n    tag_210:\n      pop\n        /* \"#utility.yul\":10894:12197   */\n      pop\n      pop\n      pop\n        /* \"#utility.yul\":10802:12197   */\n      pop\n      pop\n      jump\t// out\n        /* \"#utility.yul\":12203:12383   */\n    tag_84:\n        /* \"#utility.yul\":12251:12328   */\n      0x4e487b7100000000000000000000000000000000000000000000000000000000\n        /* \"#utility.yul\":12248:12249   */\n      0x00\n        /* \"#utility.yul\":12241:12329   */\n      mstore\n        /* \"#utility.yul\":12348:12352   */\n      0x11\n        /* \"#utility.yul\":12345:12346   */\n      0x04\n        /* \"#utility.yul\":12338:12353   */\n      mstore\n        /* \"#utility.yul\":12372:12376   */\n      0x24\n        /* \"#utility.yul\":12369:12370   */\n      0x00\n        /* \"#utility.yul\":12362:12377   */\n      revert\n        /* \"#utility.yul\":12389:12622   */\n    tag_26:\n        /* \"#utility.yul\":12428:12431   */\n      0x00\n        /* \"#utility.yul\":12451:12475   */\n      tag_222\n        /* \"#utility.yul\":12469:12474   */\n      dup3\n        /* \"#utility.yul\":12451:12475   */\n      tag_55\n      jump\t// in\n    tag_222:\n        /* \"#utility.yul\":12442:12475   */\n      swap2\n      pop\n        /* \"#utility.yul\":12497:12563   */\n      0xffffffffffffffffffffffffffffffffffffffffffffffffffffffffffffffff\n        /* \"#utility.yul\":12490:12495   */\n      dup3\n        /* \"#utility.yul\":12487:12564   */\n      sub\n        /* \"#utility.yul\":12484:12587   */\n      tag_223\n      jumpi\n        /* \"#utility.yul\":12567:12585   */\n      tag_224\n      tag_84\n      jump\t// in\n    tag_224:\n        /* \"#utility.yul\":12484:12587   */\n    tag_223:\n        /* \"#utility.yul\":12614:12615   */\n      0x01\n        /* \"#utility.yul\":12607:12612   */\n      dup3\n        /* \"#utility.yul\":12603:12616   */\n      add\n        /* \"#utility.yul\":12596:12616   */\n      swap1\n      pop\n        /* \"#utility.yul\":12389:12622   */\n      swap2\n      swap1\n      pop\n      jump\t// out\n        /* \"#utility.yul\":12628:13051   */\n    tag_28:\n        /* \"#utility.yul\":12769:12773   */\n      0x00\n        /* \"#utility.yul\":12807:12809   */\n      0x40\n        /* \"#utility.yul\":12796:12805   */\n      dup3\n        /* \"#utility.yul\":12792:12810   */\n      add\n        /* \"#utility.yul\":12784:12810   */\n      swap1\n      pop\n        /* \"#utility.yul\":12856:12865   */\n      dup2\n        /* \"#utility.yul\":12850:12854   */\n      dup2\n        /* \"#utility.yul\":12846:12866   */\n      sub\n        /* \"#utility.yul\":12842:12843   */\n      0x00\n        /* \"#utility.yul\":12831:12840   */\n      dup4\n        /* \"#utility.yul\":12827:12844   */\n      add\n        /* \"#utility.yul\":12820:12867   */\n      mstore\n        /* \"#utility.yul\":12884:12962   */\n      tag_226\n        /* \"#utility.yul\":12957:12961   */\n      dup2\n        /* \"#utility.yul\":12948:12954   */\n      dup6\n        /* \"#utility.yul\":12884:12962   */\n      tag_62\n      jump\t// in\n    tag_226:\n        /* \"#utility.yul\":12876:12962   */\n      swap1\n      pop\n        /* \"#utility.yul\":12972:13044   */\n      tag_227\n        /* \"#utility.yul\":13040:13042   */\n      0x20\n        /* \"#utility.yul\":13029:13038   */\n      dup4\n        /* \"#utility.yul\":13025:13043   */\n      add\n        /* \"#utility.yul\":13016:13022   */\n      dup5\n        /* \"#utility.yul\":12972:13044   */\n      tag_58\n      jump\t// in\n    tag_227:\n        /* \"#utility.yul\":12628:13051   */\n      swap4\n      swap3\n      pop\n      pop\n      pop\n      jump\t// out\n\n    auxdata: 0xa26469706673582212201266d16aa33964c1545d5c0999f81cfd41408720ee0cef72cb3e89cbfceea55564736f6c63430008190033\n}\n",
				"bytecode": {
					"linkReferences": {},
					"object": "608060405260015f553480156012575f80fd5b50610af6806100205f395ff3fe608060405234801561000f575f80fd5b5060043610610034575f3560e01c80633153a15b146100385780637acc0b2014610054575b5f80fd5b610052600480360381019061004d919061052d565b610088565b005b61006e600480360381019061006991906105b5565b6101ff565b60405161007f95949392919061068e565b60405180910390f35b5f81116100ca576040517f08c379a00000000000000000000000000000000000000000000000000000000081526004016100c190610737565b60405180910390fd5b6100d261036b565b838160200181905250828160600181905250818160400181815250505f54815f018181525050600181908060018154018082558091505060019003905f5260205f2090600502015f909190919091505f820151815f0155602082015181600101908161013e919061094f565b5060408201518160020155606082015181600301908161015e919061094f565b506080820151816004015f6101000a81548173ffffffffffffffffffffffffffffffffffffffff021916908373ffffffffffffffffffffffffffffffffffffffff16021790555050505f808154809291906101b890610a4b565b91905055507fe9300c6ca7da27f6fbd35b68f168d1b203a732ab98fe0d53c954f2cdc7c4baa984825f01516040516101f1929190610a92565b60405180910390a150505050565b6001818154811061020e575f80fd5b905f5260205f2090600502015f91509050805f01549080600101805461023390610782565b80601f016020809104026020016040519081016040528092919081815260200182805461025f90610782565b80156102aa5780601f10610281576101008083540402835291602001916102aa565b820191905f5260205f20905b81548152906001019060200180831161028d57829003601f168201915b5050505050908060020154908060030180546102c590610782565b80601f01602080910402602001604051908101604052809291908181526020018280546102f190610782565b801561033c5780601f106103135761010080835404028352916020019161033c565b820191905f5260205f20905b81548152906001019060200180831161031f57829003601f168201915b505050505090806004015f9054906101000a900473ffffffffffffffffffffffffffffffffffffffff16905085565b6040518060a001604052805f8152602001606081526020015f8152602001606081526020015f73ffffffffffffffffffffffffffffffffffffffff1681525090565b5f604051905090565b5f80fd5b5f80fd5b5f80fd5b5f80fd5b5f601f19601f8301169050919050565b7f4e487b71000000000000000000000000000000000000000000000000000000005f52604160045260245ffd5b61040c826103c6565b810181811067ffffffffffffffff8211171561042b5761042a6103d6565b5b80604052505050565b5f61043d6103ad565b90506104498282610403565b919050565b5f67ffffffffffffffff821115610468576104676103d6565b5b610471826103c6565b9050602081019050919050565b828183375f83830152505050565b5f61049e6104998461044e565b610434565b9050828152602081018484840111156104ba576104b96103c2565b5b6104c584828561047e565b509392505050565b5f82601f8301126104e1576104e06103be565b5b81356104f184826020860161048c565b91505092915050565b5f819050919050565b61050c816104fa565b8114610516575f80fd5b50565b5f8135905061052781610503565b92915050565b5f805f60608486031215610544576105436103b6565b5b5f84013567ffffffffffffffff811115610561576105606103ba565b5b61056d868287016104cd565b935050602084013567ffffffffffffffff81111561058e5761058d6103ba565b5b61059a868287016104cd565b92505060406105ab86828701610519565b9150509250925092565b5f602082840312156105ca576105c96103b6565b5b5f6105d784828501610519565b91505092915050565b6105e9816104fa565b82525050565b5f81519050919050565b5f82825260208201905092915050565b8281835e5f83830152505050565b5f610621826105ef565b61062b81856105f9565b935061063b818560208601610609565b610644816103c6565b840191505092915050565b5f73ffffffffffffffffffffffffffffffffffffffff82169050919050565b5f6106788261064f565b9050919050565b6106888161066e565b82525050565b5f60a0820190506106a15f8301886105e0565b81810360208301526106b38187610617565b90506106c260408301866105e0565b81810360608301526106d48185610617565b90506106e3608083018461067f565b9695505050505050565b7f5072696365206d7573742062652061626f7665207a65726f00000000000000005f82015250565b5f6107216018836105f9565b915061072c826106ed565b602082019050919050565b5f6020820190508181035f83015261074e81610715565b9050919050565b7f4e487b71000000000000000000000000000000000000000000000000000000005f52602260045260245ffd5b5f600282049050600182168061079957607f821691505b6020821081036107ac576107ab610755565b5b50919050565b5f819050815f5260205f209050919050565b5f6020601f8301049050919050565b5f82821b905092915050565b5f6008830261080e7fffffffffffffffffffffffffffffffffffffffffffffffffffffffffffffffff826107d3565b61081886836107d3565b95508019841693508086168417925050509392505050565b5f819050919050565b5f61085361084e610849846104fa565b610830565b6104fa565b9050919050565b5f819050919050565b61086c83610839565b6108806108788261085a565b8484546107df565b825550505050565b5f90565b610894610888565b61089f818484610863565b505050565b5b818110156108c2576108b75f8261088c565b6001810190506108a5565b5050565b601f821115610907576108d8816107b2565b6108e1846107c4565b810160208510156108f0578190505b6109046108fc856107c4565b8301826108a4565b50505b505050565b5f82821c905092915050565b5f6109275f198460080261090c565b1980831691505092915050565b5f61093f8383610918565b9150826002028217905092915050565b610958826105ef565b67ffffffffffffffff811115610971576109706103d6565b5b61097b8254610782565b6109868282856108c6565b5f60209050601f8311600181146109b7575f84156109a5578287015190505b6109af8582610934565b865550610a16565b601f1984166109c5866107b2565b5f5b828110156109ec578489015182556001820191506020850194506020810190506109c7565b86831015610a095784890151610a05601f891682610918565b8355505b6001600288020188555050505b505050505050565b7f4e487b71000000000000000000000000000000000000000000000000000000005f52601160045260245ffd5b5f610a55826104fa565b91507fffffffffffffffffffffffffffffffffffffffffffffffffffffffffffffffff8203610a8757610a86610a1e565b5b600182019050919050565b5f6040820190508181035f830152610aaa8185610617565b9050610ab960208301846105e0565b939250505056fea26469706673582212201266d16aa33964c1545d5c0999f81cfd41408720ee0cef72cb3e89cbfceea55564736f6c63430008190033",
					"opcodes": "PUSH1 0x80 PUSH1 0x40 MSTORE PUSH1 0x1 PUSH0 SSTORE CALLVALUE DUP1 ISZERO PUSH1 0x12 JUMPI PUSH0 DUP1 REVERT JUMPDEST POP PUSH2 0xAF6 DUP1 PUSH2 0x20 PUSH0 CODECOPY PUSH0 RETURN INVALID PUSH1 0x80 PUSH1 0x40 MSTORE CALLVALUE DUP1 ISZERO PUSH2 0xF JUMPI PUSH0 DUP1 REVERT JUMPDEST POP PUSH1 0x4 CALLDATASIZE LT PUSH2 0x34 JUMPI PUSH0 CALLDATALOAD PUSH1 0xE0 SHR DUP1 PUSH4 0x3153A15B EQ PUSH2 0x38 JUMPI DUP1 PUSH4 0x7ACC0B20 EQ PUSH2 0x54 JUMPI JUMPDEST PUSH0 DUP1 REVERT JUMPDEST PUSH2 0x52 PUSH1 0x4 DUP1 CALLDATASIZE SUB DUP2 ADD SWAP1 PUSH2 0x4D SWAP2 SWAP1 PUSH2 0x52D JUMP JUMPDEST PUSH2 0x88 JUMP JUMPDEST STOP JUMPDEST PUSH2 0x6E PUSH1 0x4 DUP1 CALLDATASIZE SUB DUP2 ADD SWAP1 PUSH2 0x69 SWAP2 SWAP1 PUSH2 0x5B5 JUMP JUMPDEST PUSH2 0x1FF JUMP JUMPDEST PUSH1 0x40 MLOAD PUSH2 0x7F SWAP6 SWAP5 SWAP4 SWAP3 SWAP2 SWAP1 PUSH2 0x68E JUMP JUMPDEST PUSH1 0x40 MLOAD DUP1 SWAP2 SUB SWAP1 RETURN JUMPDEST PUSH0 DUP2 GT PUSH2 0xCA JUMPI PUSH1 0x40 MLOAD PUSH32 0x8C379A000000000000000000000000000000000000000000000000000000000 DUP2 MSTORE PUSH1 0x4 ADD PUSH2 0xC1 SWAP1 PUSH2 0x737 JUMP JUMPDEST PUSH1 0x40 MLOAD DUP1 SWAP2 SUB SWAP1 REVERT JUMPDEST PUSH2 0xD2 PUSH2 0x36B JUMP JUMPDEST DUP4 DUP2 PUSH1 0x20 ADD DUP2 SWAP1 MSTORE POP DUP3 DUP2 PUSH1 0x60 ADD DUP2 SWAP1 MSTORE POP DUP2 DUP2 PUSH1 0x40 ADD DUP2 DUP2 MSTORE POP POP PUSH0 SLOAD DUP2 PUSH0 ADD DUP2 DUP2 MSTORE POP POP PUSH1 0x1 DUP2 SWAP1 DUP1 PUSH1 0x1 DUP2 SLOAD ADD DUP1 DUP3 SSTORE DUP1 SWAP2 POP POP PUSH1 0x1 SWAP1 SUB SWAP1 PUSH0 MSTORE PUSH1 0x20 PUSH0 KECCAK256 SWAP1 PUSH1 0x5 MUL ADD PUSH0 SWAP1 SWAP2 SWAP1 SWAP2 SWAP1 SWAP2 POP PUSH0 DUP3 ADD MLOAD DUP2 PUSH0 ADD SSTORE PUSH1 0x20 DUP3 ADD MLOAD DUP2 PUSH1 0x1 ADD SWAP1 DUP2 PUSH2 0x13E SWAP2 SWAP1 PUSH2 0x94F JUMP JUMPDEST POP PUSH1 0x40 DUP3 ADD MLOAD DUP2 PUSH1 0x2 ADD SSTORE PUSH1 0x60 DUP3 ADD MLOAD DUP2 PUSH1 0x3 ADD SWAP1 DUP2 PUSH2 0x15E SWAP2 SWAP1 PUSH2 0x94F JUMP JUMPDEST POP PUSH1 0x80 DUP3 ADD MLOAD DUP2 PUSH1 0x4 ADD PUSH0 PUSH2 0x100 EXP DUP2 SLOAD DUP2 PUSH20 0xFFFFFFFFFFFFFFFFFFFFFFFFFFFFFFFFFFFFFFFF MUL NOT AND SWAP1 DUP4 PUSH20 0xFFFFFFFFFFFFFFFFFFFFFFFFFFFFFFFFFFFFFFFF AND MUL OR SWAP1 SSTORE POP POP POP PUSH0 DUP1 DUP2 SLOAD DUP1 SWAP3 SWAP2 SWAP1 PUSH2 0x1B8 SWAP1 PUSH2 0xA4B JUMP JUMPDEST SWAP2 SWAP1 POP SSTORE POP PUSH32 0xE9300C6CA7DA27F6FBD35B68F168D1B203A732AB98FE0D53C954F2CDC7C4BAA9 DUP5 DUP3 PUSH0 ADD MLOAD PUSH1 0x40 MLOAD PUSH2 0x1F1 SWAP3 SWAP2 SWAP1 PUSH2 0xA92 JUMP JUMPDEST PUSH1 0x40 MLOAD DUP1 SWAP2 SUB SWAP1 LOG1 POP POP POP POP JUMP JUMPDEST PUSH1 0x1 DUP2 DUP2 SLOAD DUP2 LT PUSH2 0x20E JUMPI PUSH0 DUP1 REVERT JUMPDEST SWAP1 PUSH0 MSTORE PUSH1 0x20 PUSH0 KECCAK256 SWAP1 PUSH1 0x5 MUL ADD PUSH0 SWAP2 POP SWAP1 POP DUP1 PUSH0 ADD SLOAD SWAP1 DUP1 PUSH1 0x1 ADD DUP1 SLOAD PUSH2 0x233 SWAP1 PUSH2 0x782 JUMP JUMPDEST DUP1 PUSH1 0x1F ADD PUSH1 0x20 DUP1 SWAP2 DIV MUL PUSH1 0x20 ADD PUSH1 0x40 MLOAD SWAP1 DUP2 ADD PUSH1 0x40 MSTORE DUP1 SWAP3 SWAP2 SWAP1 DUP2 DUP2 MSTORE PUSH1 0x20 ADD DUP3 DUP1 SLOAD PUSH2 0x25F SWAP1 PUSH2 0x782 JUMP JUMPDEST DUP1 ISZERO PUSH2 0x2AA JUMPI DUP1 PUSH1 0x1F LT PUSH2 0x281 JUMPI PUSH2 0x100 DUP1 DUP4 SLOAD DIV MUL DUP4 MSTORE SWAP2 PUSH1 0x20 ADD SWAP2 PUSH2 0x2AA JUMP JUMPDEST DUP3 ADD SWAP2 SWAP1 PUSH0 MSTORE PUSH1 0x20 PUSH0 KECCAK256 SWAP1 JUMPDEST DUP2 SLOAD DUP2 MSTORE SWAP1 PUSH1 0x1 ADD SWAP1 PUSH1 0x20 ADD DUP1 DUP4 GT PUSH2 0x28D JUMPI DUP3 SWAP1 SUB PUSH1 0x1F AND DUP3 ADD SWAP2 JUMPDEST POP POP POP POP POP SWAP1 DUP1 PUSH1 0x2 ADD SLOAD SWAP1 DUP1 PUSH1 0x3 ADD DUP1 SLOAD PUSH2 0x2C5 SWAP1 PUSH2 0x782 JUMP JUMPDEST DUP1 PUSH1 0x1F ADD PUSH1 0x20 DUP1 SWAP2 DIV MUL PUSH1 0x20 ADD PUSH1 0x40 MLOAD SWAP1 DUP2 ADD PUSH1 0x40 MSTORE DUP1 SWAP3 SWAP2 SWAP1 DUP2 DUP2 MSTORE PUSH1 0x20 ADD DUP3 DUP1 SLOAD PUSH2 0x2F1 SWAP1 PUSH2 0x782 JUMP JUMPDEST DUP1 ISZERO PUSH2 0x33C JUMPI DUP1 PUSH1 0x1F LT PUSH2 0x313 JUMPI PUSH2 0x100 DUP1 DUP4 SLOAD DIV MUL DUP4 MSTORE SWAP2 PUSH1 0x20 ADD SWAP2 PUSH2 0x33C JUMP JUMPDEST DUP3 ADD SWAP2 SWAP1 PUSH0 MSTORE PUSH1 0x20 PUSH0 KECCAK256 SWAP1 JUMPDEST DUP2 SLOAD DUP2 MSTORE SWAP1 PUSH1 0x1 ADD SWAP1 PUSH1 0x20 ADD DUP1 DUP4 GT PUSH2 0x31F JUMPI DUP3 SWAP1 SUB PUSH1 0x1F AND DUP3 ADD SWAP2 JUMPDEST POP POP POP POP POP SWAP1 DUP1 PUSH1 0x4 ADD PUSH0 SWAP1 SLOAD SWAP1 PUSH2 0x100 EXP SWAP1 DIV PUSH20 0xFFFFFFFFFFFFFFFFFFFFFFFFFFFFFFFFFFFFFFFF AND SWAP1 POP DUP6 JUMP JUMPDEST PUSH1 0x40 MLOAD DUP1 PUSH1 0xA0 ADD PUSH1 0x40 MSTORE DUP1 PUSH0 DUP2 MSTORE PUSH1 0x20 ADD PUSH1 0x60 DUP2 MSTORE PUSH1 0x20 ADD PUSH0 DUP2 MSTORE PUSH1 0x20 ADD PUSH1 0x60 DUP2 MSTORE PUSH1 0x20 ADD PUSH0 PUSH20 0xFFFFFFFFFFFFFFFFFFFFFFFFFFFFFFFFFFFFFFFF AND DUP2 MSTORE POP SWAP1 JUMP JUMPDEST PUSH0 PUSH1 0x40 MLOAD SWAP1 POP SWAP1 JUMP JUMPDEST PUSH0 DUP1 REVERT JUMPDEST PUSH0 DUP1 REVERT JUMPDEST PUSH0 DUP1 REVERT JUMPDEST PUSH0 DUP1 REVERT JUMPDEST PUSH0 PUSH1 0x1F NOT PUSH1 0x1F DUP4 ADD AND SWAP1 POP SWAP2 SWAP1 POP JUMP JUMPDEST PUSH32 0x4E487B7100000000000000000000000000000000000000000000000000000000 PUSH0 MSTORE PUSH1 0x41 PUSH1 0x4 MSTORE PUSH1 0x24 PUSH0 REVERT JUMPDEST PUSH2 0x40C DUP3 PUSH2 0x3C6 JUMP JUMPDEST DUP2 ADD DUP2 DUP2 LT PUSH8 0xFFFFFFFFFFFFFFFF DUP3 GT OR ISZERO PUSH2 0x42B JUMPI PUSH2 0x42A PUSH2 0x3D6 JUMP JUMPDEST JUMPDEST DUP1 PUSH1 0x40 MSTORE POP POP POP JUMP JUMPDEST PUSH0 PUSH2 0x43D PUSH2 0x3AD JUMP JUMPDEST SWAP1 POP PUSH2 0x449 DUP3 DUP3 PUSH2 0x403 JUMP JUMPDEST SWAP2 SWAP1 POP JUMP JUMPDEST PUSH0 PUSH8 0xFFFFFFFFFFFFFFFF DUP3 GT ISZERO PUSH2 0x468 JUMPI PUSH2 0x467 PUSH2 0x3D6 JUMP JUMPDEST JUMPDEST PUSH2 0x471 DUP3 PUSH2 0x3C6 JUMP JUMPDEST SWAP1 POP PUSH1 0x20 DUP2 ADD SWAP1 POP SWAP2 SWAP1 POP JUMP JUMPDEST DUP3 DUP2 DUP4 CALLDATACOPY PUSH0 DUP4 DUP4 ADD MSTORE POP POP POP JUMP JUMPDEST PUSH0 PUSH2 0x49E PUSH2 0x499 DUP5 PUSH2 0x44E JUMP JUMPDEST PUSH2 0x434 JUMP JUMPDEST SWAP1 POP DUP3 DUP2 MSTORE PUSH1 0x20 DUP2 ADD DUP5 DUP5 DUP5 ADD GT ISZERO PUSH2 0x4BA JUMPI PUSH2 0x4B9 PUSH2 0x3C2 JUMP JUMPDEST JUMPDEST PUSH2 0x4C5 DUP5 DUP3 DUP6 PUSH2 0x47E JUMP JUMPDEST POP SWAP4 SWAP3 POP POP POP JUMP JUMPDEST PUSH0 DUP3 PUSH1 0x1F DUP4 ADD SLT PUSH2 0x4E1 JUMPI PUSH2 0x4E0 PUSH2 0x3BE JUMP JUMPDEST JUMPDEST DUP2 CALLDATALOAD PUSH2 0x4F1 DUP5 DUP3 PUSH1 0x20 DUP7 ADD PUSH2 0x48C JUMP JUMPDEST SWAP2 POP POP SWAP3 SWAP2 POP POP JUMP JUMPDEST PUSH0 DUP2 SWAP1 POP SWAP2 SWAP1 POP JUMP JUMPDEST PUSH2 0x50C DUP2 PUSH2 0x4FA JUMP JUMPDEST DUP2 EQ PUSH2 0x516 JUMPI PUSH0 DUP1 REVERT JUMPDEST POP JUMP JUMPDEST PUSH0 DUP2 CALLDATALOAD SWAP1 POP PUSH2 0x527 DUP2 PUSH2 0x503 JUMP JUMPDEST SWAP3 SWAP2 POP POP JUMP JUMPDEST PUSH0 DUP1 PUSH0 PUSH1 0x60 DUP5 DUP7 SUB SLT ISZERO PUSH2 0x544 JUMPI PUSH2 0x543 PUSH2 0x3B6 JUMP JUMPDEST JUMPDEST PUSH0 DUP5 ADD CALLDATALOAD PUSH8 0xFFFFFFFFFFFFFFFF DUP2 GT ISZERO PUSH2 0x561 JUMPI PUSH2 0x560 PUSH2 0x3BA JUMP JUMPDEST JUMPDEST PUSH2 0x56D DUP7 DUP3 DUP8 ADD PUSH2 0x4CD JUMP JUMPDEST SWAP4 POP POP PUSH1 0x20 DUP5 ADD CALLDATALOAD PUSH8 0xFFFFFFFFFFFFFFFF DUP2 GT ISZERO PUSH2 0x58E JUMPI PUSH2 0x58D PUSH2 0x3BA JUMP JUMPDEST JUMPDEST PUSH2 0x59A DUP7 DUP3 DUP8 ADD PUSH2 0x4CD JUMP JUMPDEST SWAP3 POP POP PUSH1 0x40 PUSH2 0x5AB DUP7 DUP3 DUP8 ADD PUSH2 0x519 JUMP JUMPDEST SWAP2 POP POP SWAP3 POP SWAP3 POP SWAP3 JUMP JUMPDEST PUSH0 PUSH1 0x20 DUP3 DUP5 SUB SLT ISZERO PUSH2 0x5CA JUMPI PUSH2 0x5C9 PUSH2 0x3B6 JUMP JUMPDEST JUMPDEST PUSH0 PUSH2 0x5D7 DUP5 DUP3 DUP6 ADD PUSH2 0x519 JUMP JUMPDEST SWAP2 POP POP SWAP3 SWAP2 POP POP JUMP JUMPDEST PUSH2 0x5E9 DUP2 PUSH2 0x4FA JUMP JUMPDEST DUP3 MSTORE POP POP JUMP JUMPDEST PUSH0 DUP2 MLOAD SWAP1 POP SWAP2 SWAP1 POP JUMP JUMPDEST PUSH0 DUP3 DUP3 MSTORE PUSH1 0x20 DUP3 ADD SWAP1 POP SWAP3 SWAP2 POP POP JUMP JUMPDEST DUP3 DUP2 DUP4 MCOPY PUSH0 DUP4 DUP4 ADD MSTORE POP POP POP JUMP JUMPDEST PUSH0 PUSH2 0x621 DUP3 PUSH2 0x5EF JUMP JUMPDEST PUSH2 0x62B DUP2 DUP6 PUSH2 0x5F9 JUMP JUMPDEST SWAP4 POP PUSH2 0x63B DUP2 DUP6 PUSH1 0x20 DUP7 ADD PUSH2 0x609 JUMP JUMPDEST PUSH2 0x644 DUP2 PUSH2 0x3C6 JUMP JUMPDEST DUP5 ADD SWAP2 POP POP SWAP3 SWAP2 POP POP JUMP JUMPDEST PUSH0 PUSH20 0xFFFFFFFFFFFFFFFFFFFFFFFFFFFFFFFFFFFFFFFF DUP3 AND SWAP1 POP SWAP2 SWAP1 POP JUMP JUMPDEST PUSH0 PUSH2 0x678 DUP3 PUSH2 0x64F JUMP JUMPDEST SWAP1 POP SWAP2 SWAP1 POP JUMP JUMPDEST PUSH2 0x688 DUP2 PUSH2 0x66E JUMP JUMPDEST DUP3 MSTORE POP POP JUMP JUMPDEST PUSH0 PUSH1 0xA0 DUP3 ADD SWAP1 POP PUSH2 0x6A1 PUSH0 DUP4 ADD DUP9 PUSH2 0x5E0 JUMP JUMPDEST DUP2 DUP2 SUB PUSH1 0x20 DUP4 ADD MSTORE PUSH2 0x6B3 DUP2 DUP8 PUSH2 0x617 JUMP JUMPDEST SWAP1 POP PUSH2 0x6C2 PUSH1 0x40 DUP4 ADD DUP7 PUSH2 0x5E0 JUMP JUMPDEST DUP2 DUP2 SUB PUSH1 0x60 DUP4 ADD MSTORE PUSH2 0x6D4 DUP2 DUP6 PUSH2 0x617 JUMP JUMPDEST SWAP1 POP PUSH2 0x6E3 PUSH1 0x80 DUP4 ADD DUP5 PUSH2 0x67F JUMP JUMPDEST SWAP7 SWAP6 POP POP POP POP POP POP JUMP JUMPDEST PUSH32 0x5072696365206D7573742062652061626F7665207A65726F0000000000000000 PUSH0 DUP3 ADD MSTORE POP JUMP JUMPDEST PUSH0 PUSH2 0x721 PUSH1 0x18 DUP4 PUSH2 0x5F9 JUMP JUMPDEST SWAP2 POP PUSH2 0x72C DUP3 PUSH2 0x6ED JUMP JUMPDEST PUSH1 0x20 DUP3 ADD SWAP1 POP SWAP2 SWAP1 POP JUMP JUMPDEST PUSH0 PUSH1 0x20 DUP3 ADD SWAP1 POP DUP2 DUP2 SUB PUSH0 DUP4 ADD MSTORE PUSH2 0x74E DUP2 PUSH2 0x715 JUMP JUMPDEST SWAP1 POP SWAP2 SWAP1 POP JUMP JUMPDEST PUSH32 0x4E487B7100000000000000000000000000000000000000000000000000000000 PUSH0 MSTORE PUSH1 0x22 PUSH1 0x4 MSTORE PUSH1 0x24 PUSH0 REVERT JUMPDEST PUSH0 PUSH1 0x2 DUP3 DIV SWAP1 POP PUSH1 0x1 DUP3 AND DUP1 PUSH2 0x799 JUMPI PUSH1 0x7F DUP3 AND SWAP2 POP JUMPDEST PUSH1 0x20 DUP3 LT DUP2 SUB PUSH2 0x7AC JUMPI PUSH2 0x7AB PUSH2 0x755 JUMP JUMPDEST JUMPDEST POP SWAP2 SWAP1 POP JUMP JUMPDEST PUSH0 DUP2 SWAP1 POP DUP2 PUSH0 MSTORE PUSH1 0x20 PUSH0 KECCAK256 SWAP1 POP SWAP2 SWAP1 POP JUMP JUMPDEST PUSH0 PUSH1 0x20 PUSH1 0x1F DUP4 ADD DIV SWAP1 POP SWAP2 SWAP1 POP JUMP JUMPDEST PUSH0 DUP3 DUP3 SHL SWAP1 POP SWAP3 SWAP2 POP POP JUMP JUMPDEST PUSH0 PUSH1 0x8 DUP4 MUL PUSH2 0x80E PUSH32 0xFFFFFFFFFFFFFFFFFFFFFFFFFFFFFFFFFFFFFFFFFFFFFFFFFFFFFFFFFFFFFFFF DUP3 PUSH2 0x7D3 JUMP JUMPDEST PUSH2 0x818 DUP7 DUP4 PUSH2 0x7D3 JUMP JUMPDEST SWAP6 POP DUP1 NOT DUP5 AND SWAP4 POP DUP1 DUP7 AND DUP5 OR SWAP3 POP POP POP SWAP4 SWAP3 POP POP POP JUMP JUMPDEST PUSH0 DUP2 SWAP1 POP SWAP2 SWAP1 POP JUMP JUMPDEST PUSH0 PUSH2 0x853 PUSH2 0x84E PUSH2 0x849 DUP5 PUSH2 0x4FA JUMP JUMPDEST PUSH2 0x830 JUMP JUMPDEST PUSH2 0x4FA JUMP JUMPDEST SWAP1 POP SWAP2 SWAP1 POP JUMP JUMPDEST PUSH0 DUP2 SWAP1 POP SWAP2 SWAP1 POP JUMP JUMPDEST PUSH2 0x86C DUP4 PUSH2 0x839 JUMP JUMPDEST PUSH2 0x880 PUSH2 0x878 DUP3 PUSH2 0x85A JUMP JUMPDEST DUP5 DUP5 SLOAD PUSH2 0x7DF JUMP JUMPDEST DUP3 SSTORE POP POP POP POP JUMP JUMPDEST PUSH0 SWAP1 JUMP JUMPDEST PUSH2 0x894 PUSH2 0x888 JUMP JUMPDEST PUSH2 0x89F DUP2 DUP5 DUP5 PUSH2 0x863 JUMP JUMPDEST POP POP POP JUMP JUMPDEST JUMPDEST DUP2 DUP2 LT ISZERO PUSH2 0x8C2 JUMPI PUSH2 0x8B7 PUSH0 DUP3 PUSH2 0x88C JUMP JUMPDEST PUSH1 0x1 DUP2 ADD SWAP1 POP PUSH2 0x8A5 JUMP JUMPDEST POP POP JUMP JUMPDEST PUSH1 0x1F DUP3 GT ISZERO PUSH2 0x907 JUMPI PUSH2 0x8D8 DUP2 PUSH2 0x7B2 JUMP JUMPDEST PUSH2 0x8E1 DUP5 PUSH2 0x7C4 JUMP JUMPDEST DUP2 ADD PUSH1 0x20 DUP6 LT ISZERO PUSH2 0x8F0 JUMPI DUP2 SWAP1 POP JUMPDEST PUSH2 0x904 PUSH2 0x8FC DUP6 PUSH2 0x7C4 JUMP JUMPDEST DUP4 ADD DUP3 PUSH2 0x8A4 JUMP JUMPDEST POP POP JUMPDEST POP POP POP JUMP JUMPDEST PUSH0 DUP3 DUP3 SHR SWAP1 POP SWAP3 SWAP2 POP POP JUMP JUMPDEST PUSH0 PUSH2 0x927 PUSH0 NOT DUP5 PUSH1 0x8 MUL PUSH2 0x90C JUMP JUMPDEST NOT DUP1 DUP4 AND SWAP2 POP POP SWAP3 SWAP2 POP POP JUMP JUMPDEST PUSH0 PUSH2 0x93F DUP4 DUP4 PUSH2 0x918 JUMP JUMPDEST SWAP2 POP DUP3 PUSH1 0x2 MUL DUP3 OR SWAP1 POP SWAP3 SWAP2 POP POP JUMP JUMPDEST PUSH2 0x958 DUP3 PUSH2 0x5EF JUMP JUMPDEST PUSH8 0xFFFFFFFFFFFFFFFF DUP2 GT ISZERO PUSH2 0x971 JUMPI PUSH2 0x970 PUSH2 0x3D6 JUMP JUMPDEST JUMPDEST PUSH2 0x97B DUP3 SLOAD PUSH2 0x782 JUMP JUMPDEST PUSH2 0x986 DUP3 DUP3 DUP6 PUSH2 0x8C6 JUMP JUMPDEST PUSH0 PUSH1 0x20 SWAP1 POP PUSH1 0x1F DUP4 GT PUSH1 0x1 DUP2 EQ PUSH2 0x9B7 JUMPI PUSH0 DUP5 ISZERO PUSH2 0x9A5 JUMPI DUP3 DUP8 ADD MLOAD SWAP1 POP JUMPDEST PUSH2 0x9AF DUP6 DUP3 PUSH2 0x934 JUMP JUMPDEST DUP7 SSTORE POP PUSH2 0xA16 JUMP JUMPDEST PUSH1 0x1F NOT DUP5 AND PUSH2 0x9C5 DUP7 PUSH2 0x7B2 JUMP JUMPDEST PUSH0 JUMPDEST DUP3 DUP2 LT ISZERO PUSH2 0x9EC JUMPI DUP5 DUP10 ADD MLOAD DUP3 SSTORE PUSH1 0x1 DUP3 ADD SWAP2 POP PUSH1 0x20 DUP6 ADD SWAP5 POP PUSH1 0x20 DUP2 ADD SWAP1 POP PUSH2 0x9C7 JUMP JUMPDEST DUP7 DUP4 LT ISZERO PUSH2 0xA09 JUMPI DUP5 DUP10 ADD MLOAD PUSH2 0xA05 PUSH1 0x1F DUP10 AND DUP3 PUSH2 0x918 JUMP JUMPDEST DUP4 SSTORE POP JUMPDEST PUSH1 0x1 PUSH1 0x2 DUP9 MUL ADD DUP9 SSTORE POP POP POP JUMPDEST POP POP POP POP POP POP JUMP JUMPDEST PUSH32 0x4E487B7100000000000000000000000000000000000000000000000000000000 PUSH0 MSTORE PUSH1 0x11 PUSH1 0x4 MSTORE PUSH1 0x24 PUSH0 REVERT JUMPDEST PUSH0 PUSH2 0xA55 DUP3 PUSH2 0x4FA JUMP JUMPDEST SWAP2 POP PUSH32 0xFFFFFFFFFFFFFFFFFFFFFFFFFFFFFFFFFFFFFFFFFFFFFFFFFFFFFFFFFFFFFFFF DUP3 SUB PUSH2 0xA87 JUMPI PUSH2 0xA86 PUSH2 0xA1E JUMP JUMPDEST JUMPDEST PUSH1 0x1 DUP3 ADD SWAP1 POP SWAP2 SWAP1 POP JUMP JUMPDEST PUSH0 PUSH1 0x40 DUP3 ADD SWAP1 POP DUP2 DUP2 SUB PUSH0 DUP4 ADD MSTORE PUSH2 0xAAA DUP2 DUP6 PUSH2 0x617 JUMP JUMPDEST SWAP1 POP PUSH2 0xAB9 PUSH1 0x20 DUP4 ADD DUP5 PUSH2 0x5E0 JUMP JUMPDEST SWAP4 SWAP3 POP POP POP JUMP INVALID LOG2 PUSH5 0x6970667358 0x22 SLT KECCAK256 SLT PUSH7 0xD16AA33964C154 TSTORE TLOAD MULMOD SWAP10 0xF8 SHR REVERT COINBASE BLOCKHASH DUP8 KECCAK256 0xEE 0xC 0xEF PUSH19 0xCB3E89CBFCEEA55564736F6C63430008190033 "
				},
				"gasEstimates": {
					"creation": {
						"codeDepositCost": "561200",
						"executionCost": "22697",
						"totalCost": "583897"
					},
					"external": {
						"products(uint256)": "infinite",
						"registerProduct(string,string,uint256)": "infinite"
					}
				},
				"methodIdentifiers": {
					"products(uint256)": "7acc0b20",
					"registerProduct(string,string,uint256)": "3153a15b"
				}
			},
			"storageLayout": {
				"storage": [
					{
						"astId": 4,
						"contract": "contracts/GiftShop.sol:GiftShop",
						"label": "count",
						"offset": 0,
						"slot": "0",
						"type": "t_uint256"
					},
					{
						"astId": 19,
						"contract": "contracts/GiftShop.sol:GiftShop",
						"label": "products",
						"offset": 0,
						"slot": "1",
						"type": "t_array(t_struct(Product)15_storage)dyn_storage"
					}
				],
				"types": {
					"t_address": {
						"encoding": "inplace",
						"label": "address",
						"numberOfBytes": "20"
					},
					"t_array(t_struct(Product)15_storage)dyn_storage": {
						"base": "t_struct(Product)15_storage",
						"encoding": "dynamic_array",
						"label": "struct GiftShop.Product[]",
						"numberOfBytes": "32"
					},
					"t_string_storage": {
						"encoding": "bytes",
						"label": "string",
						"numberOfBytes": "32"
					},
					"t_struct(Product)15_storage": {
						"encoding": "inplace",
						"label": "struct GiftShop.Product",
						"members": [
							{
								"astId": 6,
								"contract": "contracts/GiftShop.sol:GiftShop",
								"label": "product_Id",
								"offset": 0,
								"slot": "0",
								"type": "t_uint256"
							},
							{
								"astId": 8,
								"contract": "contracts/GiftShop.sol:GiftShop",
								"label": "product_Title",
								"offset": 0,
								"slot": "1",
								"type": "t_string_storage"
							},
							{
								"astId": 10,
								"contract": "contracts/GiftShop.sol:GiftShop",
								"label": "price",
								"offset": 0,
								"slot": "2",
								"type": "t_uint256"
							},
							{
								"astId": 12,
								"contract": "contracts/GiftShop.sol:GiftShop",
								"label": "disc",
								"offset": 0,
								"slot": "3",
								"type": "t_string_storage"
							},
							{
								"astId": 14,
								"contract": "contracts/GiftShop.sol:GiftShop",
								"label": "buyer",
								"offset": 0,
								"slot": "4",
								"type": "t_address"
							}
						],
						"numberOfBytes": "160"
					},
					"t_uint256": {
						"encoding": "inplace",
						"label": "uint256",
						"numberOfBytes": "32"
					}
				}
			},
			"userdoc": {
				"kind": "user",
				"methods": {},
				"version": 1
			}
		}
	}
}